{
  "_format": "hh-sol-artifact-1",
  "contractName": "Inbox",
  "sourceName": "contracts/Inbox.sol",
  "abi": [
    {
      "inputs": [
        {
          "internalType": "bytes32",
          "name": "_hash",
          "type": "bytes32"
        }
      ],
      "name": "IntentAlreadyFulfilled",
      "type": "error"
    },
    {
      "inputs": [
        {
          "internalType": "address",
          "name": "_addr",
          "type": "address"
        },
        {
          "internalType": "bytes",
          "name": "_data",
          "type": "bytes"
        },
        {
          "internalType": "bytes",
          "name": "_returnData",
          "type": "bytes"
        }
      ],
      "name": "IntentCallFailed",
      "type": "error"
    },
    {
      "inputs": [],
      "name": "IntentExpired",
      "type": "error"
    },
    {
      "inputs": [
        {
          "internalType": "bytes32",
          "name": "_expectedHash",
          "type": "bytes32"
        }
      ],
      "name": "InvalidHash",
      "type": "error"
    },
    {
      "anonymous": false,
      "inputs": [
        {
          "indexed": true,
          "internalType": "bytes32",
          "name": "_hash",
          "type": "bytes32"
        }
      ],
      "name": "Fulfillment",
      "type": "event"
    },
    {
      "inputs": [
        {
          "internalType": "bytes32",
          "name": "_nonce",
          "type": "bytes32"
        },
        {
          "internalType": "address[]",
          "name": "_targets",
          "type": "address[]"
        },
        {
          "internalType": "bytes[]",
          "name": "_datas",
          "type": "bytes[]"
        },
        {
          "internalType": "uint256",
          "name": "_expireTimestamp",
          "type": "uint256"
        },
        {
          "internalType": "address",
          "name": "_claimant",
          "type": "address"
        },
        {
          "internalType": "bytes32",
          "name": "_expectedHash",
          "type": "bytes32"
        }
      ],
      "name": "fulfill",
      "outputs": [
        {
          "internalType": "bytes[]",
          "name": "",
          "type": "bytes[]"
        }
      ],
      "stateMutability": "nonpayable",
      "type": "function"
    },
    {
      "inputs": [
        {
          "internalType": "bytes32",
          "name": "",
          "type": "bytes32"
        }
      ],
      "name": "fulfilled",
      "outputs": [
        {
          "internalType": "address",
          "name": "",
          "type": "address"
        }
      ],
      "stateMutability": "view",
      "type": "function"
    }
  ],
  "bytecode": "0x6080806040523460155761060c908161001b8239f35b600080fdfe608080604052600436101561001357600080fd5b60003560e01c9081632aa91bfd1461043157506349134f5d1461003557600080fd5b3461042c5760c036600319011261042c5760243567ffffffffffffffff811161042c57610066903690600401610463565b9060443567ffffffffffffffff811161042c57610087903690600401610463565b91606435916084356001600160a01b03811692919083900361042c5760a4359460009442811061041d5760405160208101918960c0830146855260a06040850152528160e0810191878a5b8d81106103ed575050601f19828403016060830152858352602083019060208760051b8501019188948c601e198b3603015b8a821061038a5750505050608083015260043560a083015203601f198101835261012f9150826104d5565b519020958087036103785750858552602085905260408520546001600160a01b03166103645761015e8161050d565b9661016c60405198896104d5565b818852601f1961017b8361050d565b01865b818110610353575050855b8281106102395787875260208790526040872080546001600160a01b0319168717905588887fb92dde97208f1dd4636d398d6326361fb46bf3c5abca8cb6a41d7121a20327a28980a26040518091602082016020835281518091526040830190602060408260051b8601019301916000905b82821061020a57505050500390f35b919360019193955060206102298192603f198a82030186528851610494565b96019201920185949391926101fb565b868061024e61024984868a610525565b61054b565b8161025a85888a61055f565b9190826040519384928337810182815203925af13d1561034b573d9067ffffffffffffffff8211610337576040519161029d601f8201601f1916602001846104d5565b82523d89602084013e5b156102cc57906001916102ba828c6105c2565b526102c5818b6105c2565b5001610189565b9190610333936102e6610249836102ec956103219a610525565b9561055f565b60405163bd4f5aa560e01b81526001600160a01b039095166004860152606060248601529394859490916064860191906105a1565b83810360031901604485015290610494565b0390fd5b634e487b7160e01b89526041600452602489fd5b6060906102a7565b806060602080938d0101520161017e565b63373d207960e01b85526004869052602485fd5b6344d659bf60e01b8652600452602485fd5b919395509193601f198482030185528635828112156103e9578b0160208135910167ffffffffffffffff82116103e55781360381136103e5576103d360019360209384936105a1565b98019501920187959391969496610104565b8f80fd5b8e80fd5b91925092833560018060a01b0381168091036104195781526020908101938593929101906001016100d2565b8b80fd5b631022c88d60e21b8652600486fd5b600080fd5b3461042c57602036600319011261042c57600435600090815260208181526040909120546001600160a01b0316825290f35b9181601f8401121561042c5782359167ffffffffffffffff831161042c576020808501948460051b01011161042c57565b919082519283825260005b8481106104c0575050826000602080949584010152601f8019910116010190565b8060208092840101518282860101520161049f565b90601f8019910116810190811067ffffffffffffffff8211176104f757604052565b634e487b7160e01b600052604160045260246000fd5b67ffffffffffffffff81116104f75760051b60200190565b91908110156105355760051b0190565b634e487b7160e01b600052603260045260246000fd5b356001600160a01b038116810361042c5790565b91908110156105355760051b81013590601e198136030182121561042c57019081359167ffffffffffffffff831161042c57602001823603811361042c579190565b908060209392818452848401376000828201840152601f01601f1916010190565b80518210156105355760209160051b01019056fea264697066735822122063f1410edd54bd5a108bef9557836f527c4f37cebcdcbcbf61dbba5185a0df8564736f6c634300081a0033",
  "linkReferences": {},
  "deployedLinkReferences": {}
}