{
  "_format": "hh-sol-artifact-1",
  "contractName": "Inbox",
  "sourceName": "contracts/Inbox.sol",
  "abi": [
    {
      "inputs": [
        {
          "internalType": "address",
          "name": "_owner",
          "type": "address"
        },
        {
          "internalType": "bool",
          "name": "_isSolvingPublic",
          "type": "bool"
        },
        {
          "internalType": "address[]",
          "name": "_solvers",
          "type": "address[]"
        }
      ],
      "stateMutability": "nonpayable",
      "type": "constructor"
    },
    {
      "inputs": [
        {
          "internalType": "bytes32",
          "name": "_hash",
          "type": "bytes32"
        }
      ],
      "name": "IntentAlreadyFulfilled",
      "type": "error"
    },
    {
      "inputs": [
        {
          "internalType": "address",
          "name": "_addr",
          "type": "address"
        },
        {
          "internalType": "bytes",
          "name": "_data",
          "type": "bytes"
        },
        {
          "internalType": "bytes",
          "name": "_returnData",
          "type": "bytes"
        }
      ],
      "name": "IntentCallFailed",
      "type": "error"
    },
    {
      "inputs": [],
      "name": "IntentExpired",
      "type": "error"
    },
    {
      "inputs": [
        {
          "internalType": "bytes32",
          "name": "_expectedHash",
          "type": "bytes32"
        }
      ],
      "name": "InvalidHash",
      "type": "error"
    },
    {
      "inputs": [
        {
          "internalType": "address",
          "name": "owner",
          "type": "address"
        }
      ],
      "name": "OwnableInvalidOwner",
      "type": "error"
    },
    {
      "inputs": [
        {
          "internalType": "address",
          "name": "account",
          "type": "address"
        }
      ],
      "name": "OwnableUnauthorizedAccount",
      "type": "error"
    },
    {
      "inputs": [
        {
          "internalType": "address",
          "name": "_solver",
          "type": "address"
        }
      ],
      "name": "UnauthorizedSolveAttempt",
      "type": "error"
    },
    {
      "anonymous": false,
      "inputs": [
        {
          "indexed": true,
          "internalType": "bytes32",
          "name": "_hash",
          "type": "bytes32"
        },
        {
          "indexed": true,
          "internalType": "uint256",
          "name": "_sourceChainID",
          "type": "uint256"
        },
        {
          "indexed": true,
          "internalType": "address",
          "name": "_claimant",
          "type": "address"
        }
      ],
      "name": "Fulfillment",
      "type": "event"
    },
    {
      "anonymous": false,
      "inputs": [
        {
          "indexed": true,
          "internalType": "address",
          "name": "previousOwner",
          "type": "address"
        },
        {
          "indexed": true,
          "internalType": "address",
          "name": "newOwner",
          "type": "address"
        }
      ],
      "name": "OwnershipTransferred",
      "type": "event"
    },
    {
      "anonymous": false,
      "inputs": [
        {
          "indexed": true,
          "internalType": "address",
          "name": "_solver",
          "type": "address"
        },
        {
          "indexed": true,
          "internalType": "bool",
          "name": "_canSolve",
          "type": "bool"
        }
      ],
      "name": "SolverWhitelistChanged",
      "type": "event"
    },
    {
      "anonymous": false,
      "inputs": [],
      "name": "SolvingIsPublic",
      "type": "event"
    },
    {
      "inputs": [
        {
          "internalType": "address",
          "name": "_solver",
          "type": "address"
        },
        {
          "internalType": "bool",
          "name": "_canSolve",
          "type": "bool"
        }
      ],
      "name": "changeSolverWhitelist",
      "outputs": [],
      "stateMutability": "nonpayable",
      "type": "function"
    },
    {
      "inputs": [
        {
          "internalType": "uint256",
          "name": "_sourceChainID",
          "type": "uint256"
        },
        {
          "internalType": "address[]",
          "name": "_targets",
          "type": "address[]"
        },
        {
          "internalType": "bytes[]",
          "name": "_data",
          "type": "bytes[]"
        },
        {
          "internalType": "uint256",
          "name": "_expiryTime",
          "type": "uint256"
        },
        {
          "internalType": "bytes32",
          "name": "_nonce",
          "type": "bytes32"
        },
        {
          "internalType": "address",
          "name": "_claimant",
          "type": "address"
        },
        {
          "internalType": "bytes32",
          "name": "_expectedHash",
          "type": "bytes32"
        }
      ],
      "name": "fulfill",
      "outputs": [
        {
          "internalType": "bytes[]",
          "name": "",
          "type": "bytes[]"
        }
      ],
      "stateMutability": "nonpayable",
      "type": "function"
    },
    {
      "inputs": [
        {
          "internalType": "bytes32",
          "name": "",
          "type": "bytes32"
        }
      ],
      "name": "fulfilled",
      "outputs": [
        {
          "internalType": "address",
          "name": "",
          "type": "address"
        }
      ],
      "stateMutability": "view",
      "type": "function"
    },
    {
      "inputs": [],
      "name": "isSolvingPublic",
      "outputs": [
        {
          "internalType": "bool",
          "name": "",
          "type": "bool"
        }
      ],
      "stateMutability": "view",
      "type": "function"
    },
    {
      "inputs": [],
      "name": "makeSolvingPublic",
      "outputs": [],
      "stateMutability": "nonpayable",
      "type": "function"
    },
    {
      "inputs": [],
      "name": "owner",
      "outputs": [
        {
          "internalType": "address",
          "name": "",
          "type": "address"
        }
      ],
      "stateMutability": "view",
      "type": "function"
    },
    {
      "inputs": [],
      "name": "renounceOwnership",
      "outputs": [],
      "stateMutability": "nonpayable",
      "type": "function"
    },
    {
      "inputs": [
        {
          "internalType": "address",
          "name": "",
          "type": "address"
        }
      ],
      "name": "solverWhitelist",
      "outputs": [
        {
          "internalType": "bool",
          "name": "",
          "type": "bool"
        }
      ],
      "stateMutability": "view",
      "type": "function"
    },
    {
      "inputs": [
        {
          "internalType": "address",
          "name": "newOwner",
          "type": "address"
        }
      ],
      "name": "transferOwnership",
      "outputs": [],
      "stateMutability": "nonpayable",
      "type": "function"
    }
  ],
  "bytecode": "0x60806040523461017d57610b0a8038038061001981610198565b92833981019060608183031261017d57610032816101bd565b60208201519182151580930361017d576040810151906001600160401b03821161017d57019280601f8501121561017d578351936001600160401b038511610182578460051b90602080610087818501610198565b80988152019282010192831161017d57602001905b828210610165575050506001600160a01b0316801561014f57600080546001600160a01b03198116831782556001600160a01b0316907f8be0079c531659141344cd1fd0a4f28419497f9722a3daafe3b4186f6b6457e09080a360ff80196003541691161760035560005b81518110156101405760019060406000838060a01b0360208460051b870101511681526002602052208260ff1982541617905501610107565b60405161093890816101d28239f35b631e4fbdf760e01b600052600060045260246000fd5b60208091610172846101bd565b81520191019061009c565b600080fd5b634e487b7160e01b600052604160045260246000fd5b6040519190601f01601f191682016001600160401b0381118382101761018257604052565b51906001600160a01b038216820361017d5756fe608080604052600436101561001357600080fd5b60003560e01c9081632aa91bfd146107205750806340f3a5a8146106fd57806350b84526146106b057806362b3a77c14610671578063715018a6146106185780638da5cb5b146105ef578063caae303c14610576578063dd9f3fe2146101105763f2fde38b1461008257600080fd5b3461010b57602036600319011261010b5761009b610750565b6100a36108d9565b6001600160a01b031680156100f557600080546001600160a01b03198116831782556001600160a01b0316907f8be0079c531659141344cd1fd0a4f28419497f9722a3daafe3b4186f6b6457e09080a3005b631e4fbdf760e01b600052600060045260246000fd5b600080fd5b3461010b5760e036600319011261010b5760043560243567ffffffffffffffff811161010b57610144903690600401610766565b9160443567ffffffffffffffff811161010b57610165903690600401610766565b60a4356001600160a01b038116949192606435929186900361010b5760c4359360009360ff60035416158061055f575b61054c5742811061053d5760405160208101918a60e083018a855246604085015260c060608501525281610100810191878d8a905b811061050c575050601f19828403016080830152858352602083019060208760051b8501019188948b601e198b3603015b8a82106104a9575050505060a083015260843560c083015203601f19810183526102269150826107d8565b51902060405160208101913083526040820152604081526102486060826107d8565b519020948086036104975750848452600160205260408420546001600160a01b03166104835761027781610810565b97610285604051998a6107d8565b818952601f1961029483610810565b0189865b82811061047157505050845b82811061035757505050838352505060016020526040812080546001600160a01b031916851790557f306cd1d43c9d25bf2e05db32b00e823b089fe9679696922daaba4c7093df96939080a46040518091602082016020835281518091526040830190602060408260051b8601019301916000905b82821061032857505050500390f35b919360019193955060206103478192603f198a82030186528851610797565b9601920192018594939192610319565b858061036c61036784868a610828565b61084e565b8161037885888a610862565b9190826040519384928337810182815203925af13d15610469573d9067ffffffffffffffff821161045557604051916103bb601f8201601f1916602001846107d8565b82523d88602084013e5b156103ea57906001916103d8828d6108c5565b526103e3818c6108c5565b50016102a4565b9190610451936104046103678361040a9561043f9a610828565b95610862565b60405163bd4f5aa560e01b81526001600160a01b039095166004860152606060248601529394859490916064860191906108a4565b83810360031901604485015290610797565b0390fd5b634e487b7160e01b88526041600452602488fd5b6060906103c5565b60606020828194010152018a90610298565b63373d207960e01b84526004859052602484fd5b6344d659bf60e01b8552600452602484fd5b919395509193601f19848203018552863582811215610508578b0160208135910167ffffffffffffffff8211610504578136038113610504576104f260019360209384936108a4565b980195019201879593919694966101fb565b8e80fd5b8d80fd5b91925092833560018060a01b0381168091036105395781526020908101938593929101906001018e6101ca565b8a80fd5b631022c88d60e21b8552600485fd5b63c37cea4760e01b855233600452602485fd5b50338552600260205260ff60408620541615610195565b3461010b57604036600319011261010b5761058f610750565b6024359081151580920361010b576105a56108d9565b6001600160a01b03166000818152600260205260408120805460ff191660ff85161790557f3f3a0c23a11da402767747df1ed29891ffc0a54d42f3e8c767548cd45b7dd6789080a3005b3461010b57600036600319011261010b576000546040516001600160a01b039091168152602090f35b3461010b57600036600319011261010b576106316108d9565b600080546001600160a01b0319811682556001600160a01b03167f8be0079c531659141344cd1fd0a4f28419497f9722a3daafe3b4186f6b6457e08280a3005b3461010b57602036600319011261010b576001600160a01b03610692610750565b166000526002602052602060ff604060002054166040519015158152f35b3461010b57600036600319011261010b576106c96108d9565b600160ff1960035416176003557f547ced8bfaeeb516dd99a65ffc844c3eacbdc19ce3857d1bd0fc8108207c6808600080a1005b3461010b57600036600319011261010b57602060ff600354166040519015158152f35b3461010b57602036600319011261010b576020906004356000526001825260018060a01b03604060002054168152f35b600435906001600160a01b038216820361010b57565b9181601f8401121561010b5782359167ffffffffffffffff831161010b576020808501948460051b01011161010b57565b919082519283825260005b8481106107c3575050826000602080949584010152601f8019910116010190565b806020809284010151828286010152016107a2565b90601f8019910116810190811067ffffffffffffffff8211176107fa57604052565b634e487b7160e01b600052604160045260246000fd5b67ffffffffffffffff81116107fa5760051b60200190565b91908110156108385760051b0190565b634e487b7160e01b600052603260045260246000fd5b356001600160a01b038116810361010b5790565b91908110156108385760051b81013590601e198136030182121561010b57019081359167ffffffffffffffff831161010b57602001823603811361010b579190565b908060209392818452848401376000828201840152601f01601f1916010190565b80518210156108385760209160051b010190565b6000546001600160a01b031633036108ed57565b63118cdaa760e01b6000523360045260246000fdfea2646970667358221220b0c05e242d2c8bf461bc58131e014c4d2e70e6d7bbe6bafd7ff2441ea42d028a64736f6c634300081a0033",
  "linkReferences": {},
  "deployedLinkReferences": {}
}