{
  "_format": "hh-sol-artifact-1",
  "contractName": "IntentSource",
  "sourceName": "contracts/IntentSource.sol",
  "abi": [
    {
      "inputs": [
        {
          "internalType": "address",
          "name": "_prover",
          "type": "address"
        },
        {
          "internalType": "uint256",
          "name": "_minimumDuration",
          "type": "uint256"
        },
        {
          "internalType": "uint256",
          "name": "_counterStart",
          "type": "uint256"
        }
      ],
      "stateMutability": "nonpayable",
      "type": "constructor"
    },
    {
      "inputs": [],
      "name": "CalldataMismatch",
      "type": "error"
    },
    {
      "inputs": [],
      "name": "ExpiryTooSoon",
      "type": "error"
    },
    {
      "inputs": [
        {
          "internalType": "bytes32",
          "name": "_hash",
          "type": "bytes32"
        }
      ],
      "name": "NothingToWithdraw",
      "type": "error"
    },
    {
      "inputs": [],
      "name": "RewardsMismatch",
      "type": "error"
    },
    {
      "inputs": [
        {
          "internalType": "bytes32",
          "name": "_hash",
          "type": "bytes32"
        }
      ],
      "name": "UnauthorizedWithdrawal",
      "type": "error"
    },
    {
      "anonymous": false,
      "inputs": [
        {
          "indexed": true,
          "internalType": "bytes32",
          "name": "_hash",
          "type": "bytes32"
        },
        {
          "indexed": false,
          "internalType": "address",
          "name": "_creator",
          "type": "address"
        },
        {
          "indexed": true,
          "internalType": "uint256",
          "name": "_destinationChain",
          "type": "uint256"
        },
        {
          "indexed": false,
          "internalType": "address[]",
          "name": "_targets",
          "type": "address[]"
        },
        {
          "indexed": false,
          "internalType": "bytes[]",
          "name": "_data",
          "type": "bytes[]"
        },
        {
          "indexed": false,
          "internalType": "address[]",
          "name": "_rewardTokens",
          "type": "address[]"
        },
        {
          "indexed": false,
          "internalType": "uint256[]",
          "name": "_rewardAmounts",
          "type": "uint256[]"
        },
        {
          "indexed": true,
          "internalType": "uint256",
          "name": "_expiryTime",
          "type": "uint256"
        },
        {
          "indexed": false,
          "internalType": "bytes32",
          "name": "nonce",
          "type": "bytes32"
        }
      ],
      "name": "IntentCreated",
      "type": "event"
    },
    {
      "anonymous": false,
      "inputs": [
        {
          "indexed": false,
          "internalType": "bytes32",
          "name": "_hash",
          "type": "bytes32"
        },
        {
          "indexed": true,
          "internalType": "address",
          "name": "_recipient",
          "type": "address"
        }
      ],
      "name": "Withdrawal",
      "type": "event"
    },
    {
      "inputs": [],
      "name": "CHAIN_ID",
      "outputs": [
        {
          "internalType": "uint256",
          "name": "",
          "type": "uint256"
        }
      ],
      "stateMutability": "view",
      "type": "function"
    },
    {
      "inputs": [],
      "name": "MINIMUM_DURATION",
      "outputs": [
        {
          "internalType": "uint256",
          "name": "",
          "type": "uint256"
        }
      ],
      "stateMutability": "view",
      "type": "function"
    },
    {
      "inputs": [],
      "name": "PROVER",
      "outputs": [
        {
          "internalType": "contract IProver",
          "name": "",
          "type": "address"
        }
      ],
      "stateMutability": "view",
      "type": "function"
    },
    {
      "inputs": [],
      "name": "counter",
      "outputs": [
        {
          "internalType": "uint256",
          "name": "",
          "type": "uint256"
        }
      ],
      "stateMutability": "view",
      "type": "function"
    },
    {
      "inputs": [
        {
          "internalType": "uint256",
          "name": "_destinationChainID",
          "type": "uint256"
        },
        {
          "internalType": "address",
          "name": "_inbox",
          "type": "address"
        },
        {
          "internalType": "address[]",
          "name": "_targets",
          "type": "address[]"
        },
        {
          "internalType": "bytes[]",
          "name": "_data",
          "type": "bytes[]"
        },
        {
          "internalType": "address[]",
          "name": "_rewardTokens",
          "type": "address[]"
        },
        {
          "internalType": "uint256[]",
          "name": "_rewardAmounts",
          "type": "uint256[]"
        },
        {
          "internalType": "uint256",
          "name": "_expiryTime",
          "type": "uint256"
        }
      ],
      "name": "createIntent",
      "outputs": [],
      "stateMutability": "nonpayable",
      "type": "function"
    },
    {
      "inputs": [
        {
          "internalType": "bytes32",
          "name": "identifier",
          "type": "bytes32"
        }
      ],
      "name": "getIntent",
      "outputs": [
        {
          "components": [
            {
              "internalType": "address",
              "name": "creator",
              "type": "address"
            },
            {
              "internalType": "uint256",
              "name": "destinationChainID",
              "type": "uint256"
            },
            {
              "internalType": "address[]",
              "name": "targets",
              "type": "address[]"
            },
            {
              "internalType": "bytes[]",
              "name": "data",
              "type": "bytes[]"
            },
            {
              "internalType": "address[]",
              "name": "rewardTokens",
              "type": "address[]"
            },
            {
              "internalType": "uint256[]",
              "name": "rewardAmounts",
              "type": "uint256[]"
            },
            {
              "internalType": "uint256",
              "name": "expiryTime",
              "type": "uint256"
            },
            {
              "internalType": "bool",
              "name": "hasBeenWithdrawn",
              "type": "bool"
            },
            {
              "internalType": "bytes32",
              "name": "nonce",
              "type": "bytes32"
            }
          ],
          "internalType": "struct Intent",
          "name": "",
          "type": "tuple"
        }
      ],
      "stateMutability": "view",
      "type": "function"
    },
    {
      "inputs": [
        {
          "internalType": "bytes32",
          "name": "intenthash",
          "type": "bytes32"
        }
      ],
      "name": "intents",
      "outputs": [
        {
          "internalType": "address",
          "name": "creator",
          "type": "address"
        },
        {
          "internalType": "uint256",
          "name": "destinationChainID",
          "type": "uint256"
        },
        {
          "internalType": "uint256",
          "name": "expiryTime",
          "type": "uint256"
        },
        {
          "internalType": "bool",
          "name": "hasBeenWithdrawn",
          "type": "bool"
        },
        {
          "internalType": "bytes32",
          "name": "nonce",
          "type": "bytes32"
        }
      ],
      "stateMutability": "view",
      "type": "function"
    },
    {
      "inputs": [
        {
          "internalType": "bytes32",
          "name": "_hash",
          "type": "bytes32"
        }
      ],
      "name": "withdrawRewards",
      "outputs": [],
      "stateMutability": "nonpayable",
      "type": "function"
    }
  ],
  "bytecode": "0x60e0346100aa57601f6114d538819003918201601f19168301916001600160401b038311848410176100af578084926060946040528339810103126100aa5780516001600160a01b03811691908290036100aa5760406020820151910151914660805260a05260c05260005560405161140f90816100c682396080518181816103e60152610d01015260a0518181816102b00152610f8c015260c0518181816103b10152610d760152f35b600080fd5b634e487b7160e01b600052604160045260246000fdfe608080604052600436101561001357600080fd5b60003560e01c9081632d28e89d14610d605750806361bc221a14610d425780637dfb662614610d2457806385e1f4d014610ce95780639021578a14610c85578063deb6be82146102df578063df92f8561461029a5763f13c46aa1461007757600080fd5b346102955760203660031901126102955760043560405161009781610ed9565b60008152602081016000905260408101606090526060810160609052608081016060905260a081016060905260c081016000905260e081016000905261010001600090528060005260016020526040600020604051906100f682610ed9565b80546001600160a01b031682526001810154602083019081529261011c60028301611258565b6040840190815291610130600382016112ac565b6060850190815261014360048301611258565b608086019081526101566005840161138e565b9160a0870192835260068401549560c08801968752600785015460ff169460e0890195151586526008015495610100890196875280600052600160205260406000206002016101a490611258565b825280600052600160205260406000206003016101c0906112ac565b835280600052600160205260406000206004016101dc90611258565b8452600052600160205260406000206005016101f79061138e565b845260405198899860208a52600160a01b6001900390511660208a015251604089015251606088016101209052610140880161023291610ddd565b9051878203601f1901608089015261024a9190610e1a565b9051868203601f190160a08801526102629190610ddd565b9051858203601f190160c087015261027a9190610ea5565b925160e0850152511515610100840152516101208301520390f35b600080fd5b34610295576000366003190112610295576040517f00000000000000000000000000000000000000000000000000000000000000006001600160a01b03168152602090f35b346102955760e0366003190112610295576024356001600160a01b0381169060043590829003610295576044356001600160401b03811161029557610328903690600401610dad565b9190926064356001600160401b0381116102955761034a903690600401610dad565b9190936084356001600160401b0381116102955761036c903690600401610dad565b92909460a4356001600160401b0381116102955761038e903690600401610dad565b95909760c4359185158015610c7b575b610c6a5786158015610c60575b610c4f577f00000000000000000000000000000000000000000000000000000000000000004201804211610916578310610c3e578a600054957f0000000000000000000000000000000000000000000000000000000000000000966040516020810191825288604082015260408152610425606082610ef5565b5190209660405189602082019260e0830190845289604084015260c060608401525261010081019360005b8b8110610c16575050601f19818503016080820152848452602084018560051b946020868201019188916000601e198b3603015b8a8210610bad575050505050906104b5816104f99594938a60a08301528c60c083015203601f198101835282610ef5565b51902060405190602082019283526040820152604081526104d7606082610ef5565b5190209c604051986104e88a610ed9565b338a5260208a01978852369161117e565b926040880193845261050a83611167565b926105186040519485610ef5565b835260208301918101903682116102955780925b828410610b3b57505050506060860190815261054936888b61117e565b906080870191825261055a89611167565b926105686040519485610ef5565b898452602084018a60051b8d0190368211610295578d905b828210610b2b5750505060a0880193845260c08801948552600060e089018181526101008a019889528e825260016020819052604090922099518a546001600160a01b0319166001600160a01b0391909116178a559651908901555180519060028901906001600160401b03831161094057600160401b83116109405760209061060f848454818655856111e9565b0190600052602060002060005b838110610b0e5750505050600387019051805190600160401b8211610940578254828455808310610a90575b50602001916000526020600020916000905b8282106109735750505050600486019051908151916001600160401b03831161094057600160401b83116109405760209061069a848454818655856111e9565b0190600052602060002060005b8381106109565750505050600585019051908151916001600160401b03831161094057600160401b8311610940576020906106e7848454818655856111e9565b0190600052602060002060005b83811061092c57505050509060089291516006850155600784019051151560ff8019835416911617905551910155600054600181018091116109165760005560005b81811061086f57858060005260016020526040600020906040519061075a82610ed9565b82546001600160a01b031682526001830154602083019081527f4d57d71884135619aa0097f5e665cc0257fcf37b35433f4b554f57a182e774169061083a90610100610864876108566107af60028301611258565b9860408101998a526108486107c6600385016112ac565b96606083019788526107da60048601611258565b9260808101938452600860066107f26005890161138e565b978860a085015201549e8f60c084015260ff600782015416151560e084015201549788910152519a519651915191604051988998338a5260c060208b015260c08a0190610ddd565b9088820360408a0152610e1a565b908682036060880152610ddd565b908482036080860152610ea5565b9060a08301520390a4005b61087a818386611248565b356001600160a01b038116919082900361029557602060009260646108a084888b611248565b3560405195869384926323b872dd60e01b845233600485015230602485015260448401525af191821561090a576001926108dc575b5001610736565b6108fc9060203d8111610903575b6108f48183610ef5565b810190610f44565b50876108d5565b503d6108ea565b6040513d6000823e3d90fd5b634e487b7160e01b600052601160045260246000fd5b6001906020845194019381840155016106f4565b634e487b7160e01b600052604160045260246000fd5b82516001600160a01b0316818301556020909201916001016106a7565b80518051906001600160401b03821161094057610990865461120e565b601f8111610a53575b50602090601f83116001146109e65792826001949360209386956000926109db575b5050600019600383901b1c191690841b1787555b0194019101909261065a565b0151905038806109bb565b90601f1983169187600052816000209260005b818110610a3b5750936020936001969387969383889510610a22575b505050811b0187556109cf565b015160001960f88460031b161c19169055388080610a15565b929360206001819287860151815501950193016109f9565b610a8090876000526020600020601f850160051c81019160208610610a86575b601f0160051c01906111d2565b38610999565b9091508190610a73565b8360005282602060002091820191015b818110610aad5750610648565b80610aba6001925461120e565b80610ac7575b5001610aa0565b601f81118314610add5750600081555b38610ac0565b610afb908260005283601f6020600020920160051c820191016111d2565b8060005260006020812081835555610ad7565b82516001600160a01b03168183015560209092019160010161061c565b8135815260209182019101610580565b83356001600160401b03811161029557820136601f82011215610295578035916001600160401b03831161094057604051610b80601f8501601f191660200182610ef5565b8381523660208585010111610295576000602085819682809701838601378301015281520193019261052c565b9091929394601f19848203018552853582811215610295578c0190602082359201916001600160401b038111610295578036038313610295576020828280600196849695859652848401376000828201840152601f01601f191601019701950193920190610484565b909460019060209081906001600160a01b03610c318a610d99565b1681520196019101610450565b631f1694d360e21b60005260046000fd5b633be1e8eb60e01b60005260046000fd5b50878714156103ab565b6325e054fb60e01b60005260046000fd5b508086141561039e565b3461029557602036600319011261029557600435600052600160205260a06040600020600180831b03815416906001810154906006810154600860ff6007840154169201549260405194855260208501526040840152151560608301526080820152f35b346102955760003660031901126102955760206040517f00000000000000000000000000000000000000000000000000000000000000008152f35b3461029557602036600319011261029557610d40600435610f5c565b005b34610295576000366003190112610295576020600054604051908152f35b34610295576000366003190112610295576020907f00000000000000000000000000000000000000000000000000000000000000008152f35b35906001600160a01b038216820361029557565b9181601f84011215610295578235916001600160401b038311610295576020808501948460051b01011161029557565b906020808351928381520192019060005b818110610dfb5750505090565b82516001600160a01b0316845260209384019390920191600101610dee565b9080602083519283815201916020808260051b8401019401926000925b828410610e4657505050505090565b9091929394601f19828203018352855180519081835260005b828110610e9057505060208083836000838096600198010152601f8019910116010197019301940192919390610e37565b80602080928401015182828701015201610e5f565b906020808351928381520192019060005b818110610ec35750505090565b8251845260209384019390920191600101610eb6565b61012081019081106001600160401b0382111761094057604052565b90601f801991011681019081106001600160401b0382111761094057604052565b8054821015610f2e5760005260206000200190600090565b634e487b7160e01b600052603260045260246000fd5b90816020910312610295575180151581036102955790565b8060005260016020526040600020604051634ce8a2d960e11b815282600482015260208160248160018060a01b037f0000000000000000000000000000000000000000000000000000000000000000165afa90811561090a5760009161111e575b5090600781019160ff83541615610fe35783633f7f9c6560e11b60005260045260246000fd5b60018060a01b03163381149081156110e9575b50611010578263dac420a360e01b60005260045260246000fd5b600481018054916005019060005b8381106110625750505050600160ff198254161790556040519081527f6653a45d3871e4110fa55dac0269f9f93a6d9078d402f7153594e50573d7f0cd60203392a2565b80602061107160009385610f16565b905460039190911b1c6001600160a01b0316604461108f8488610f16565b90549060031b1c604051958693849263a9059cbb60e01b845233600485015260248401525af191821561090a576001926110cb575b500161101e565b6110e29060203d8111610903576108f48183610ef5565b50386110c4565b9050158061110b575b806110fe575b38610ff6565b50600681015442116110f8565b5080546001600160a01b031633146110f2565b6020813d60201161115f575b8161113760209383610ef5565b8101031261115b5751906001600160a01b0382168203611158575038610fbd565b80fd5b5080fd5b3d915061112a565b6001600160401b0381116109405760051b60200190565b92919061118a81611167565b936111986040519586610ef5565b602085838152019160051b810192831161029557905b8282106111ba57505050565b602080916111c784610d99565b8152019101906111ae565b8181106111dd575050565b600081556001016111d2565b918181106111f657505050565b61120c92600052602060002091820191016111d2565b565b90600182811c9216801561123e575b602083101461122857565b634e487b7160e01b600052602260045260246000fd5b91607f169161121d565b9190811015610f2e5760051b0190565b906040519182815491828252602082019060005260206000209260005b81811061128a57505061120c92500383610ef5565b84546001600160a01b0316835260019485019487945060209093019201611275565b908154916112b983611167565b926112c76040519485610ef5565b80845260208401916000526020600020916000905b8282106112e95750505050565b604051600085546112f98161120e565b808452906001811690811561136b5750600114611333575b506001928261132585946020940382610ef5565b8152019401910190926112dc565b6000878152602081209092505b81831061135557505081016020016001611311565b6001816020925483868801015201920191611340565b60ff191660208581019190915291151560051b8401909101915060019050611311565b906040519182815491828252602082019060005260206000209260005b8181106113c057505061120c92500383610ef5565b84548352600194850194879450602090930192016113ab56fea26469706673582212201d71bbb186a85089946e8befc06b9b8b82a728bcc9a51ac51543fb74cc30c3e764736f6c634300081a0033",
  "linkReferences": {},
  "deployedLinkReferences": {}
}