{
  "_format": "hh-sol-artifact-1",
  "contractName": "IntentSource",
  "sourceName": "contracts/IntentSource.sol",
  "abi": [
    {
      "inputs": [
        {
          "internalType": "uint256",
          "name": "_minimumDuration",
          "type": "uint256"
        },
        {
          "internalType": "uint256",
          "name": "_counterStart",
          "type": "uint256"
        }
      ],
      "stateMutability": "nonpayable",
      "type": "constructor"
    },
    {
      "inputs": [],
      "name": "CalldataMismatch",
      "type": "error"
    },
    {
      "inputs": [],
      "name": "ExpiryTooSoon",
      "type": "error"
    },
    {
      "inputs": [
        {
          "internalType": "bytes32",
          "name": "_hash",
          "type": "bytes32"
        }
      ],
      "name": "NothingToWithdraw",
      "type": "error"
    },
    {
      "inputs": [],
      "name": "RewardsMismatch",
      "type": "error"
    },
    {
      "inputs": [
        {
          "internalType": "bytes32",
          "name": "_hash",
          "type": "bytes32"
        }
      ],
      "name": "UnauthorizedWithdrawal",
      "type": "error"
    },
    {
      "anonymous": false,
      "inputs": [
        {
          "indexed": true,
          "internalType": "bytes32",
          "name": "_hash",
          "type": "bytes32"
        },
        {
          "indexed": false,
          "internalType": "address",
          "name": "_creator",
          "type": "address"
        },
        {
          "indexed": true,
          "internalType": "uint256",
          "name": "_destinationChain",
          "type": "uint256"
        },
        {
          "indexed": false,
          "internalType": "address[]",
          "name": "_targets",
          "type": "address[]"
        },
        {
          "indexed": false,
          "internalType": "bytes[]",
          "name": "_data",
          "type": "bytes[]"
        },
        {
          "indexed": false,
          "internalType": "address[]",
          "name": "_rewardTokens",
          "type": "address[]"
        },
        {
          "indexed": false,
          "internalType": "uint256[]",
          "name": "_rewardAmounts",
          "type": "uint256[]"
        },
        {
          "indexed": true,
          "internalType": "uint256",
          "name": "_expiryTime",
          "type": "uint256"
        },
        {
          "indexed": false,
          "internalType": "bytes32",
          "name": "nonce",
          "type": "bytes32"
        },
        {
          "indexed": false,
          "internalType": "address",
          "name": "_prover",
          "type": "address"
        }
      ],
      "name": "IntentCreated",
      "type": "event"
    },
    {
      "anonymous": false,
      "inputs": [
        {
          "indexed": false,
          "internalType": "bytes32",
          "name": "_hash",
          "type": "bytes32"
        },
        {
          "indexed": true,
          "internalType": "address",
          "name": "_recipient",
          "type": "address"
        }
      ],
      "name": "Withdrawal",
      "type": "event"
    },
    {
      "inputs": [],
      "name": "CHAIN_ID",
      "outputs": [
        {
          "internalType": "uint256",
          "name": "",
          "type": "uint256"
        }
      ],
      "stateMutability": "view",
      "type": "function"
    },
    {
      "inputs": [],
      "name": "MINIMUM_DURATION",
      "outputs": [
        {
          "internalType": "uint256",
          "name": "",
          "type": "uint256"
        }
      ],
      "stateMutability": "view",
      "type": "function"
    },
    {
      "inputs": [],
      "name": "counter",
      "outputs": [
        {
          "internalType": "uint256",
          "name": "",
          "type": "uint256"
        }
      ],
      "stateMutability": "view",
      "type": "function"
    },
    {
      "inputs": [
        {
          "internalType": "uint256",
          "name": "_destinationChainID",
          "type": "uint256"
        },
        {
          "internalType": "address",
          "name": "_inbox",
          "type": "address"
        },
        {
          "internalType": "address[]",
          "name": "_targets",
          "type": "address[]"
        },
        {
          "internalType": "bytes[]",
          "name": "_data",
          "type": "bytes[]"
        },
        {
          "internalType": "address[]",
          "name": "_rewardTokens",
          "type": "address[]"
        },
        {
          "internalType": "uint256[]",
          "name": "_rewardAmounts",
          "type": "uint256[]"
        },
        {
          "internalType": "uint256",
          "name": "_expiryTime",
          "type": "uint256"
        },
        {
          "internalType": "address",
          "name": "_prover",
          "type": "address"
        }
      ],
      "name": "createIntent",
      "outputs": [],
      "stateMutability": "nonpayable",
      "type": "function"
    },
    {
      "inputs": [
        {
          "internalType": "bytes32",
          "name": "identifier",
          "type": "bytes32"
        }
      ],
      "name": "getIntent",
      "outputs": [
        {
          "components": [
            {
              "internalType": "address",
              "name": "creator",
              "type": "address"
            },
            {
              "internalType": "uint256",
              "name": "destinationChainID",
              "type": "uint256"
            },
            {
              "internalType": "address[]",
              "name": "targets",
              "type": "address[]"
            },
            {
              "internalType": "bytes[]",
              "name": "data",
              "type": "bytes[]"
            },
            {
              "internalType": "address[]",
              "name": "rewardTokens",
              "type": "address[]"
            },
            {
              "internalType": "uint256[]",
              "name": "rewardAmounts",
              "type": "uint256[]"
            },
            {
              "internalType": "uint256",
              "name": "expiryTime",
              "type": "uint256"
            },
            {
              "internalType": "bool",
              "name": "hasBeenWithdrawn",
              "type": "bool"
            },
            {
              "internalType": "bytes32",
              "name": "nonce",
              "type": "bytes32"
            },
            {
              "internalType": "address",
              "name": "prover",
              "type": "address"
            }
          ],
          "internalType": "struct Intent",
          "name": "",
          "type": "tuple"
        }
      ],
      "stateMutability": "view",
      "type": "function"
    },
    {
      "inputs": [
        {
          "internalType": "bytes32",
          "name": "intenthash",
          "type": "bytes32"
        }
      ],
      "name": "intents",
      "outputs": [
        {
          "internalType": "address",
          "name": "creator",
          "type": "address"
        },
        {
          "internalType": "uint256",
          "name": "destinationChainID",
          "type": "uint256"
        },
        {
          "internalType": "uint256",
          "name": "expiryTime",
          "type": "uint256"
        },
        {
          "internalType": "bool",
          "name": "hasBeenWithdrawn",
          "type": "bool"
        },
        {
          "internalType": "bytes32",
          "name": "nonce",
          "type": "bytes32"
        },
        {
          "internalType": "address",
          "name": "prover",
          "type": "address"
        }
      ],
      "stateMutability": "view",
      "type": "function"
    },
    {
      "inputs": [
        {
          "internalType": "bytes32",
          "name": "_hash",
          "type": "bytes32"
        }
      ],
      "name": "withdrawRewards",
      "outputs": [],
      "stateMutability": "nonpayable",
      "type": "function"
    }
  ],
  "bytecode": "0x60c034607b57601f6114e638819003918201601f19168301916001600160401b038311848410176080578084926040948552833981010312607b5760208151910151904660805260a05260005560405161144f908161009782396080518181816104530152610d6d015260a05181818161041c0152610fc10152f35b600080fd5b634e487b7160e01b600052604160045260246000fdfe608080604052600436101561001357600080fd5b60003560e01c9081632d28e89d14610fab5750806361bc221a14610f8d5780637dfb662614610d9057806385e1f4d014610d555780638cf304511461033b5780639021578a146102c25763f13c46aa1461006c57600080fd5b346102bd5760203660031901126102bd5760043560405161008c81611124565b60008152602081016000905260408101606090526060810160609052608081016060905260a081016060905260c081016000905260e081016000905261010081016000905261012001600090528060005260016020526040600020604051906100f482611124565b80546001600160a01b031682526001810154602083019081529261011a60028301611298565b604084019081529161012e600382016112ec565b606085019081529261014260048301611298565b60808601908152610155600584016113ce565b9060a0870191825260068401549560c08801968752600785015460ff169360e0890194151585526008860154956101008a01968752600160a01b60019003906009015416966101208a0197885280600052600160205260406000206002016101bc90611298565b825280600052600160205260406000206003016101d8906112ec565b835280600052600160205260406000206004016101f490611298565b84526000526001602052604060002060050161020f906113ce565b8452604051998a9960208b52600160a01b6001900390511660208b01525160408a015251606089016101409052610160890161024a91611028565b9051888203601f190160808a01526102629190611065565b9051878203601f190160a089015261027a9190611028565b9051868203601f190160c088015261029291906110f0565b935160e086015251151561010085015251610120840152516001600160a01b03166101408301520390f35b600080fd5b346102bd5760203660031901126102bd57600435600052600160205260c0604060002060018060a01b0381541690600181015490600681015460ff60078301541690600883015492600960018060a01b0391015416936040519586526020860152604085015215156060840152608083015260a0820152f35b346102bd576101003660031901126102bd576004356024356001600160a01b038116908190036102bd576044356001600160401b0381116102bd57610384903690600401610ff8565b9190926064356001600160401b0381116102bd576103a6903690600401610ff8565b9390916084356001600160401b0381116102bd576103c8903690600401610ff8565b92909460a4356001600160401b0381116102bd576103ea903690600401610ff8565b95909760e4359360018060a01b03851685036102bd5780158015610d4b575b610d3a5786158015610d30575b610d1f577f000000000000000000000000000000000000000000000000000000000000000042018042116109e65760c43510610d0e578a600054947f0000000000000000000000000000000000000000000000000000000000000000956040516020810191825287604082015260408152610492606082611140565b5190209560405184602082019260e083019084528b604084015260c060608401525261010081019360005b868110610ce6575050601f19818503016080820152858452602084018660051b946020868201019189916000601e198c3603015b8b8210610c7d575050505050906105248161056895949360c43560a08301528b60c083015203601f198101835282611140565b5190206040519060208201928352604082015260408152610546606082611140565b5190209c6040519361055785611124565b33855260208501998a5236916111be565b9360408301948552610579846111a7565b936105876040519586611140565b845260208401918101903682116102bd5780925b828410610c0b5750505050606081019182526105b836888b6111be565b60808201526105c6886111a7565b906105d46040519283611140565b88825260208201368a60051b8d01116102bd578b905b8a60051b8d018210610bfb57505060a0810191825260c081019260c435845260e082019460008652610100830196875261012083019760018060a01b031688528d600052600160205260406000209860018060a01b0360018060a01b03855116166bffffffffffffffffffffffff60a01b8b5416178a555160018a0155600289019051908151916001600160401b038311610a1057600160401b8311610a105760209061069c84845481865585611229565b0190600052602060002060005b838110610bde5750505050600388019051805190600160401b8211610a10578254828455808310610b60575b50602001916000526020600020916000905b828210610a4357505050506080015180519060048801906001600160401b038311610a1057600160401b8311610a105760209061072984845481865585611229565b0190600052602060002060005b838110610a265750505050600586019051908151916001600160401b038311610a1057600160401b8311610a105760209061077684845481865585611229565b0190600052602060002060005b8381106109fc5750509151600687015550505160078401805460ff191691151560ff1691909117905551600883015551600990910180546001600160a01b039092166001600160a01b0319909216919091179055600054600181019081106109e65760005560005b81811061093f578580600052600160205260406000206040519161080e83611124565b81546001600160a01b031683526001820154602084019081527f653c41cbe9402a28b206076ac6e316307a1ef8f76f247c1da9fdc2f50a405819906109059061085960028601611298565b946040870195865261012061092f60a06109218a61091361087c600388016112ec565b9760608301988952608061089260048a01611298565b93019283528d6108a460058a016113ce565b958691015260068801549d8e60c082015260ff60078a015416151560e082015260088901549889610100830152600960018060a01b03910154169788910152519b519751915191604051998a99338b5260e060208c015260e08b0190611028565b9089820360408b0152611065565b908782036060890152611028565b9085820360808701526110f0565b9160a084015260c08301520390a4005b61094a818386611288565b356001600160a01b03811691908290036102bd576020600092606461097084888b611288565b3560405195869384926323b872dd60e01b845233600485015230602485015260448401525af19182156109da576001926109ac575b50016107eb565b6109cc9060203d81116109d3575b6109c48183611140565b81019061118f565b50876109a5565b503d6109ba565b6040513d6000823e3d90fd5b634e487b7160e01b600052601160045260246000fd5b600190602084519401938184015501610783565b634e487b7160e01b600052604160045260246000fd5b82516001600160a01b031681830155602090920191600101610736565b80518051906001600160401b038211610a1057610a60865461124e565b601f8111610b23575b50602090601f8311600114610ab6579282600194936020938695600092610aab575b5050600019600383901b1c191690841b1787555b019401910190926106e7565b015190503880610a8b565b90601f1983169187600052816000209260005b818110610b0b5750936020936001969387969383889510610af2575b505050811b018755610a9f565b015160001960f88460031b161c19169055388080610ae5565b92936020600181928786015181550195019301610ac9565b610b5090876000526020600020601f850160051c81019160208610610b56575b601f0160051c0190611212565b38610a69565b9091508190610b43565b8360005282602060002091820191015b818110610b7d57506106d5565b80610b8a6001925461124e565b80610b97575b5001610b70565b601f81118314610bad5750600081555b38610b90565b610bcb908260005283601f6020600020920160051c82019101611212565b8060005260006020812081835555610ba7565b82516001600160a01b0316818301556020909201916001016106a9565b81358152602091820191016105ea565b83356001600160401b0381116102bd57820136601f820112156102bd578035916001600160401b038311610a1057604051610c50601f8501601f191660200182611140565b83815236602085850101116102bd576000602085819682809701838601378301015281520193019261059b565b9091929394601f198482030185528535828112156102bd578d0190602082359201916001600160401b0381116102bd5780360383136102bd576020828280600196849695859652848401376000828201840152601f01601f1916010197019501939201906104f1565b909460019060209081906001600160a01b03610d018a610fe4565b16815201960191016104bd565b631f1694d360e21b60005260046000fd5b633be1e8eb60e01b60005260046000fd5b5087871415610416565b6325e054fb60e01b60005260046000fd5b5081811415610409565b346102bd5760003660031901126102bd5760206040517f00000000000000000000000000000000000000000000000000000000000000008152f35b346102bd5760203660031901126102bd5760043580600052600160205260406000206024602060018060a01b0360098401541660405192838092634ce8a2d960e11b82528760048301525afa9081156109da57600091610f44575b50600782018054929160ff8416610f2f576001600160a01b03811615610ef957600190935b60ff191617905560048101805490600560009301925b828110610e66576040518681526001600160a01b038616907f6653a45d3871e4110fa55dac0269f9f93a6d9078d402f7153594e50573d7f0cd90602090a2005b806020610e7560009385611161565b905460039190911b1c6001600160a01b03166044610e938489611161565b905460405163a9059cbb60e01b81526001600160a01b038c16600482015260039290921b1c60248201529485928391905af19182156109da57600192610edb575b5001610e26565b610ef29060203d81116109d3576109c48183611140565b5087610ed4565b506006820154421115610f1a5781546001600160a01b031692600190610e10565b8363dac420a360e01b60005260045260246000fd5b84633f7f9c6560e11b60005260045260246000fd5b6020813d602011610f85575b81610f5d60209383611140565b81010312610f815751906001600160a01b0382168203610f7e575083610deb565b80fd5b5080fd5b3d9150610f50565b346102bd5760003660031901126102bd576020600054604051908152f35b346102bd5760003660031901126102bd576020907f00000000000000000000000000000000000000000000000000000000000000008152f35b35906001600160a01b03821682036102bd57565b9181601f840112156102bd578235916001600160401b0383116102bd576020808501948460051b0101116102bd57565b906020808351928381520192019060005b8181106110465750505090565b82516001600160a01b0316845260209384019390920191600101611039565b9080602083519283815201916020808260051b8401019401926000925b82841061109157505050505090565b9091929394601f19828203018352855180519081835260005b8281106110db57505060208083836000838096600198010152601f8019910116010197019301940192919390611082565b806020809284010151828287010152016110aa565b906020808351928381520192019060005b81811061110e5750505090565b8251845260209384019390920191600101611101565b61014081019081106001600160401b03821117610a1057604052565b90601f801991011681019081106001600160401b03821117610a1057604052565b80548210156111795760005260206000200190600090565b634e487b7160e01b600052603260045260246000fd5b908160209103126102bd575180151581036102bd5790565b6001600160401b038111610a105760051b60200190565b9291906111ca816111a7565b936111d86040519586611140565b602085838152019160051b81019283116102bd57905b8282106111fa57505050565b6020809161120784610fe4565b8152019101906111ee565b81811061121d575050565b60008155600101611212565b9181811061123657505050565b61124c9260005260206000209182019101611212565b565b90600182811c9216801561127e575b602083101461126857565b634e487b7160e01b600052602260045260246000fd5b91607f169161125d565b91908110156111795760051b0190565b906040519182815491828252602082019060005260206000209260005b8181106112ca57505061124c92500383611140565b84546001600160a01b03168352600194850194879450602090930192016112b5565b908154916112f9836111a7565b926113076040519485611140565b80845260208401916000526020600020916000905b8282106113295750505050565b604051600085546113398161124e565b80845290600181169081156113ab5750600114611373575b506001928261136585946020940382611140565b81520194019101909261131c565b6000878152602081209092505b81831061139557505081016020016001611351565b6001816020925483868801015201920191611380565b60ff191660208581019190915291151560051b8401909101915060019050611351565b906040519182815491828252602082019060005260206000209260005b81811061140057505061124c92500383611140565b84548352600194850194879450602090930192016113eb56fea2646970667358221220a0deb230feb196f59a6e5e758595745233238548c092207ec669ec973b1aed2064736f6c634300081a0033",
  "linkReferences": {},
  "deployedLinkReferences": {}
}