{
  "_format": "hh-sol-artifact-1",
  "contractName": "IntentSource",
  "sourceName": "contracts/IntentSource.sol",
  "abi": [
    {
      "inputs": [
        {
          "internalType": "address",
          "name": "_prover",
          "type": "address"
        },
        {
          "internalType": "uint256",
          "name": "_minimumDuration",
          "type": "uint256"
        },
        {
          "internalType": "uint256",
          "name": "_counterStart",
          "type": "uint256"
        }
      ],
      "stateMutability": "nonpayable",
      "type": "constructor"
    },
    {
      "inputs": [],
      "name": "CalldataMismatch",
      "type": "error"
    },
    {
      "inputs": [],
      "name": "ExpiryTooSoon",
      "type": "error"
    },
    {
      "inputs": [
        {
          "internalType": "bytes32",
          "name": "_hash",
          "type": "bytes32"
        }
      ],
      "name": "NothingToWithdraw",
      "type": "error"
    },
    {
      "inputs": [],
      "name": "RewardsMismatch",
      "type": "error"
    },
    {
      "inputs": [
        {
          "internalType": "bytes32",
          "name": "_hash",
          "type": "bytes32"
        }
      ],
      "name": "UnauthorizedWithdrawal",
      "type": "error"
    },
    {
      "anonymous": false,
      "inputs": [
        {
          "indexed": true,
          "internalType": "bytes32",
          "name": "_hash",
          "type": "bytes32"
        },
        {
          "indexed": false,
          "internalType": "address",
          "name": "_creator",
          "type": "address"
        },
        {
          "indexed": true,
          "internalType": "uint256",
          "name": "_destinationChain",
          "type": "uint256"
        },
        {
          "indexed": false,
          "internalType": "address[]",
          "name": "_targets",
          "type": "address[]"
        },
        {
          "indexed": false,
          "internalType": "bytes[]",
          "name": "_data",
          "type": "bytes[]"
        },
        {
          "indexed": false,
          "internalType": "address[]",
          "name": "_rewardTokens",
          "type": "address[]"
        },
        {
          "indexed": false,
          "internalType": "uint256[]",
          "name": "_rewardAmounts",
          "type": "uint256[]"
        },
        {
          "indexed": true,
          "internalType": "uint256",
          "name": "_expiryTime",
          "type": "uint256"
        },
        {
          "indexed": false,
          "internalType": "bytes32",
          "name": "nonce",
          "type": "bytes32"
        }
      ],
      "name": "IntentCreated",
      "type": "event"
    },
    {
      "anonymous": false,
      "inputs": [
        {
          "indexed": false,
          "internalType": "bytes32",
          "name": "_hash",
          "type": "bytes32"
        },
        {
          "indexed": true,
          "internalType": "address",
          "name": "_recipient",
          "type": "address"
        }
      ],
      "name": "Withdrawal",
      "type": "event"
    },
    {
      "inputs": [],
      "name": "CHAIN_ID",
      "outputs": [
        {
          "internalType": "uint256",
          "name": "",
          "type": "uint256"
        }
      ],
      "stateMutability": "view",
      "type": "function"
    },
    {
      "inputs": [],
      "name": "MINIMUM_DURATION",
      "outputs": [
        {
          "internalType": "uint256",
          "name": "",
          "type": "uint256"
        }
      ],
      "stateMutability": "view",
      "type": "function"
    },
    {
      "inputs": [],
      "name": "PROVER",
      "outputs": [
        {
          "internalType": "contract IProver",
          "name": "",
          "type": "address"
        }
      ],
      "stateMutability": "view",
      "type": "function"
    },
    {
      "inputs": [],
      "name": "counter",
      "outputs": [
        {
          "internalType": "uint256",
          "name": "",
          "type": "uint256"
        }
      ],
      "stateMutability": "view",
      "type": "function"
    },
    {
      "inputs": [
        {
          "internalType": "uint256",
          "name": "_destinationChain",
          "type": "uint256"
        },
        {
          "internalType": "address[]",
          "name": "_targets",
          "type": "address[]"
        },
        {
          "internalType": "bytes[]",
          "name": "_data",
          "type": "bytes[]"
        },
        {
          "internalType": "address[]",
          "name": "_rewardTokens",
          "type": "address[]"
        },
        {
          "internalType": "uint256[]",
          "name": "_rewardAmounts",
          "type": "uint256[]"
        },
        {
          "internalType": "uint256",
          "name": "_expiryTime",
          "type": "uint256"
        }
      ],
      "name": "createIntent",
      "outputs": [],
      "stateMutability": "nonpayable",
      "type": "function"
    },
    {
      "inputs": [
        {
          "internalType": "bytes32",
          "name": "identifier",
          "type": "bytes32"
        }
      ],
      "name": "getIntent",
      "outputs": [
        {
          "components": [
            {
              "internalType": "address",
              "name": "creator",
              "type": "address"
            },
            {
              "internalType": "uint256",
              "name": "destinationChain",
              "type": "uint256"
            },
            {
              "internalType": "address[]",
              "name": "targets",
              "type": "address[]"
            },
            {
              "internalType": "bytes[]",
              "name": "data",
              "type": "bytes[]"
            },
            {
              "internalType": "address[]",
              "name": "rewardTokens",
              "type": "address[]"
            },
            {
              "internalType": "uint256[]",
              "name": "rewardAmounts",
              "type": "uint256[]"
            },
            {
              "internalType": "uint256",
              "name": "expiryTime",
              "type": "uint256"
            },
            {
              "internalType": "bool",
              "name": "hasBeenWithdrawn",
              "type": "bool"
            },
            {
              "internalType": "bytes32",
              "name": "nonce",
              "type": "bytes32"
            }
          ],
          "internalType": "struct Intent",
          "name": "",
          "type": "tuple"
        }
      ],
      "stateMutability": "view",
      "type": "function"
    },
    {
      "inputs": [
        {
          "internalType": "bytes32",
          "name": "intenthash",
          "type": "bytes32"
        }
      ],
      "name": "intents",
      "outputs": [
        {
          "internalType": "address",
          "name": "creator",
          "type": "address"
        },
        {
          "internalType": "uint256",
          "name": "destinationChain",
          "type": "uint256"
        },
        {
          "internalType": "uint256",
          "name": "expiryTime",
          "type": "uint256"
        },
        {
          "internalType": "bool",
          "name": "hasBeenWithdrawn",
          "type": "bool"
        },
        {
          "internalType": "bytes32",
          "name": "nonce",
          "type": "bytes32"
        }
      ],
      "stateMutability": "view",
      "type": "function"
    },
    {
      "inputs": [
        {
          "internalType": "bytes32",
          "name": "_hash",
          "type": "bytes32"
        }
      ],
      "name": "withdrawRewards",
      "outputs": [],
      "stateMutability": "nonpayable",
      "type": "function"
    }
  ],
  "bytecode": "0x60e0346100aa57601f61149038819003918201601f19168301916001600160401b038311848410176100af578084926060946040528339810103126100aa5780516001600160a01b03811691908290036100aa5760406020820151910151914660805260a05260c0526000556040516113ca90816100c682396080518181816103d70152610cbc015260a0518181816102b00152610f33015260c05181818161039a0152610d310152f35b600080fd5b634e487b7160e01b600052604160045260246000fdfe608080604052600436101561001357600080fd5b60003560e01c9081632d28e89d14610d1b5750806361bc221a14610cfd5780637dfb662614610cdf57806385e1f4d014610ca45780639021578a14610c40578063db3628cf146102df578063df92f8561461029a5763f13c46aa1461007757600080fd5b346102955760203660031901126102955760043560405161009781610e80565b60008152602081016000905260408101606090526060810160609052608081016060905260a081016060905260c081016000905260e081016000905261010001600090528060005260016020526040600020604051906100f682610e80565b80546001600160a01b031682526001810154602083019081529261011c60028301611213565b604084019081529161013060038201611267565b6060850190815261014360048301611213565b6080860190815261015660058401611349565b9160a0870192835260068401549560c08801968752600785015460ff169460e0890195151586526008015495610100890196875280600052600160205260406000206002016101a490611213565b825280600052600160205260406000206003016101c090611267565b835280600052600160205260406000206004016101dc90611213565b8452600052600160205260406000206005016101f790611349565b845260405198899860208a52600160a01b6001900390511660208a015251604089015251606088016101209052610140880161023291610d84565b9051878203601f1901608089015261024a9190610dc1565b9051868203601f190160a08801526102629190610d84565b9051858203601f190160c087015261027a9190610e4c565b925160e0850152511515610100840152516101208301520390f35b600080fd5b34610295576000366003190112610295576040517f00000000000000000000000000000000000000000000000000000000000000006001600160a01b03168152602090f35b346102955760c0366003190112610295576004356024356001600160401b03811161029557610312903690600401610d54565b90916044356001600160401b03811161029557610333903690600401610d54565b9190926064356001600160401b03811161029557610355903690600401610d54565b9190936084356001600160401b03811161029557610377903690600401610d54565b94909660a4359084158015610c36575b610c255785158015610c1b575b610c0a577f000000000000000000000000000000000000000000000000000000000000000042018042116108d1578210610bf957600054604051602081019182527f000000000000000000000000000000000000000000000000000000000000000060408201526040815261040a606082610e9c565b51902093604051602081018760c0830187835260a060408501525260e08201918d60005b8a8110610bd1575050601f19818403016060820152838352602083018460051b936020858201019187916000601e198a3603015b898210610b6857505050505090610492816104b494938960808301528b60a083015203601f198101835282610e9c565b5190209c604051986104a38a610e80565b338a5260208a019788523691611139565b92604088019384526104c583611122565b926104d36040519485610e9c565b835260208301918101903682116102955780925b828410610af657505050506060860190815261050436888b611139565b906080870191825261051589611122565b926105236040519485610e9c565b898452602084018a60051b8d0190368211610295578d905b828210610ae65750505060a0880193845260c08801948552600060e089018181526101008a019889528e825260016020819052604090922099518a546001600160a01b0319166001600160a01b0391909116178a559651908901555180519060028901906001600160401b0383116108fb57600160401b83116108fb576020906105ca848454818655856111a4565b0190600052602060002060005b838110610ac95750505050600387019051805190600160401b82116108fb578254828455808310610a4b575b50602001916000526020600020916000905b82821061092e5750505050600486019051908151916001600160401b0383116108fb57600160401b83116108fb57602090610655848454818655856111a4565b0190600052602060002060005b8381106109115750505050600585019051908151916001600160401b0383116108fb57600160401b83116108fb576020906106a2848454818655856111a4565b0190600052602060002060005b8381106108e757505050509060089291516006850155600784019051151560ff8019835416911617905551910155600054600181018091116108d15760005560005b81811061082a57858060005260016020526040600020906040519061071582610e80565b82546001600160a01b031682526001830154602083019081527f4d57d71884135619aa0097f5e665cc0257fcf37b35433f4b554f57a182e77416906107f59061010061081f8761081161076a60028301611213565b9860408101998a5261080361078160038501611267565b966060830197885261079560048601611213565b9260808101938452600860066107ad60058901611349565b978860a085015201549e8f60c084015260ff600782015416151560e084015201549788910152519a519651915191604051988998338a5260c060208b015260c08a0190610d84565b9088820360408a0152610dc1565b908682036060880152610d84565b908482036080860152610e4c565b9060a08301520390a4005b610835818386611203565b356001600160a01b0381169190829003610295576020600092606461085b84888b611203565b3560405195869384926323b872dd60e01b845233600485015230602485015260448401525af19182156108c557600192610897575b50016106f1565b6108b79060203d81116108be575b6108af8183610e9c565b810190610eeb565b5087610890565b503d6108a5565b6040513d6000823e3d90fd5b634e487b7160e01b600052601160045260246000fd5b6001906020845194019381840155016106af565b634e487b7160e01b600052604160045260246000fd5b82516001600160a01b031681830155602090920191600101610662565b80518051906001600160401b0382116108fb5761094b86546111c9565b601f8111610a0e575b50602090601f83116001146109a1579282600194936020938695600092610996575b5050600019600383901b1c191690841b1787555b01940191019092610615565b015190503880610976565b90601f1983169187600052816000209260005b8181106109f657509360209360019693879693838895106109dd575b505050811b01875561098a565b015160001960f88460031b161c191690553880806109d0565b929360206001819287860151815501950193016109b4565b610a3b90876000526020600020601f850160051c81019160208610610a41575b601f0160051c019061118d565b38610954565b9091508190610a2e565b8360005282602060002091820191015b818110610a685750610603565b80610a75600192546111c9565b80610a82575b5001610a5b565b601f81118314610a985750600081555b38610a7b565b610ab6908260005283601f6020600020920160051c8201910161118d565b8060005260006020812081835555610a92565b82516001600160a01b0316818301556020909201916001016105d7565b813581526020918201910161053b565b83356001600160401b03811161029557820136601f82011215610295578035916001600160401b0383116108fb57604051610b3b601f8501601f191660200182610e9c565b838152366020858501011161029557600060208581968280970183860137830101528152019301926104e7565b9091929394601f19848203018552853582811215610295578b0190602082359201916001600160401b038111610295578036038313610295576020828280600196849695859652848401376000828201840152601f01601f191601019701950193920190610462565b909360019060209081906001600160a01b03610bec8961110e565b168152019501910161042e565b631f1694d360e21b60005260046000fd5b633be1e8eb60e01b60005260046000fd5b5086861415610394565b6325e054fb60e01b60005260046000fd5b5083851415610387565b3461029557602036600319011261029557600435600052600160205260a06040600020600180831b03815416906001810154906006810154600860ff6007840154169201549260405194855260208501526040840152151560608301526080820152f35b346102955760003660031901126102955760206040517f00000000000000000000000000000000000000000000000000000000000000008152f35b3461029557602036600319011261029557610cfb600435610f03565b005b34610295576000366003190112610295576020600054604051908152f35b34610295576000366003190112610295576020907f00000000000000000000000000000000000000000000000000000000000000008152f35b9181601f84011215610295578235916001600160401b038311610295576020808501948460051b01011161029557565b906020808351928381520192019060005b818110610da25750505090565b82516001600160a01b0316845260209384019390920191600101610d95565b9080602083519283815201916020808260051b8401019401926000925b828410610ded57505050505090565b9091929394601f19828203018352855180519081835260005b828110610e3757505060208083836000838096600198010152601f8019910116010197019301940192919390610dde565b80602080928401015182828701015201610e06565b906020808351928381520192019060005b818110610e6a5750505090565b8251845260209384019390920191600101610e5d565b61012081019081106001600160401b038211176108fb57604052565b90601f801991011681019081106001600160401b038211176108fb57604052565b8054821015610ed55760005260206000200190600090565b634e487b7160e01b600052603260045260246000fd5b90816020910312610295575180151581036102955790565b8060005260016020526040600020604051634ce8a2d960e11b815282600482015260208160248160018060a01b037f0000000000000000000000000000000000000000000000000000000000000000165afa9081156108c5576000916110c5575b5090600781019160ff83541615610f8a5783633f7f9c6560e11b60005260045260246000fd5b60018060a01b0316338114908115611090575b50610fb7578263dac420a360e01b60005260045260246000fd5b600481018054916005019060005b8381106110095750505050600160ff198254161790556040519081527f6653a45d3871e4110fa55dac0269f9f93a6d9078d402f7153594e50573d7f0cd60203392a2565b80602061101860009385610ebd565b905460039190911b1c6001600160a01b031660446110368488610ebd565b90549060031b1c604051958693849263a9059cbb60e01b845233600485015260248401525af19182156108c557600192611072575b5001610fc5565b6110899060203d81116108be576108af8183610e9c565b503861106b565b905015806110b2575b806110a5575b38610f9d565b506006810154421161109f565b5080546001600160a01b03163314611099565b6020813d602011611106575b816110de60209383610e9c565b810103126111025751906001600160a01b03821682036110ff575038610f64565b80fd5b5080fd5b3d91506110d1565b35906001600160a01b038216820361029557565b6001600160401b0381116108fb5760051b60200190565b92919061114581611122565b936111536040519586610e9c565b602085838152019160051b810192831161029557905b82821061117557505050565b602080916111828461110e565b815201910190611169565b818110611198575050565b6000815560010161118d565b918181106111b157505050565b6111c7926000526020600020918201910161118d565b565b90600182811c921680156111f9575b60208310146111e357565b634e487b7160e01b600052602260045260246000fd5b91607f16916111d8565b9190811015610ed55760051b0190565b906040519182815491828252602082019060005260206000209260005b8181106112455750506111c792500383610e9c565b84546001600160a01b0316835260019485019487945060209093019201611230565b9081549161127483611122565b926112826040519485610e9c565b80845260208401916000526020600020916000905b8282106112a45750505050565b604051600085546112b4816111c9565b808452906001811690811561132657506001146112ee575b50600192826112e085946020940382610e9c565b815201940191019092611297565b6000878152602081209092505b818310611310575050810160200160016112cc565b60018160209254838688010152019201916112fb565b60ff191660208581019190915291151560051b84019091019150600190506112cc565b906040519182815491828252602082019060005260206000209260005b81811061137b5750506111c792500383610e9c565b845483526001948501948794506020909301920161136656fea26469706673582212209a407c92f1c229393551596f721e5d4fccde5d0a8a97757fa0bff7db8af6bfe064736f6c634300081a0033",
  "linkReferences": {},
  "deployedLinkReferences": {}
}