{
  "_format": "hh-sol-artifact-1",
  "contractName": "Prover",
  "sourceName": "contracts/Prover.sol",
  "abi": [
    {
      "inputs": [
        {
          "internalType": "address",
          "name": "_l1BlockhashOracle",
          "type": "address"
        },
        {
          "internalType": "address",
          "name": "_l1OutputOracleAddress",
          "type": "address"
        }
      ],
      "stateMutability": "nonpayable",
      "type": "constructor"
    },
    {
      "inputs": [],
      "name": "L2_OUTPUT_ROOT_VERSION_NUMBER",
      "outputs": [
        {
          "internalType": "uint256",
          "name": "",
          "type": "uint256"
        }
      ],
      "stateMutability": "view",
      "type": "function"
    },
    {
      "inputs": [],
      "name": "L2_OUTPUT_SLOT_NUMBER",
      "outputs": [
        {
          "internalType": "uint256",
          "name": "",
          "type": "uint256"
        }
      ],
      "stateMutability": "view",
      "type": "function"
    },
    {
      "inputs": [],
      "name": "NONCE_PACKING",
      "outputs": [
        {
          "internalType": "uint16",
          "name": "",
          "type": "uint16"
        }
      ],
      "stateMutability": "view",
      "type": "function"
    },
    {
      "inputs": [
        {
          "internalType": "uint256",
          "name": "version",
          "type": "uint256"
        },
        {
          "internalType": "bytes32",
          "name": "worldStateRoot",
          "type": "bytes32"
        },
        {
          "internalType": "bytes32",
          "name": "messagePasserStateRoot",
          "type": "bytes32"
        },
        {
          "internalType": "bytes32",
          "name": "latestBlockHash",
          "type": "bytes32"
        }
      ],
      "name": "generateOutputRoot",
      "outputs": [
        {
          "internalType": "bytes32",
          "name": "",
          "type": "bytes32"
        }
      ],
      "stateMutability": "pure",
      "type": "function"
    },
    {
      "inputs": [],
      "name": "l1BlockhashOracle",
      "outputs": [
        {
          "internalType": "contract IL1Block",
          "name": "",
          "type": "address"
        }
      ],
      "stateMutability": "view",
      "type": "function"
    },
    {
      "inputs": [],
      "name": "l1OutputOracleAddress",
      "outputs": [
        {
          "internalType": "address",
          "name": "",
          "type": "address"
        }
      ],
      "stateMutability": "view",
      "type": "function"
    },
    {
      "inputs": [
        {
          "internalType": "bytes",
          "name": "_address",
          "type": "bytes"
        },
        {
          "internalType": "bytes",
          "name": "_data",
          "type": "bytes"
        },
        {
          "internalType": "bytes[]",
          "name": "_proof",
          "type": "bytes[]"
        },
        {
          "internalType": "bytes32",
          "name": "_root",
          "type": "bytes32"
        }
      ],
      "name": "proveAccount",
      "outputs": [],
      "stateMutability": "pure",
      "type": "function"
    },
    {
      "inputs": [
        {
          "internalType": "address",
          "name": "claimant",
          "type": "address"
        },
        {
          "internalType": "address",
          "name": "inboxContract",
          "type": "address"
        },
        {
          "internalType": "bytes32",
          "name": "intentHash",
          "type": "bytes32"
        },
        {
          "internalType": "uint256",
          "name": "intentOutputIndex",
          "type": "uint256"
        },
        {
          "internalType": "bytes[]",
          "name": "l2StorageProof",
          "type": "bytes[]"
        },
        {
          "internalType": "bytes",
          "name": "rlpEncodedInboxData",
          "type": "bytes"
        },
        {
          "internalType": "bytes[]",
          "name": "l2AccountProof",
          "type": "bytes[]"
        },
        {
          "internalType": "bytes32",
          "name": "l2WorldStateRoot",
          "type": "bytes32"
        }
      ],
      "name": "proveIntent",
      "outputs": [],
      "stateMutability": "nonpayable",
      "type": "function"
    },
    {
      "inputs": [
        {
          "internalType": "bytes",
          "name": "rlpEncodedL1BlockData",
          "type": "bytes"
        }
      ],
      "name": "proveL1WorldState",
      "outputs": [],
      "stateMutability": "nonpayable",
      "type": "function"
    },
    {
      "inputs": [
        {
          "internalType": "bytes32",
          "name": "l2WorldStateRoot",
          "type": "bytes32"
        },
        {
          "internalType": "bytes32",
          "name": "l2MessagePasserStateRoot",
          "type": "bytes32"
        },
        {
          "internalType": "bytes32",
          "name": "l2LatestBlockHash",
          "type": "bytes32"
        },
        {
          "internalType": "uint256",
          "name": "l2OutputIndex",
          "type": "uint256"
        },
        {
          "internalType": "bytes[]",
          "name": "l1StorageProof",
          "type": "bytes[]"
        },
        {
          "internalType": "bytes",
          "name": "rlpEncodedOutputOracleData",
          "type": "bytes"
        },
        {
          "internalType": "bytes[]",
          "name": "l1AccountProof",
          "type": "bytes[]"
        },
        {
          "internalType": "bytes32",
          "name": "l1WorldStateRoot",
          "type": "bytes32"
        }
      ],
      "name": "proveOutputRoot",
      "outputs": [],
      "stateMutability": "nonpayable",
      "type": "function"
    },
    {
      "inputs": [
        {
          "internalType": "bytes",
          "name": "_key",
          "type": "bytes"
        },
        {
          "internalType": "bytes",
          "name": "_val",
          "type": "bytes"
        },
        {
          "internalType": "bytes[]",
          "name": "_proof",
          "type": "bytes[]"
        },
        {
          "internalType": "bytes32",
          "name": "_root",
          "type": "bytes32"
        }
      ],
      "name": "proveStorage",
      "outputs": [],
      "stateMutability": "pure",
      "type": "function"
    },
    {
      "inputs": [
        {
          "internalType": "bytes32",
          "name": "",
          "type": "bytes32"
        }
      ],
      "name": "provenIntents",
      "outputs": [
        {
          "internalType": "address",
          "name": "",
          "type": "address"
        }
      ],
      "stateMutability": "view",
      "type": "function"
    },
    {
      "inputs": [
        {
          "internalType": "bytes32",
          "name": "",
          "type": "bytes32"
        }
      ],
      "name": "provenL1States",
      "outputs": [
        {
          "internalType": "uint256",
          "name": "",
          "type": "uint256"
        }
      ],
      "stateMutability": "view",
      "type": "function"
    },
    {
      "inputs": [
        {
          "internalType": "bytes32",
          "name": "",
          "type": "bytes32"
        }
      ],
      "name": "provenL2States",
      "outputs": [
        {
          "internalType": "uint256",
          "name": "",
          "type": "uint256"
        }
      ],
      "stateMutability": "view",
      "type": "function"
    },
    {
      "inputs": [
        {
          "internalType": "bytes[]",
          "name": "dataList",
          "type": "bytes[]"
        }
      ],
      "name": "rlpEncodeDataLibList",
      "outputs": [
        {
          "internalType": "bytes",
          "name": "",
          "type": "bytes"
        }
      ],
      "stateMutability": "pure",
      "type": "function"
    }
  ],
  "bytecode": "0x60c034608b57601f612bad38819003918201601f19168301916001600160401b038311848410176090578084926040948552833981010312608b57604b602060458360a6565b920160a6565b6001600160a01b0390911660a052608052604051612af390816100ba82396080518181816103b20152610f7e015260a0518181816106fd01526108cf0152f35b600080fd5b634e487b7160e01b600052604160045260246000fd5b51906001600160a01b0382168203608b5756fe6080604052600436101561001257600080fd5b60003560e01c806346538ad7146101075780634d22c9c71461010257806376937ae6146100fd578063848e9abb146100f8578063867b5dd7146100f35780638bf5e814146100ee578063914c73b6146100e957806399d145b2146100e4578063a1ff4357146100df578063b9d8ac26146100da578063e09918e6146100d5578063ed3e89c1146100d0578063f14035b7146100cb578063f6771603146100c65763ff873c4b146100c157600080fd5b6108fe565b6108b9565b61082a565b6106b2565b610617565b61049a565b610431565b6103fd565b6103e1565b61039c565b610380565b610364565b610164565b610138565b346101335760203660031901126101335760043560005260016020526020604060002054604051908152f35b600080fd5b346101335760203660031901126101335760043560005260006020526020604060002054604051908152f35b3461013357600036600319011261013357602060405160018152f35b634e487b7160e01b600052604160045260246000fd5b604081019081106001600160401b038211176101b157604052565b610180565b90601f801991011681019081106001600160401b038211176101b157604052565b604051906101e66040836101b6565b565b6001600160401b0381116101b157601f01601f191660200190565b92919261020f826101e8565b9161021d60405193846101b6565b829481845281830111610133578281602093846000960137010152565b9080601f830112156101335781602061025593359101610203565b90565b6001600160401b0381116101b15760051b60200190565b92919061027b81610258565b9361028960405195866101b6565b602085838152019160051b8101918383116101335781905b8382106102af575050505050565b81356001600160401b038111610133576020916102cf878493870161023a565b8152019101906102a1565b9080601f83011215610133578160206102559335910161026f565b6080600319820112610133576004356001600160401b038111610133578161031f9160040161023a565b916024356001600160401b038111610133578261033e9160040161023a565b91604435906001600160401b0382116101335761035d916004016102da565b9060643590565b346101335761037e610375366102f5565b92919091610951565b005b3461013357600036600319011261013357602060405160008152f35b34610133576000366003190112610133576040517f00000000000000000000000000000000000000000000000000000000000000006001600160a01b03168152602090f35b3461013357600036600319011261013357602060405160038152f35b34610133576020366003190112610133576004356000526002602052602060018060a01b0360406000205416604051908152f35b346101335761037e610442366102f5565b929190916109c8565b60005b83811061045e5750506000910152565b818101518382015260200161044e565b6040916020825261048e815180928160208601526020868601910161044b565b601f01601f1916010190565b34610133576020366003190112610133576004356001600160401b038111610133576104ca9036906004016102da565b60005b8151811015610572576104e08183610a7d565b51908151916001831480610553575b6001935015610515575b6105038285610a7d565b5261050e8184610a7d565b50016104cd565b61054e8161054061052961053a9451611500565b916040519485936020850190610e1d565b90610e1d565b03601f1981018352826101b6565b6104f9565b50911561056d578160806020600194015160f81c106104ef565b610a26565b61058a61057e83611020565b6040519182918261046e565b0390f35b600435906001600160a01b038216820361013357565b602435906001600160a01b038216820361013357565b9181601f84011215610133578235916001600160401b038311610133576020808501948460051b01011161013357565b9181601f84011215610133578235916001600160401b038311610133576020838186019501011161013357565b34610133576101003660031901126101335761063161058e565b6106396105a4565b90604435606435926084356001600160401b038111610133576106609036906004016105ba565b9060a4356001600160401b038111610133576106809036906004016105ea565b92909160c435976001600160401b038911610133576106a661037e9936906004016105ba565b97909660e43599610b8a565b34610133576020366003190112610133576004356001600160401b038111610133576106e29036906004016105ea565b6106ed368284610203565b6020815191012060018060a01b037f0000000000000000000000000000000000000000000000000000000000000000169260405192624dead360e51b8452602084600481885afa9384156107f65761077161076c6107819461077c94610765600499602099610776976000926107fb575b5014610cf5565b3691610203565b611176565b610a3c565b5161130f565b610b67565b92604051928380926341c0fac560e11b82525afa9081156107f6576107c4916001600160401b03916000916107c7575b5016916000526000602052604060002090565b55005b6107e9915060203d6020116107ef575b6107e181836101b6565b810190610d41565b386107b1565b503d6107d7565b610ce9565b61081c9192508b3d8d11610823575b61081481836101b6565b810190610cda565b903861075e565b503d61080a565b3461013357610100366003190112610133576064356004356044356024356084356001600160401b038111610133576108679036906004016105ba565b9060a4356001600160401b038111610133576108879036906004016105ea565b92909160c435976001600160401b038911610133576108ad61037e9936906004016105ba565b97909660e43599610e6d565b34610133576000366003190112610133576040517f00000000000000000000000000000000000000000000000000000000000000006001600160a01b03168152602090f35b3461013357608036600319011261013357602060043560243560443560643590604051928584019485526040840152606083015260808201526080815261094660a0826101b6565b519020604051908152f35b92610968919261096361097c956113b5565b6123ab565b906020815191012090602081519101201490565b1561098357565b60405162461bcd60e51b815260206004820152601760248201527f6661696c656420746f2070726f76652073746f726167650000000000000000006044820152606490fd5b9261096891926109636109da956113b5565b156109e157565b60405162461bcd60e51b815260206004820152601760248201527f6661696c656420746f2070726f7665206163636f756e740000000000000000006044820152606490fd5b634e487b7160e01b600052603260045260246000fd5b80516003101561056d5760800190565b80516002101561056d5760600190565b80516001101561056d5760400190565b80516010101561056d576102200190565b805182101561056d5760209160051b010190565b15610a9857565b60405162461bcd60e51b815260206004820152601c60248201527f6c3220737461746520726f6f74206e6f74207965742070726f76656e000000006044820152606490fd5b15610ae457565b60405162461bcd60e51b815260206004820152602760248201527f636f6e747261637420737461746520726f6f7420696e636f72726563746c7920604482015266195b98dbd9195960ca1b6064820152608490fd5b604051602560fa1b60208201526001600160601b0319909116602182015260158152906101e66035836101b6565b602081519101519060208110610b7b575090565b6000199060200360031b1b1690565b98928688610765610cbb9b94610c776101e69f9a8f899e610c71610cab9f9d8f610c439f610c4395610ca59f610c21610c9d9f610c1c61076c610c6396610c5195610bf061077695610be9610c699c6000526001602052604060002090565b5411610a91565b6040805160208101928352600091810191909152610c118160608101610540565b5190209b3691610203565b610a4c565b96610c30602089511115610add565b6040519889916020830160209181520190565b03601f1981018952886101b6565b60601b6001600160601b031916610b39565b93610b67565b94369161026f565b91610951565b604051988991602083016014916bffffffffffffffffffffffff199060601b1681520190565b92369161026f565b916109c8565b6000526002602052604060002090565b80546001600160a01b0319166001600160a01b03909216919091179055565b90816020910312610133575190565b6040513d6000823e3d90fd5b15610cfc57565b60405162461bcd60e51b815260206004820152601e60248201527f6861736820646f6573206e6f74206d6174636820626c6f636b206461746100006044820152606490fd5b9081602091031261013357516001600160401b03811681036101335790565b15610d6757565b60405162461bcd60e51b815260206004820152601c60248201527f6c3120737461746520726f6f74206e6f74207965742070726f766564000000006044820152606490fd5b634e487b7160e01b600052601160045260246000fd5b908160011b9180830460021490151715610dd857565b610dac565b908160081b918083046101001490151715610dd857565b9060018201809211610dd857565b6001019081600111610dd857565b91908201809211610dd857565b90610e306020928281519485920161044b565b0190565b906101e660216040518094600560fd1b6020830152610e5c815180926020868601910161044b565b81010301601f1981018452836101b6565b979195610f798896610f53610fbd9a610c71889f9b99610fcd9f9a8f6105408f610ca59d610f61610f31610776610c9d9f8f61076c90610f2961054061077c610f15610ee7610c699f610c639f98610c1c99610f749f610eda610ee2916000526000602052604060002090565b541515610d60565b610fd0565b9a610f0f6040516020810190610f068161054084906003602083019252565b51902091610dc2565b90610e10565b604051928391602083019190602083019252565b9d3691610203565b98610f4060208b511115610add565b6040519a8b916020830160209181520190565b03601f1981018b528a6101b6565b6040519283916020830160209181520190565b610e34565b6040517f000000000000000000000000000000000000000000000000000000000000000060601b6001600160601b0319166020820152956107658760348101610c43565b6000526001602052604060002090565b55565b916040519160208301936000855260408401526060830152608082015260808152610ffc60a0826101b6565b51902090565b80511561056d5760200190565b90815181101561056d570160200190565b611029906115c9565b805160388110156110ad576102559061106161105160c060ff61104a611403565b9416611485565b60f81b6001600160f81b03191690565b60001a61106d82611002565b535b60206040519382611089869451809285808801910161044b565b830161109d8251809385808501910161044b565b010103601f1981018352826101b6565b9160019160005b6110be84866113d4565b156110db576110cf6110d5916113f4565b93610ddd565b926110b4565b9092509290926110f26110ed82610df4565b611441565b9161110c61105161110760c060ff8616611485565b611473565b60001a61111884611002565b5360015b82811115611130575050506102559061106f565b8061115e61105161115861115861115261114d611171978a6114e4565b6114f1565b876113d4565b60ff1690565b60001a61116b828761100f565b536113f4565b61111c565b9061117f61165c565b5061118c82511515611675565b8151916040519261119c84610196565b83526020808401910181526111d06111de6111d660016111bb87611d23565b6111ca81979397949294611286565b146116fa565b83610e10565b85511461176c565b6111e66117d3565b926000915b85518082101561127b5790610f0f61127061122c61120c84611276966114e4565b611217858a51610e10565b61121f6101d7565b9182526020820152611d23565b5091909661123a8884610e10565b611245868b51610e10565b61124d6101d7565b918252602082015261125f828c610a7d565b5261126a818b610a7d565b50610df4565b95610e10565b6111eb565b505093509050815290565b6002111561129057565b634e487b7160e01b600052602160045260246000fd5b156112ad57565b60405162461bcd60e51b815260206004820152603460248201527f524c505265616465723a2062797465732076616c756520636f6e7461696e732060448201527330b71034b73b30b634b2103932b6b0b4b73232b960611b6064820152608490fd5b61131881611d23565b60028193929310156112905761134a57602083611343610255955161133d8686610e10565b146112a6565b0151611ef5565b60405162461bcd60e51b815260206004820152603960248201527f524c505265616465723a206465636f646564206974656d207479706520666f7260448201527f206279746573206973206e6f7420612064617461206974656d000000000000006064820152608490fd5b60208151910120604051906020820152602081526102556040826101b6565b81156113de570490565b634e487b7160e01b600052601260045260246000fd5b6000198114610dd85760010190565b6040805190919061141483826101b6565b6001815291601f1901366020840137565b604051906114346020836101b6565b6000808352366020840137565b9061144b826101e8565b61145860405191826101b6565b8281528092611469601f19916101e8565b0190602036910137565b60ff60379116019060ff8211610dd857565b9060ff8091169116019060ff8211610dd857565b60f619810191908211610dd857565b60bf19810191908211610dd857565b60b619810191908211610dd857565b607f19810191908211610dd857565b600019810191908211610dd857565b91908203918211610dd857565b601f8111610dd8576101000a90565b90603882101561153257611523611051608060ff61151c611403565b9516611485565b60001a61152f83611002565b53565b60019160005b61154284836113d4565b15611559576110cf611553916113f4565b92611538565b9092506115686110ed82610df4565b9261157d611051611107608060ff8616611485565b60001a61158985611002565b5360015b8281111561159a57505050565b806115b761105161115861115861115261114d6115c4978a6114e4565b60001a61116b828861100f565b61158d565b90815115611652576000805b83518210156115fe576115f66001916115ee8487610a7d565b515190610e10565b9101906115d5565b6116089150611441565b60009290602081015b825185101561164c5761164460019161163a61162d8887610a7d565b5160208151910183612753565b6115ee8786610a7d565b940193611611565b50925050565b9050610255611425565b6040519061166982610196565b60006020838281520152565b1561167c57565b60405162461bcd60e51b815260206004820152604a60248201527f524c505265616465723a206c656e677468206f6620616e20524c50206974656d60448201527f206d7573742062652067726561746572207468616e207a65726f20746f206265606482015269206465636f6461626c6560b01b608482015260a490fd5b1561170157565b60405162461bcd60e51b815260206004820152603860248201527f524c505265616465723a206465636f646564206974656d207479706520666f7260448201527f206c697374206973206e6f742061206c697374206974656d00000000000000006064820152608490fd5b1561177357565b60405162461bcd60e51b815260206004820152603260248201527f524c505265616465723a206c697374206974656d2068617320616e20696e76616044820152713634b2103230ba30903932b6b0b4b73232b960711b6064820152608490fd5b60405161042091906117e583826101b6565b6020815291601f19018260005b8281106117fe57505050565b60209061180961165c565b828285010152016117f2565b1561181c57565b60405162461bcd60e51b815260206004820152604d6024820152600080516020612a9e83398151915260448201527f74206265203e207468616e206c656e677468206f66206c697374206c656e677460648201526c6820286c6f6e67206c6973742960981b608482015260a490fd5b1561189257565b60405162461bcd60e51b81526020600482015260486024820152600080516020612a9e83398151915260448201527f74206e6f74206861766520616e79206c656164696e67207a65726f7320286c6f6064820152676e67206c6973742960c01b608482015260a490fd5b1561190357565b60405162461bcd60e51b81526020600482015260466024820152600080516020612a9e83398151915260448201527f742062652067726561746572207468616e20353520627974657320286c6f6e67606482015265206c6973742960d01b608482015260a490fd5b1561197257565b60405162461bcd60e51b815260206004820152604a6024820152600080516020612a9e83398151915260448201527f742062652067726561746572207468616e20746f74616c206c656e67746820286064820152696c6f6e67206c6973742960b01b608482015260a490fd5b156119e557565b60405162461bcd60e51b815260206004820152604a6024820152600080516020612a9e83398151915260448201527f742062652067726561746572207468616e206c697374206c656e677468202873606482015269686f7274206c6973742960b01b608482015260a490fd5b15611a5857565b60405162461bcd60e51b81526020600482015260516024820152600080516020612a9e83398151915260448201527f74206265203e207468616e206c656e677468206f6620737472696e67206c656e60648201527067746820286c6f6e6720737472696e672960781b608482015260a490fd5b15611ad257565b60405162461bcd60e51b815260206004820152604a6024820152600080516020612a9e83398151915260448201527f74206e6f74206861766520616e79206c656164696e67207a65726f7320286c6f6064820152696e6720737472696e672960b01b608482015260a490fd5b15611b4557565b60405162461bcd60e51b81526020600482015260486024820152600080516020612a9e83398151915260448201527f742062652067726561746572207468616e20353520627974657320286c6f6e6760648201526720737472696e672960c01b608482015260a490fd5b15611bb657565b60405162461bcd60e51b815260206004820152604c6024820152600080516020612a9e83398151915260448201527f742062652067726561746572207468616e20746f74616c206c656e677468202860648201526b6c6f6e6720737472696e672960a01b608482015260a490fd5b15611c2b57565b60405162461bcd60e51b815260206004820152604e6024820152600080516020612a9e83398151915260448201527f742062652067726561746572207468616e20737472696e67206c656e6774682060648201526d2873686f727420737472696e672960901b608482015260a490fd5b15611ca257565b60405162461bcd60e51b815260206004820152604d60248201527f524c505265616465723a20696e76616c6964207072656669782c2073696e676c60448201527f652062797465203c203078383020617265206e6f74207072656669786564202860648201526c73686f727420737472696e672960981b608482015260a490fd5b90611d3082511515611675565b6020820151805160001a90607f8211611d50575060009250600191839150565b60b78211611daa57611d70611d67611d92936114c6565b80955111611c24565b6001908101519084148015916001600160f81b03191690611d9b575b50611c9b565b60019190600090565b600160ff1b1115905038611d8c565b60bf8211611e1c57611e106001611dc3611e15946114b7565b92611dd084885111611a51565b018051611de8906001600160f81b0319161515611acb565b518260031b610100031c94611dff60378711611b3e565b51611e0a8684610e10565b10611baf565b610e02565b9190600090565b60f78211611e425750611e31611e3a916114a8565b809351116119de565b600191908290565b611e106001611e53611ea094611499565b92611e6084885111611815565b018051611e78906001600160f81b031916151561188b565b518260031b610100031c94611e8f603787116118fc565b51611e9a8684610e10565b1061196b565b9190600190565b9190611eb281611441565b928115611ef15781906000905b828210611eda575011611ecf5750565b602060009184010152565b915080602091830151828288010152018291611ebf565b5050565b92919092611f0282611441565b938215611f3f578101809111610dd85781906000905b828210611f28575011611ecf5750565b915080602091830151828288010152018291611f18565b505050565b15611f4b57565b60405162461bcd60e51b81526020600482015260156024820152744d65726b6c65547269653a20656d707479206b657960581b6044820152606490fd5b15611f8f57565b60405162461bcd60e51b815260206004820152602e60248201527f4d65726b6c65547269653a206b657920696e646578206578636565647320746f60448201526d0e8c2d840d6caf240d8cadccee8d60931b6064820152608490fd5b15611ff257565b60405162461bcd60e51b815260206004820152602660248201527f4d65726b6c65547269653a20696e76616c696420696e7465726e616c206e6f646044820152650ca40d0c2e6d60d31b6064820152608490fd5b1561204d57565b60405162461bcd60e51b815260206004820152602760248201527f4d65726b6c65547269653a20696e76616c6964206c6172676520696e7465726e6044820152660c2d840d0c2e6d60cb1b6064820152608490fd5b156120a957565b60405162461bcd60e51b815260206004820152601d60248201527f4d65726b6c65547269653a20696e76616c696420726f6f7420686173680000006044820152606490fd5b60ff166002039060ff8211610dd857565b1561210657565b60405162461bcd60e51b815260206004820152603a60248201527f4d65726b6c65547269653a20706174682072656d61696e646572206d7573742060448201527f736861726520616c6c206e6962626c65732077697468206b65790000000000006064820152608490fd5b1561217857565b60405162461bcd60e51b815260206004820152603d60248201527f4d65726b6c65547269653a206b65792072656d61696e646572206d757374206260448201527f65206964656e746963616c20746f20706174682072656d61696e6465720000006064820152608490fd5b156121ea57565b60405162461bcd60e51b815260206004820152603960248201527f4d65726b6c65547269653a2076616c7565206c656e677468206d75737420626560448201527f2067726561746572207468616e207a65726f20286c65616629000000000000006064820152608490fd5b1561225c57565b60405162461bcd60e51b815260206004820152603860248201527f4d65726b6c65547269653a2076616c7565206e6f6465206d757374206265206c60448201527f617374206e6f646520696e2070726f6f6620286c6561662900000000000000006064820152608490fd5b156122ce57565b60405162461bcd60e51b815260206004820152603b60248201527f4d65726b6c65547269653a2076616c7565206c656e677468206d75737420626560448201527f2067726561746572207468616e207a65726f20286272616e63682900000000006064820152608490fd5b1561234057565b60405162461bcd60e51b815260206004820152603a60248201527f4d65726b6c65547269653a2076616c7565206e6f6465206d757374206265206c60448201527f617374206e6f646520696e2070726f6f6620286272616e6368290000000000006064820152608490fd5b91906123e56123d16123cb610540936123c687511515611f44565b6127a9565b94612862565b926040519283916020830160209181520190565b600080926011905b8551851015612700576124008587610a7d565b519361240f8251851115611f88565b836126a8576124506124559161054061243d8851602081519101206040519283916020830160209181520190565b6020815191012090602081519101201490565b6120a2565b602084019382855151146000146124f757508051830361249f57505050906124996124866107766102559451610a6c565b93612493855115156122c7565b516114d5565b14612339565b919390926124eb6124e56124df60019360ff6124d56124cf6124c18c8b61100f565b516001600160f81b03191690565b60f81c90565b9151911690610a7d565b516129fb565b95610df4565b915b01939290916123ed565b600285969594929451511460001461265257612512906128b5565b9161253b6125256124cf6124c186611002565b93612535611158600187166120ee565b906128d5565b9360ff61254884836128d5565b9461255f6125568789612990565b809851146120ff565b16600281148015612648575b156125a657505050506107766102559461258d6125a094612593945114612171565b51610a5c565b93612493855115156121e3565b14612255565b8091959397929694501590811561263d575b50156125dd576001916125d16124df6125d79351610a5c565b96610e10565b916124ed565b60405162461bcd60e51b815260206004820152603260248201527f4d65726b6c65547269653a2072656365697665642061206e6f64652077697468604482015271040c2dc40eadcd6dcdeeedc40e0e4caccd2f60731b6064820152608490fd5b6001915014386125b8565b506003811461256b565b60405162461bcd60e51b815260206004820152602860248201527f4d65726b6c65547269653a20726563656976656420616e20756e706172736561604482015267626c65206e6f646560c01b6064820152608490fd5b845180516020116126e757506126dd6126e29161054061243d8851602081519101206040519283916020830160209181520190565b612046565b612455565b8051602091820120825191909201206126e29114611feb565b60405162461bcd60e51b815260206004820152602560248201527f4d65726b6c65547269653a2072616e206f7574206f662070726f6f6620656c656044820152646d656e747360d81b6064820152608490fd5b915b602081101561277957600019906020036101000a0190811990511690825116179052565b90918251815260208101809111610dd8579160208101809111610dd85790601f1981019081111561275557610dac565b9081516127b581610258565b6127c260405191826101b6565b818152601f196127d183610258565b0160005b81811061283d575050809360005b8381106127f05750505050565b806127fd60019284610a7d565b5161281161280b8386610a7d565b51611176565b6128196101d7565b918252602082015261282b8286610a7d565b526128368185610a7d565b50016127e3565b60209060405161284c81610196565b60608152606083820152828286010152016127d5565b604051908051908160011b603f8101601f19168401604052835260005b82811061288c5750505090565b80600191821b85016021600f6020848701015160001a8060041c6020850153169101530161287f565b6020015180511561056d576128d0602061025592015161130f565b612862565b90815181101561297957815181810390808211610dd85782906128fd83601f81011015612a20565b61291883830161290f84821015612a20565b86511015612a5d565b0361293157505050604051600081526020810160405290565b60405192601f821692831560051b80858701019484860193010101905b8084106129665750508252601f01601f191660405290565b909260208091855181520193019061294e565b50506040516129896020826101b6565b6000815290565b80518251600094939190808210156129f35750935b5b848110806129c2575b156129bc576001016129a6565b93505050565b506001600160f81b03196129d6828561100f565b51166001600160f81b03196129eb838561100f565b5116146129af565b9050936129a5565b6020815110600014612a17576020810151905161025591611ea7565b6102559061130f565b15612a2757565b60405162461bcd60e51b815260206004820152600e60248201526d736c6963655f6f766572666c6f7760901b6044820152606490fd5b15612a6457565b60405162461bcd60e51b8152602060048201526011602482015270736c6963655f6f75744f66426f756e647360781b6044820152606490fdfe524c505265616465723a206c656e677468206f6620636f6e74656e74206d7573a26469706673582212209315e1438193dc372d964845c3d23829c6ea2857db9d062eac5f91b793d550a864736f6c634300081a0033",
  "linkReferences": {},
  "deployedLinkReferences": {}
}