{
  "_format": "hh-sol-artifact-1",
  "contractName": "Prover",
  "sourceName": "contracts/Prover.sol",
  "abi": [
    {
      "inputs": [],
      "stateMutability": "nonpayable",
      "type": "constructor"
    },
    {
      "inputs": [
        {
          "internalType": "address",
          "name": "target",
          "type": "address"
        }
      ],
      "name": "AddressEmptyCode",
      "type": "error"
    },
    {
      "inputs": [
        {
          "internalType": "address",
          "name": "implementation",
          "type": "address"
        }
      ],
      "name": "ERC1967InvalidImplementation",
      "type": "error"
    },
    {
      "inputs": [],
      "name": "ERC1967NonPayable",
      "type": "error"
    },
    {
      "inputs": [],
      "name": "FailedInnerCall",
      "type": "error"
    },
    {
      "inputs": [],
      "name": "InvalidInitialization",
      "type": "error"
    },
    {
      "inputs": [],
      "name": "NotInitializing",
      "type": "error"
    },
    {
      "inputs": [
        {
          "internalType": "address",
          "name": "owner",
          "type": "address"
        }
      ],
      "name": "OwnableInvalidOwner",
      "type": "error"
    },
    {
      "inputs": [
        {
          "internalType": "address",
          "name": "account",
          "type": "address"
        }
      ],
      "name": "OwnableUnauthorizedAccount",
      "type": "error"
    },
    {
      "inputs": [],
      "name": "UUPSUnauthorizedCallContext",
      "type": "error"
    },
    {
      "inputs": [
        {
          "internalType": "bytes32",
          "name": "slot",
          "type": "bytes32"
        }
      ],
      "name": "UUPSUnsupportedProxiableUUID",
      "type": "error"
    },
    {
      "anonymous": false,
      "inputs": [
        {
          "indexed": false,
          "internalType": "uint64",
          "name": "version",
          "type": "uint64"
        }
      ],
      "name": "Initialized",
      "type": "event"
    },
    {
      "anonymous": false,
      "inputs": [
        {
          "indexed": true,
          "internalType": "address",
          "name": "previousOwner",
          "type": "address"
        },
        {
          "indexed": true,
          "internalType": "address",
          "name": "newOwner",
          "type": "address"
        }
      ],
      "name": "OwnershipTransferred",
      "type": "event"
    },
    {
      "anonymous": false,
      "inputs": [
        {
          "indexed": true,
          "internalType": "address",
          "name": "implementation",
          "type": "address"
        }
      ],
      "name": "Upgraded",
      "type": "event"
    },
    {
      "inputs": [],
      "name": "L2_DISPUTE_GAME_FACTORY_LIST_SLOT_NUMBER",
      "outputs": [
        {
          "internalType": "uint256",
          "name": "",
          "type": "uint256"
        }
      ],
      "stateMutability": "view",
      "type": "function"
    },
    {
      "inputs": [],
      "name": "L2_FAULT_DISPUTE_GAME_ROOT_CLAIM_SLOT",
      "outputs": [
        {
          "internalType": "uint256",
          "name": "",
          "type": "uint256"
        }
      ],
      "stateMutability": "view",
      "type": "function"
    },
    {
      "inputs": [],
      "name": "L2_FAULT_DISPUTE_GAME_STATUS_SLOT",
      "outputs": [
        {
          "internalType": "uint256",
          "name": "",
          "type": "uint256"
        }
      ],
      "stateMutability": "view",
      "type": "function"
    },
    {
      "inputs": [],
      "name": "L2_OUTPUT_ROOT_VERSION_NUMBER",
      "outputs": [
        {
          "internalType": "uint256",
          "name": "",
          "type": "uint256"
        }
      ],
      "stateMutability": "view",
      "type": "function"
    },
    {
      "inputs": [],
      "name": "L2_OUTPUT_SLOT_NUMBER",
      "outputs": [
        {
          "internalType": "uint256",
          "name": "",
          "type": "uint256"
        }
      ],
      "stateMutability": "view",
      "type": "function"
    },
    {
      "inputs": [],
      "name": "UPGRADE_INTERFACE_VERSION",
      "outputs": [
        {
          "internalType": "string",
          "name": "",
          "type": "string"
        }
      ],
      "stateMutability": "view",
      "type": "function"
    },
    {
      "inputs": [
        {
          "internalType": "uint64",
          "name": "createdAt",
          "type": "uint64"
        },
        {
          "internalType": "uint64",
          "name": "resolvedAt",
          "type": "uint64"
        },
        {
          "internalType": "uint8",
          "name": "gameStatus",
          "type": "uint8"
        },
        {
          "internalType": "bool",
          "name": "initialized",
          "type": "bool"
        },
        {
          "internalType": "bool",
          "name": "l2BlockNumberChallenged",
          "type": "bool"
        }
      ],
      "name": "assembleGameStatusStorage",
      "outputs": [
        {
          "internalType": "bytes",
          "name": "gameStatusStorageSlotRLP",
          "type": "bytes"
        }
      ],
      "stateMutability": "pure",
      "type": "function"
    },
    {
      "inputs": [
        {
          "internalType": "uint256",
          "name": "",
          "type": "uint256"
        }
      ],
      "name": "chainConfigurations",
      "outputs": [
        {
          "internalType": "uint8",
          "name": "provingMechanism",
          "type": "uint8"
        },
        {
          "internalType": "uint256",
          "name": "settlementChainId",
          "type": "uint256"
        },
        {
          "internalType": "address",
          "name": "settlementContract",
          "type": "address"
        },
        {
          "internalType": "address",
          "name": "blockhashOracle",
          "type": "address"
        },
        {
          "internalType": "uint256",
          "name": "outputRootVersionNumber",
          "type": "uint256"
        }
      ],
      "stateMutability": "view",
      "type": "function"
    },
    {
      "inputs": [
        {
          "internalType": "bytes32",
          "name": "rootClaim",
          "type": "bytes32"
        },
        {
          "internalType": "address",
          "name": "faultDisputeGameProxyAddress",
          "type": "address"
        },
        {
          "components": [
            {
              "internalType": "bytes32",
              "name": "faultDisputeGameStateRoot",
              "type": "bytes32"
            },
            {
              "internalType": "bytes[]",
              "name": "faultDisputeGameRootClaimStorageProof",
              "type": "bytes[]"
            },
            {
              "components": [
                {
                  "internalType": "uint64",
                  "name": "createdAt",
                  "type": "uint64"
                },
                {
                  "internalType": "uint64",
                  "name": "resolvedAt",
                  "type": "uint64"
                },
                {
                  "internalType": "uint8",
                  "name": "gameStatus",
                  "type": "uint8"
                },
                {
                  "internalType": "bool",
                  "name": "initialized",
                  "type": "bool"
                },
                {
                  "internalType": "bool",
                  "name": "l2BlockNumberChallenged",
                  "type": "bool"
                }
              ],
              "internalType": "struct Prover.FaultDisputeGameStatusSlotData",
              "name": "faultDisputeGameStatusSlotData",
              "type": "tuple"
            },
            {
              "internalType": "bytes[]",
              "name": "faultDisputeGameStatusStorageProof",
              "type": "bytes[]"
            },
            {
              "internalType": "bytes",
              "name": "rlpEncodedFaultDisputeGameData",
              "type": "bytes"
            },
            {
              "internalType": "bytes[]",
              "name": "faultDisputeGameAccountProof",
              "type": "bytes[]"
            }
          ],
          "internalType": "struct Prover.FaultDisputeGameProofData",
          "name": "faultDisputeGameProofData",
          "type": "tuple"
        },
        {
          "internalType": "bytes32",
          "name": "l1WorldStateRoot",
          "type": "bytes32"
        }
      ],
      "name": "faultDisputeGameIsResolved",
      "outputs": [],
      "stateMutability": "pure",
      "type": "function"
    },
    {
      "inputs": [
        {
          "internalType": "uint256",
          "name": "version",
          "type": "uint256"
        },
        {
          "internalType": "bytes32",
          "name": "worldStateRoot",
          "type": "bytes32"
        },
        {
          "internalType": "bytes32",
          "name": "messagePasserStateRoot",
          "type": "bytes32"
        },
        {
          "internalType": "bytes32",
          "name": "latestBlockHash",
          "type": "bytes32"
        }
      ],
      "name": "generateOutputRoot",
      "outputs": [
        {
          "internalType": "bytes32",
          "name": "",
          "type": "bytes32"
        }
      ],
      "stateMutability": "pure",
      "type": "function"
    },
    {
      "inputs": [
        {
          "internalType": "address",
          "name": "_owner",
          "type": "address"
        }
      ],
      "name": "initialize",
      "outputs": [],
      "stateMutability": "nonpayable",
      "type": "function"
    },
    {
      "inputs": [],
      "name": "l1BlockhashOracle",
      "outputs": [
        {
          "internalType": "contract IL1Block",
          "name": "",
          "type": "address"
        }
      ],
      "stateMutability": "view",
      "type": "function"
    },
    {
      "inputs": [],
      "name": "owner",
      "outputs": [
        {
          "internalType": "address",
          "name": "",
          "type": "address"
        }
      ],
      "stateMutability": "view",
      "type": "function"
    },
    {
      "inputs": [
        {
          "internalType": "bytes",
          "name": "_address",
          "type": "bytes"
        },
        {
          "internalType": "bytes",
          "name": "_data",
          "type": "bytes"
        },
        {
          "internalType": "bytes[]",
          "name": "_proof",
          "type": "bytes[]"
        },
        {
          "internalType": "bytes32",
          "name": "_root",
          "type": "bytes32"
        }
      ],
      "name": "proveAccount",
      "outputs": [],
      "stateMutability": "pure",
      "type": "function"
    },
    {
      "inputs": [
        {
          "internalType": "uint256",
          "name": "chainId",
          "type": "uint256"
        },
        {
          "internalType": "address",
          "name": "claimant",
          "type": "address"
        },
        {
          "internalType": "address",
          "name": "inboxContract",
          "type": "address"
        },
        {
          "internalType": "bytes32",
          "name": "intermediateHash",
          "type": "bytes32"
        },
        {
          "internalType": "bytes[]",
          "name": "l2StorageProof",
          "type": "bytes[]"
        },
        {
          "internalType": "bytes",
          "name": "rlpEncodedInboxData",
          "type": "bytes"
        },
        {
          "internalType": "bytes[]",
          "name": "l2AccountProof",
          "type": "bytes[]"
        },
        {
          "internalType": "bytes32",
          "name": "l2WorldStateRoot",
          "type": "bytes32"
        }
      ],
      "name": "proveIntent",
      "outputs": [],
      "stateMutability": "nonpayable",
      "type": "function"
    },
    {
      "inputs": [
        {
          "internalType": "bytes",
          "name": "rlpEncodedBlockData",
          "type": "bytes"
        },
        {
          "internalType": "uint256",
          "name": "chainId",
          "type": "uint256"
        }
      ],
      "name": "proveSettlementLayerState",
      "outputs": [],
      "stateMutability": "nonpayable",
      "type": "function"
    },
    {
      "inputs": [
        {
          "internalType": "bytes",
          "name": "_key",
          "type": "bytes"
        },
        {
          "internalType": "bytes",
          "name": "_val",
          "type": "bytes"
        },
        {
          "internalType": "bytes[]",
          "name": "_proof",
          "type": "bytes[]"
        },
        {
          "internalType": "bytes32",
          "name": "_root",
          "type": "bytes32"
        }
      ],
      "name": "proveStorage",
      "outputs": [],
      "stateMutability": "pure",
      "type": "function"
    },
    {
      "inputs": [
        {
          "internalType": "uint256",
          "name": "chainId",
          "type": "uint256"
        },
        {
          "internalType": "bytes",
          "name": "rlpEncodedBlockData",
          "type": "bytes"
        },
        {
          "internalType": "bytes32",
          "name": "l2WorldStateRoot",
          "type": "bytes32"
        },
        {
          "internalType": "bytes32",
          "name": "l2MessagePasserStateRoot",
          "type": "bytes32"
        },
        {
          "internalType": "uint256",
          "name": "l2OutputIndex",
          "type": "uint256"
        },
        {
          "internalType": "bytes[]",
          "name": "l1StorageProof",
          "type": "bytes[]"
        },
        {
          "internalType": "bytes",
          "name": "rlpEncodedOutputOracleData",
          "type": "bytes"
        },
        {
          "internalType": "bytes[]",
          "name": "l1AccountProof",
          "type": "bytes[]"
        },
        {
          "internalType": "bytes32",
          "name": "l1WorldStateRoot",
          "type": "bytes32"
        }
      ],
      "name": "proveWorldStateBedrock",
      "outputs": [],
      "stateMutability": "nonpayable",
      "type": "function"
    },
    {
      "inputs": [
        {
          "internalType": "uint256",
          "name": "chainId",
          "type": "uint256"
        },
        {
          "internalType": "bytes",
          "name": "rlpEncodedBlockData",
          "type": "bytes"
        },
        {
          "internalType": "bytes32",
          "name": "l2WorldStateRoot",
          "type": "bytes32"
        },
        {
          "components": [
            {
              "internalType": "bytes32",
              "name": "messagePasserStateRoot",
              "type": "bytes32"
            },
            {
              "internalType": "bytes32",
              "name": "latestBlockHash",
              "type": "bytes32"
            },
            {
              "internalType": "uint256",
              "name": "gameIndex",
              "type": "uint256"
            },
            {
              "internalType": "bytes32",
              "name": "gameId",
              "type": "bytes32"
            },
            {
              "internalType": "bytes[]",
              "name": "disputeFaultGameStorageProof",
              "type": "bytes[]"
            },
            {
              "internalType": "bytes",
              "name": "rlpEncodedDisputeGameFactoryData",
              "type": "bytes"
            },
            {
              "internalType": "bytes[]",
              "name": "disputeGameFactoryAccountProof",
              "type": "bytes[]"
            }
          ],
          "internalType": "struct Prover.DisputeGameFactoryProofData",
          "name": "disputeGameFactoryProofData",
          "type": "tuple"
        },
        {
          "components": [
            {
              "internalType": "bytes32",
              "name": "faultDisputeGameStateRoot",
              "type": "bytes32"
            },
            {
              "internalType": "bytes[]",
              "name": "faultDisputeGameRootClaimStorageProof",
              "type": "bytes[]"
            },
            {
              "components": [
                {
                  "internalType": "uint64",
                  "name": "createdAt",
                  "type": "uint64"
                },
                {
                  "internalType": "uint64",
                  "name": "resolvedAt",
                  "type": "uint64"
                },
                {
                  "internalType": "uint8",
                  "name": "gameStatus",
                  "type": "uint8"
                },
                {
                  "internalType": "bool",
                  "name": "initialized",
                  "type": "bool"
                },
                {
                  "internalType": "bool",
                  "name": "l2BlockNumberChallenged",
                  "type": "bool"
                }
              ],
              "internalType": "struct Prover.FaultDisputeGameStatusSlotData",
              "name": "faultDisputeGameStatusSlotData",
              "type": "tuple"
            },
            {
              "internalType": "bytes[]",
              "name": "faultDisputeGameStatusStorageProof",
              "type": "bytes[]"
            },
            {
              "internalType": "bytes",
              "name": "rlpEncodedFaultDisputeGameData",
              "type": "bytes"
            },
            {
              "internalType": "bytes[]",
              "name": "faultDisputeGameAccountProof",
              "type": "bytes[]"
            }
          ],
          "internalType": "struct Prover.FaultDisputeGameProofData",
          "name": "faultDisputeGameProofData",
          "type": "tuple"
        },
        {
          "internalType": "bytes32",
          "name": "l1WorldStateRoot",
          "type": "bytes32"
        }
      ],
      "name": "proveWorldStateCannon",
      "outputs": [],
      "stateMutability": "nonpayable",
      "type": "function"
    },
    {
      "inputs": [
        {
          "internalType": "bytes32",
          "name": "",
          "type": "bytes32"
        }
      ],
      "name": "provenIntents",
      "outputs": [
        {
          "internalType": "address",
          "name": "",
          "type": "address"
        }
      ],
      "stateMutability": "view",
      "type": "function"
    },
    {
      "inputs": [
        {
          "internalType": "uint256",
          "name": "",
          "type": "uint256"
        }
      ],
      "name": "provenStates",
      "outputs": [
        {
          "internalType": "uint256",
          "name": "blockNumber",
          "type": "uint256"
        },
        {
          "internalType": "bytes32",
          "name": "blockHash",
          "type": "bytes32"
        },
        {
          "internalType": "bytes32",
          "name": "stateRoot",
          "type": "bytes32"
        }
      ],
      "stateMutability": "view",
      "type": "function"
    },
    {
      "inputs": [],
      "name": "proxiableUUID",
      "outputs": [
        {
          "internalType": "bytes32",
          "name": "",
          "type": "bytes32"
        }
      ],
      "stateMutability": "view",
      "type": "function"
    },
    {
      "inputs": [],
      "name": "renounceOwnership",
      "outputs": [],
      "stateMutability": "nonpayable",
      "type": "function"
    },
    {
      "inputs": [
        {
          "internalType": "bytes[]",
          "name": "dataList",
          "type": "bytes[]"
        }
      ],
      "name": "rlpEncodeDataLibList",
      "outputs": [
        {
          "internalType": "bytes",
          "name": "",
          "type": "bytes"
        }
      ],
      "stateMutability": "pure",
      "type": "function"
    },
    {
      "inputs": [
        {
          "internalType": "uint256",
          "name": "chainId",
          "type": "uint256"
        },
        {
          "internalType": "uint8",
          "name": "provingMechanism",
          "type": "uint8"
        },
        {
          "internalType": "uint256",
          "name": "settlementChainId",
          "type": "uint256"
        },
        {
          "internalType": "address",
          "name": "settlementContract",
          "type": "address"
        },
        {
          "internalType": "address",
          "name": "blockhashOracle",
          "type": "address"
        },
        {
          "internalType": "uint256",
          "name": "outputRootVersionNumber",
          "type": "uint256"
        }
      ],
      "name": "setChainConfiguration",
      "outputs": [],
      "stateMutability": "nonpayable",
      "type": "function"
    },
    {
      "inputs": [
        {
          "internalType": "address",
          "name": "newOwner",
          "type": "address"
        }
      ],
      "name": "transferOwnership",
      "outputs": [],
      "stateMutability": "nonpayable",
      "type": "function"
    },
    {
      "inputs": [
        {
          "internalType": "bytes32",
          "name": "_gameId",
          "type": "bytes32"
        }
      ],
      "name": "unpack",
      "outputs": [
        {
          "internalType": "uint32",
          "name": "gameType_",
          "type": "uint32"
        },
        {
          "internalType": "uint64",
          "name": "timestamp_",
          "type": "uint64"
        },
        {
          "internalType": "address",
          "name": "gameProxy_",
          "type": "address"
        }
      ],
      "stateMutability": "pure",
      "type": "function"
    },
    {
      "inputs": [
        {
          "internalType": "address",
          "name": "newImplementation",
          "type": "address"
        },
        {
          "internalType": "bytes",
          "name": "data",
          "type": "bytes"
        }
      ],
      "name": "upgradeToAndCall",
      "outputs": [],
      "stateMutability": "payable",
      "type": "function"
    }
  ],
  "bytecode": "0x60a0806040523461014d573060805260008051602061413083398151915254604081901c60ff1615906001600160401b03811680159081610145575b600114908161013b575b159081610132575b50610121576001600160401b0319811660011760008051602061413083398151915255816100f6575b5061009b575b604051613fdd908161015382396080518181816108fe0152610a4c0152f35b60207fc7f505b2f371ae2175ee4913f4499e1f2633a7b5936321eed1cdaeb6115181d29168ff00000000000000001960008051602061413083398151915254166000805160206141308339815191525560018152a13861007c565b6001600160481b03191668010000000000000001176000805160206141308339815191525538610076565b63f92ee8a960e01b60005260046000fd5b9050153861004d565b303b159150610045565b83915061003b565b600080fdfe6080604052600436101561001257600080fd5b60003560e01c806304bfb8d0146101d2578063362db857146101cd5780633988d311146101c85780633b4c49c0146101c35780633bb79618146101be57806349405273146101b95780634cd4f848146101b45780634f1ef286146101af578063508706dc1461018c57806352d1902d146101aa57806354a29136146101a55780635961cddf146101a0578063715018a61461019b57806371516dd914610196578063848e9abb14610191578063867b5dd71461018c5780638da5cb5b14610187578063914c73b61461018257806399d145b21461017d578063a1ff435714610178578063a48d72fa14610173578063ab93795a1461016e578063ad3cb1cc14610169578063b9d8ac2614610164578063c4d66de81461015f578063f2fde38b1461015a578063f6771603146101555763ff873c4b1461015057600080fd5b6112c8565b61129f565b611276565b611101565b61103c565b610ff5565b610ee5565b610e4a565b610e30565b610dfc565b610de0565b610daa565b610a1d565b610d90565b610cda565b610c70565b610afb565b610a92565b610a39565b6108c0565b610837565b6107ed565b610463565b610447565b6103d2565b6102ec565b610239565b9181601f84011215610204578235916001600160401b038311610204576020838186019501011161020457565b600080fd5b9181601f84011215610204578235916001600160401b038311610204576020808501948460051b01011161020457565b3461020457610120366003190112610204576004356024356001600160401b0381116102045761026d9036906004016101d7565b604435929160843560643560a4356001600160401b03811161020457610297903690600401610209565b9060c4356001600160401b038111610204576102b79036906004016101d7565b94909360e435996001600160401b038b11610204576102dd6102ea9b3690600401610209565b999098610104359b6115be565b005b346102045760003660031901126102045760206040517f405787fa12a823e0f2b7631cc41b3ba8828b3321ca811111fa75cd3aa3bb5ad18152f35b35906001600160401b038216820361020457565b6024359060ff8216820361020457565b60643590811515820361020457565b60843590811515820361020457565b3590811515820361020457565b60005b8381106103895750506000910152565b8181015183820152602001610379565b906020916103b281518092818552858086019101610376565b601f01601f1916010190565b9060206103cf928181520190610399565b90565b346102045760a0366003190112610204576004356001600160401b038116810361020457602435906001600160401b0382168203610204576044359060ff8216820361020457610443926104379261042861034b565b9161043161035a565b93611841565b604051918291826103be565b0390f35b3461020457600036600319011261020457602060405160688152f35b3461020457602036600319011261020457600435600052600260205260606040600020805490600260018201549101549060405192835260208301526040820152f35b602435906001600160a01b038216820361020457565b600435906001600160a01b038216820361020457565b604435906001600160a01b038216820361020457565b606435906001600160a01b038216820361020457565b608435906001600160a01b038216820361020457565b634e487b7160e01b600052604160045260246000fd5b60a081019081106001600160401b0382111761054557604052565b610514565b604081019081106001600160401b0382111761054557604052565b90601f801991011681019081106001600160401b0382111761054557604052565b6040519061059560c083610565565b565b60405190610595606083610565565b60405190610595604083610565565b6001600160401b0381116105455760051b60200190565b6001600160401b03811161054557601f01601f191660200190565b9291926105f3826105cc565b916106016040519384610565565b829481845281830111610204578281602093846000960137010152565b9080601f83011215610204578160206103cf933591016105e7565b929190610645816105b5565b936106536040519586610565565b602085838152019160051b8101918383116102045781905b838210610679575050505050565b81356001600160401b03811161020457602091610699878493870161061e565b81520191019061066b565b9080601f83011215610204578160206103cf93359101610639565b91908260a0910312610204576040516106d78161052a565b80926106e281610327565b82526106f060208201610327565b602083015260408101359060ff82168203610204576080610729918193604086015261071e60608201610369565b606086015201610369565b910152565b9190916101408184031261020457610744610586565b928135845260208201356001600160401b03811161020457816107689184016106a4565b602085015261077a81604084016106bf565b604085015260e08201356001600160401b038111610204578161079e9184016106a4565b60608501526101008201356001600160401b03811161020457816107c391840161061e565b60808501526101208201356001600160401b038111610204576107e692016106a4565b60a0830152565b34610204576080366003190112610204576004356108096104a6565b90604435916001600160401b0383116102045761082d6102ea93369060040161072e565b9060643592611a7c565b346102045760c0366003190112610204576004356024356001600160401b0381116102045761086a9036906004016101d7565b9160643591906044356001600160401b0384116102045760e0600319853603011261020457608435946001600160401b038611610204576108b26102ea96369060040161072e565b9360a4359560040193611bcd565b6040366003190112610204576108d46104bc565b6024356001600160401b038111610204576108f390369060040161061e565b906001600160a01b037f0000000000000000000000000000000000000000000000000000000000000000163081149081156109fa575b506109e95761093661269a565b6040516352d1902d60e01b8152916020836004816001600160a01b0386165afa600093816109b8575b5061098257634c9c8ce360e01b6000526001600160a01b03821660045260246000fd5b90600080516020613f6883398151915283036109a2576102ea92506131a0565b632a87526960e21b600052600483905260246000fd5b6109db91945060203d6020116109e2575b6109d38183610565565b810190611c86565b923861095f565b503d6109c9565b63703e46dd60e11b60005260046000fd5b600080516020613f68833981519152546001600160a01b03161415905038610929565b3461020457600036600319011261020457602060405160008152f35b34610204576000366003190112610204577f00000000000000000000000000000000000000000000000000000000000000006001600160a01b031630036109e9576020604051600080516020613f688339815191528152f35b3461020457602036600319011261020457600435600052600160205260a0604060002060ff81541690600181015490600180851b036002820154166004600180871b03600384015416920154926040519485526020850152604084015260608301526080820152f35b34610204576040366003190112610204576004356001600160401b03811161020457610b2b9036906004016101d7565b90602435916004610b3d3683856105e7565b80516020918201206000549091906001600160a01b0316604051624dead360e51b815293849182905afa908115610c6b57610b8192600092610c4a575b5014611ca1565b610bdc610bb7610bb1610bd7610ba7610bbc610bb7610bb1610bac610ba7368b8d6105e7565b6120b3565b6114a7565b51612252565b61146e565b96610bc83688836105e7565b602081519101209636916105e7565b6114bd565b90610be5610597565b92835260208301526040820152610c0e610c09836000526002602052604060002090565b611366565b51815111610c1857005b610c2f6102ea926000526002602052604060002090565b90604060029180518455602081015160018501550151910155565b610c6491925060203d6020116109e2576109d38183610565565b9038610b7a565b611c95565b3461020457600036600319011261020457610c8961269a565b600080516020613f2883398151915280546001600160a01b031981169091556000906001600160a01b03167f8be0079c531659141344cd1fd0a4f28419497f9722a3daafe3b4186f6b6457e08280a3005b34610204576020366003190112610204576040805160043560e081901c825260a081901c6001600160401b031660208301526001600160a01b031691810191909152606090f35b6080600319820112610204576004356001600160401b0381116102045781610d4b9160040161061e565b916024356001600160401b0381116102045782610d6a9160040161061e565b91604435906001600160401b03821161020457610d89916004016106a4565b9060643590565b34610204576102ea610da136610d21565b92919091611ced565b3461020457600036600319011261020457600080516020613f28833981519152546040516001600160a01b039091168152602090f35b3461020457600036600319011261020457602060405160038152f35b34610204576020366003190112610204576004356000526003602052602060018060a01b0360406000205416604051908152f35b34610204576102ea610e4136610d21565b92919091611d64565b346102045761010036600319011261020457600435610e676104a6565b90610e706104d2565b606435926084356001600160401b03811161020457610e93903690600401610209565b9060a4356001600160401b03811161020457610eb39036906004016101d7565b92909160c435976001600160401b03891161020457610ed96102ea993690600401610209565b97909660e43599611e50565b346102045760c0366003190112610204576102ea600435610f0461033b565b6004604435610fcf610f146104e8565b610faa610f1f6104fe565b9160a43594610f2c61269a565b60ff60405198610f3b8a61052a565b16885260208089019182526001600160a01b039283166040808b0191825295841660608b0181815260808c01998a5260009c8d5260019384905296909b2099518a5460ff191660ff91909116178a55915190890155516002880180546001600160a01b03191691909216179055565b516003850180546001600160a01b0319166001600160a01b0392909216919091179055565b5191015560018060a01b03166bffffffffffffffffffffffff60a01b6000541617600055565b346102045760003660031901126102045761044360408051906110188183610565565b60058252640352e302e360dc1b602083015251918291602083526020830190610399565b34610204576020366003190112610204576004356001600160401b0381116102045761106c9036906004016106a4565b60005b81518110156110aa578061108e611088600193856114fe565b51612316565b61109882856114fe565b526110a381846114fe565b500161106f565b6104436110b683613266565b6104376110c382516130e4565b602060405193826110dd8694518092858088019101610376565b83016110f182518093858085019101610376565b010103601f198101835282610565565b346102045760203660031901126102045761111a6104bc565b600080516020613f8883398151915254906001600160401b0361114c60ff604085901c1615936001600160401b031690565b168015908161126e575b6001149081611264575b15908161125b575b5061124a576111ad90826111a460016001600160401b0319600080516020613f88833981519152541617600080516020613f8883398151915255565b61120e57611fef565b6111b357005b6111df60ff60401b19600080516020613f888339815191525416600080516020613f8883398151915255565b604051600181527fc7f505b2f371ae2175ee4913f4499e1f2633a7b5936321eed1cdaeb6115181d290602090a1005b6112456801000000000000000060ff60401b19600080516020613f88833981519152541617600080516020613f8883398151915255565b611fef565b63f92ee8a960e01b60005260046000fd5b90501538611168565b303b159150611160565b839150611156565b34610204576020366003190112610204576102ea6112926104bc565b61129a61269a565b61200b565b34610204576000366003190112610204576000546040516001600160a01b039091168152602090f35b3461020457608036600319011261020457602060043560243560443560643590604051928584019485526040840152606083015260808201526080815261131060a082610565565b519020604051908152f35b906040516113288161052a565b825460ff1681526001830154602082015260028301546001600160a01b03908116604083015260038401541660608201526004909201546080830152565b90604051606081018181106001600160401b038211176105455760405260406002829480548452600181015460208501520154910152565b156113a557565b60405162461bcd60e51b815260206004820152602a60248201527f736574746c656d656e7420636861696e20737461746520726f6f74206e6f74206044820152691e595d081c1c9bdd995960b21b6064820152608490fd5b634e487b7160e01b600052601160045260246000fd5b908160011b918083046002149015171561142957565b6113fd565b908160081b91808304610100149015171561142957565b906001820180921161142957565b600101908160011161142957565b9190820180921161142957565b602081519101519060208110611482575090565b6000199060200360031b1b1690565b634e487b7160e01b600052603260045260246000fd5b8051600810156114b8576101200190565b611491565b8051600310156114b85760800190565b8051600210156114b85760600190565b8051600110156114b85760400190565b8051601010156114b8576102200190565b80518210156114b85760209160051b010190565b1561151957565b60405162461bcd60e51b815260206004820152602760248201527f636f6e747261637420737461746520726f6f7420696e636f72726563746c7920604482015266195b98dbd9195960ca1b6064820152608490fd5b9061158160209282815194859201610376565b0190565b9061059560216040518094600560fd1b60208301526115ad8151809260208686019101610376565b81010301601f198101845283610565565b9b9690989793929a959199948b6115df8e6000526001602052604060002090565b6115e89061131b565b94896020870151611603906000526002602052604060002090565b61160c90611366565b604001511461161a9061139e565b611625368e8e6105e7565b805190602001209061163692612081565b9060405160208101908061164f83906003602083019252565b03601f19810182526116619082610565565b5190209061166e90611413565b61167791611461565b6040518091602082019061168d90602083019252565b03601f198101825261169f9082610565565b6116a89061146e565b926116b4368b886105e7565b6116bd906120b3565b6116c6906114cd565b516116d090612252565b918251602010156116e090611512565b604080516020808201979097529586526116fa9086610565565b604080516020808201939093529182526117149082610565565b61171d90611585565b916117279061146e565b92369061173392610639565b9061173d93611ced565b604090810151905160609190911b6001600160601b0319166020820152601481529461176a603487610565565b3690611775926105e7565b91369061178192610639565b9061178b93611d64565b61179f846000526002602052604060002090565b6117a890611366565b906117b43684836105e7565b6117bd906120b3565b6117c6906114a7565b516117d090612252565b6117d99061146e565b9236906117e5926105e7565b80519060200120926117f5610597565b9383855260208501526040840152511061180d575050565b610c2f610595926000526002602052604060002090565b906105956020604051846115ad8296518092858086019101610376565b9293929183156119555760405193151560f81b602085015260018452611868602185610565565b60405194151560f81b602086015260018552611885602186610565565b60405160f89190911b6001600160f81b0319166020820152600181526118ac602182610565565b60405160c09290921b6001600160c01b0319166020830152600882526118d3602883610565565b60405160c09390931b6001600160c01b0319166020840152600883526118fa602884610565565b6040519485946020860161190d9161156e565b6119169161156e565b61191f9161156e565b6119289161156e565b6119319161156e565b03601f19810182526119439082610565565b61194c90612316565b6103cf90611824565b611a2b935093611a186119d2611a126119d2611a126119d2611a02611a12996119e0611a269a6119e06103cf9f6119b06119a26040519e8f91829160208301600191151560f81b81520190565b0390601f1982018152610565565b60405160f89190911b6001600160f81b03191660208201529586906021820190565b03601f198101875286610565565b60405160c09190911b6001600160c01b03191660208201529586906028820190565b604051988997602089019061156e565b9061156e565b03601f198101835282610565565b612316565b611824565b15611a3757565b60405162461bcd60e51b815260206004820152601d60248201527f6661756c744469737075746547616d65206e6f74207265736f6c7665640000006044820152606490fd5b91611bbd611b7b92611b97611b616105959796611b1d6040870191611ab5600260ff611aae604087510160ff90511690565b1614611a30565b611b0f611a18611b0a60405193611af7856119d2602082016020907f405787fa12a823e0f2b7631cc41b3ba8828b3321ca811111fa75cd3aa3bb5ad181520190565b6040519283916020830160209181520190565b611585565b602089015190895192611ced565b5180516001600160401b031690611b3e60208201516001600160401b031690565b604082015160ff16906104316080611b596060860151151590565b940151151590565b60405190611b8982611b7b60208201602090600081520190565b03601f198101845283610565565b606086015190865192611ced565b604051938491602083016014916bffffffffffffffffffffffff199060601b1681520190565b60a0608082015191015191611d64565b95909294611c3782611c3c949688611c326040611bfc611bf78e6000526001602052604060002090565b61131b565b611c248683611c1c610c0960208601516000526002602052604060002090565b01511461139e565b01516001600160a01b031690565b612508565b611a7c565b611c76611c56610c09866000526002602052604060002090565b91611c6e610bb7610bb1610bac610ba73689876105e7565b9336916105e7565b60208151910120926117f5610597565b90816020910312610204575190565b6040513d6000823e3d90fd5b15611ca857565b60405162461bcd60e51b815260206004820152601e60248201527f6861736820646f6573206e6f74206d6174636820626c6f636b206461746100006044820152606490fd5b92611d049192611cff611d1895613247565b6137d4565b906020815191012090602081519101201490565b15611d1f57565b60405162461bcd60e51b815260206004820152601760248201527f6661696c656420746f2070726f76652073746f726167650000000000000000006044820152606490fd5b92611d049192611cff611d7695613247565b15611d7d57565b60405162461bcd60e51b815260206004820152601760248201527f6661696c656420746f2070726f7665206163636f756e740000000000000000006044820152606490fd5b15611dc957565b60405162461bcd60e51b815260206004820152602b60248201527f64657374696e6174696f6e20636861696e20737461746520726f6f74206e6f7460448201526a081e595d081c1c9bdd995960aa1b6064820152608490fd5b604051602560fa1b60208201526001600160601b031990911660218201526015815290610595603583610565565b99611e70819894929b9a97959399969a6000526002602052604060002090565b611e7990611366565b6040015114611e8790611dc2565b604080516001600160a01b038a166020820190815281830193909352908152611eb1606082610565565b51902097604051602081019080611ed68c846020600191939293604081019481520152565b03601f1981018252611ee89082610565565b51902091611ef73685876105e7565b611f00906120b3565b611f09906114cd565b51611f1390612252565b90815160201015611f2390611512565b60408051602080820196909652948552611f3d9085610565565b611f5460608d901b6001600160601b031916611e22565b91611f5e9061146e565b923690611f6a92610639565b90611f7493611ced565b60405160609690961b6001600160601b031916602087015260148652611f9b603487610565565b3690611fa6926105e7565b913690611fb292610639565b90611fbc93611d64565b611fd0906000526003602052604060002090565b80546001600160a01b0319166001600160a01b03909216919091179055565b61200390611ffb6132f9565b61129a6132f9565b6105956132f9565b6001600160a01b0316801561206b57600080516020613f2883398151915280546001600160a01b0319811683179091556001600160a01b03167f8be0079c531659141344cd1fd0a4f28419497f9722a3daafe3b4186f6b6457e0600080a3565b631e4fbdf760e01b600052600060045260246000fd5b9160405191602083019360008552604084015260608301526080820152608081526120ad60a082610565565b51902090565b906120bc6126d0565b506120c9825115156126e9565b815191604051926120d98461054a565b835260208084019101815261210d61211b61211360016120f887612def565b612107819793979492946121c9565b1461276e565b83611461565b8551146127e0565b612123612847565b926000915b8551808210156121be57906121b36121ad612169612149846121b9966128d4565b612154858a51611461565b61215c6105a6565b9182526020820152612def565b509190966121778884611461565b612182868b51611461565b61218a6105a6565b918252602082015261219c828c6114fe565b526121a7818b6114fe565b50611445565b95611461565b90611461565b612128565b505093509050815290565b600211156121d357565b634e487b7160e01b600052602160045260246000fd5b156121f057565b60405162461bcd60e51b815260206004820152603460248201527f524c505265616465723a2062797465732076616c756520636f6e7461696e732060448201527330b71034b73b30b634b2103932b6b0b4b73232b960611b6064820152608490fd5b61225b81612def565b60028193929310156121d35761228d576020836122866103cf95516122808686611461565b146121e9565b0151613031565b60405162461bcd60e51b815260206004820152603960248201527f524c505265616465723a206465636f646564206974656d207479706520666f7260448201527f206279746573206973206e6f7420612064617461206974656d000000000000006064820152608490fd5b8051156114b85760200190565b9081518110156114b8570160200190565b805160018114908161245a575b501561232c5790565b805190603882101561238a57611a1291611a186103cf9261236c61235c608060ff612355612f73565b96166130c1565b60f81b6001600160f81b03191690565b60001a612378846122f8565b535b604051948593602085019061156e565b9160019160005b61239b8483613080565b156123b8576123ac6123b2916130a0565b9361142e565b92612391565b9092509290926123cf6123ca82611445565b612fb1565b926123e961235c6123e4608060ff86166130c1565b6130af565b60001a6123f5856122f8565b5360015b8281111561241457505050611a1291611a186103cf9261237a565b8061244261235c61243c61243c612436612431612455978a6128d4565b6130d5565b87613080565b60ff1690565b60001a61244f8288612305565b536130a0565b6123f9565b9050156114b8576080602082015160f81c1038612323565b903590601e198136030182121561020457018035906001600160401b0382116102045760200191813603831361020457565b604051601360fb1b602082015267ffffffffffffffff1990911660218201526019815290610595603983610565565b903590601e198136030182121561020457018035906001600160401b03821161020457602001918160051b3603831361020457565b90919392606085013592853560208701359061252392612081565b9460405160208101908061253c83906068602083019252565b03601f198101825261254e9082610565565b519020604082013561255f91611461565b6040518091602082019061257590602083019252565b03601f19810182526125879082610565565b6125909061146e565b60a082019061259f8284612472565b36906125aa926105e7565b6125b3906120b3565b6125bc906114cd565b516125c690612252565b8051602010156125d590611512565b604080516020808201949094529283526125ef9083610565565b8660401b6125fc906124a4565b61260960808601866124d3565b926126139061146e565b92369061261f92610639565b9061262993611ced565b60405160609490941b6001600160601b031916602085015260148452612650603485610565565b61265a9082612472565b909160c08101612669916124d3565b9290913690612677926105e7565b91369061268392610639565b9061268d93611d64565b6001600160a01b03169190565b600080516020613f28833981519152546001600160a01b031633036126bb57565b63118cdaa760e01b6000523360045260246000fd5b604051906126dd8261054a565b60006020838281520152565b156126f057565b60405162461bcd60e51b815260206004820152604a60248201527f524c505265616465723a206c656e677468206f6620616e20524c50206974656d60448201527f206d7573742062652067726561746572207468616e207a65726f20746f206265606482015269206465636f6461626c6560b01b608482015260a490fd5b1561277557565b60405162461bcd60e51b815260206004820152603860248201527f524c505265616465723a206465636f646564206974656d207479706520666f7260448201527f206c697374206973206e6f742061206c697374206974656d00000000000000006064820152608490fd5b156127e757565b60405162461bcd60e51b815260206004820152603260248201527f524c505265616465723a206c697374206974656d2068617320616e20696e76616044820152713634b2103230ba30903932b6b0b4b73232b960711b6064820152608490fd5b60405161042091906128598382610565565b6020815291601f19018260005b82811061287257505050565b60209061287d6126d0565b82828501015201612866565b60f61981019190821161142957565b60bf1981019190821161142957565b60b61981019190821161142957565b607f1981019190821161142957565b60001981019190821161142957565b9190820391821161142957565b156128e857565b60405162461bcd60e51b815260206004820152604d6024820152600080516020613f4883398151915260448201527f74206265203e207468616e206c656e677468206f66206c697374206c656e677460648201526c6820286c6f6e67206c6973742960981b608482015260a490fd5b1561295e57565b60405162461bcd60e51b81526020600482015260486024820152600080516020613f4883398151915260448201527f74206e6f74206861766520616e79206c656164696e67207a65726f7320286c6f6064820152676e67206c6973742960c01b608482015260a490fd5b156129cf57565b60405162461bcd60e51b81526020600482015260466024820152600080516020613f4883398151915260448201527f742062652067726561746572207468616e20353520627974657320286c6f6e67606482015265206c6973742960d01b608482015260a490fd5b15612a3e57565b60405162461bcd60e51b815260206004820152604a6024820152600080516020613f4883398151915260448201527f742062652067726561746572207468616e20746f74616c206c656e67746820286064820152696c6f6e67206c6973742960b01b608482015260a490fd5b15612ab157565b60405162461bcd60e51b815260206004820152604a6024820152600080516020613f4883398151915260448201527f742062652067726561746572207468616e206c697374206c656e677468202873606482015269686f7274206c6973742960b01b608482015260a490fd5b15612b2457565b60405162461bcd60e51b81526020600482015260516024820152600080516020613f4883398151915260448201527f74206265203e207468616e206c656e677468206f6620737472696e67206c656e60648201527067746820286c6f6e6720737472696e672960781b608482015260a490fd5b15612b9e57565b60405162461bcd60e51b815260206004820152604a6024820152600080516020613f4883398151915260448201527f74206e6f74206861766520616e79206c656164696e67207a65726f7320286c6f6064820152696e6720737472696e672960b01b608482015260a490fd5b15612c1157565b60405162461bcd60e51b81526020600482015260486024820152600080516020613f4883398151915260448201527f742062652067726561746572207468616e20353520627974657320286c6f6e6760648201526720737472696e672960c01b608482015260a490fd5b15612c8257565b60405162461bcd60e51b815260206004820152604c6024820152600080516020613f4883398151915260448201527f742062652067726561746572207468616e20746f74616c206c656e677468202860648201526b6c6f6e6720737472696e672960a01b608482015260a490fd5b15612cf757565b60405162461bcd60e51b815260206004820152604e6024820152600080516020613f4883398151915260448201527f742062652067726561746572207468616e20737472696e67206c656e6774682060648201526d2873686f727420737472696e672960901b608482015260a490fd5b15612d6e57565b60405162461bcd60e51b815260206004820152604d60248201527f524c505265616465723a20696e76616c6964207072656669782c2073696e676c60448201527f652062797465203c203078383020617265206e6f74207072656669786564202860648201526c73686f727420737472696e672960981b608482015260a490fd5b90612dfc825115156126e9565b6020820151805160001a90607f8211612e1c575060009250600191839150565b60b78211612e7657612e3c612e33612e5e936128b6565b80955111612cf0565b6001908101519084148015916001600160f81b03191690612e67575b50612d67565b60019190600090565b600160ff1b1115905038612e58565b60bf8211612ee857612edc6001612e8f612ee1946128a7565b92612e9c84885111612b1d565b018051612eb4906001600160f81b0319161515612b97565b518260031b610100031c94612ecb60378711612c0a565b51612ed68684611461565b10612c7b565b611453565b9190600090565b60f78211612f0e5750612efd612f0691612898565b80935111612aaa565b600191908290565b612edc6001612f1f612f6c94612889565b92612f2c848851116128e1565b018051612f44906001600160f81b0319161515612957565b518260031b610100031c94612f5b603787116129c8565b51612f668684611461565b10612a37565b9190600190565b60408051909190612f848382610565565b6001815291601f1901366020840137565b60405190612fa4602083610565565b6000808352366020840137565b90612fbb826105cc565b612fc86040519182610565565b8281528092612fd9601f19916105cc565b0190602036910137565b9190612fee81612fb1565b92811561302d5781906000905b82821061301657501161300b5750565b602060009184010152565b915080602091830151828288010152018291612ffb565b5050565b9291909261303e82612fb1565b93821561307b5781018091116114295781906000905b82821061306457501161300b5750565b915080602091830151828288010152018291613054565b505050565b811561308a570490565b634e487b7160e01b600052601260045260246000fd5b60001981146114295760010190565b60ff60379116019060ff821161142957565b9060ff8091169116019060ff821161142957565b601f8111611429576101000a90565b9060388210156131165761310761235c60c060ff613100612f73565b95166130c1565b60001a613113836122f8565b53565b60019160005b6131268483613080565b1561313d576123ac613137916130a0565b9261311c565b90925061314c6123ca82611445565b9261316161235c6123e460c060ff86166130c1565b60001a61316d856122f8565b5360015b8281111561317e57505050565b8061244261235c61243c61243c61243661243161319b978a6128d4565b613171565b90813b1561322557600080516020613f6883398151915280546001600160a01b0319166001600160a01b0384169081179091557fbc7cd75a20ee27fd9adebab32041f755214dbc6bffa90cc0225b39da2e5c2d3b600080a280511561320b5761320891613327565b50565b50503461321457565b63b398979f60e01b60005260046000fd5b50634c9c8ce360e01b60009081526001600160a01b0391909116600452602490fd5b60208151910120604051906020820152602081526103cf604082610565565b908151156132ef576000805b835182101561329b5761329360019161328b84876114fe565b515190611461565b910190613272565b6132a59150612fb1565b60009290602081015b82518510156132e9576132e16001916132d76132ca88876114fe565b5160208151910183613b7c565b61328b87866114fe565b9401936132ae565b50925050565b90506103cf612f95565b60ff600080516020613f888339815191525460401c161561331657565b631afcd79f60e31b60005260046000fd5b6000806103cf93602081519101845af43d15613365573d91613348836105cc565b926133566040519485610565565b83523d6000602085013e613bd2565b606091613bd2565b1561337457565b60405162461bcd60e51b81526020600482015260156024820152744d65726b6c65547269653a20656d707479206b657960581b6044820152606490fd5b156133b857565b60405162461bcd60e51b815260206004820152602e60248201527f4d65726b6c65547269653a206b657920696e646578206578636565647320746f60448201526d0e8c2d840d6caf240d8cadccee8d60931b6064820152608490fd5b1561341b57565b60405162461bcd60e51b815260206004820152602660248201527f4d65726b6c65547269653a20696e76616c696420696e7465726e616c206e6f646044820152650ca40d0c2e6d60d31b6064820152608490fd5b1561347657565b60405162461bcd60e51b815260206004820152602760248201527f4d65726b6c65547269653a20696e76616c6964206c6172676520696e7465726e6044820152660c2d840d0c2e6d60cb1b6064820152608490fd5b156134d257565b60405162461bcd60e51b815260206004820152601d60248201527f4d65726b6c65547269653a20696e76616c696420726f6f7420686173680000006044820152606490fd5b60ff166002039060ff821161142957565b1561352f57565b60405162461bcd60e51b815260206004820152603a60248201527f4d65726b6c65547269653a20706174682072656d61696e646572206d7573742060448201527f736861726520616c6c206e6962626c65732077697468206b65790000000000006064820152608490fd5b156135a157565b60405162461bcd60e51b815260206004820152603d60248201527f4d65726b6c65547269653a206b65792072656d61696e646572206d757374206260448201527f65206964656e746963616c20746f20706174682072656d61696e6465720000006064820152608490fd5b1561361357565b60405162461bcd60e51b815260206004820152603960248201527f4d65726b6c65547269653a2076616c7565206c656e677468206d75737420626560448201527f2067726561746572207468616e207a65726f20286c65616629000000000000006064820152608490fd5b1561368557565b60405162461bcd60e51b815260206004820152603860248201527f4d65726b6c65547269653a2076616c7565206e6f6465206d757374206265206c60448201527f617374206e6f646520696e2070726f6f6620286c6561662900000000000000006064820152608490fd5b156136f757565b60405162461bcd60e51b815260206004820152603b60248201527f4d65726b6c65547269653a2076616c7565206c656e677468206d75737420626560448201527f2067726561746572207468616e207a65726f20286272616e63682900000000006064820152608490fd5b1561376957565b60405162461bcd60e51b815260206004820152603a60248201527f4d65726b6c65547269653a2076616c7565206e6f6465206d757374206265206c60448201527f617374206e6f646520696e2070726f6f6620286272616e6368290000000000006064820152608490fd5b919061380e6137fa6137f4611a18936137ef8751151561336d565b613c33565b94613cec565b926040519283916020830160209181520190565b600080926011905b8551851015613b295761382985876114fe565b519361383882518511156133b1565b83613ad15761387961387e91611a186138668851602081519101206040519283916020830160209181520190565b6020815191012090602081519101201490565b6134cb565b602084019382855151146000146139205750805183036138c857505050906138c26138af610bb16103cf94516114ed565b936138bc855115156136f0565b516128c5565b14613762565b9193909261391461390e61390860019360ff6138fe6138f86138ea8c8b612305565b516001600160f81b03191690565b60f81c90565b91519116906114fe565b51613e85565b95611445565b915b0193929091613816565b6002859695949294515114600014613a7b5761393b90613d3f565b9161396461394e6138f86138ea866122f8565b9361395e61243c60018716613517565b90613d5f565b9360ff6139718483613d5f565b9461398861397f8789613e1a565b80985114613528565b16600281148015613a71575b156139cf5750505050610bb16103cf946139b66139c9946139bc94511461359a565b516114dd565b936138bc8551151561360c565b1461367e565b80919593979296945015908115613a66575b5015613a06576001916139fa613908613a0093516114dd565b96611461565b91613916565b60405162461bcd60e51b815260206004820152603260248201527f4d65726b6c65547269653a2072656365697665642061206e6f64652077697468604482015271040c2dc40eadcd6dcdeeedc40e0e4caccd2f60731b6064820152608490fd5b6001915014386139e1565b5060038114613994565b60405162461bcd60e51b815260206004820152602860248201527f4d65726b6c65547269653a20726563656976656420616e20756e706172736561604482015267626c65206e6f646560c01b6064820152608490fd5b84518051602011613b105750613b06613b0b91611a186138668851602081519101206040519283916020830160209181520190565b61346f565b61387e565b805160209182012082519190920120613b0b9114613414565b60405162461bcd60e51b815260206004820152602560248201527f4d65726b6c65547269653a2072616e206f7574206f662070726f6f6620656c656044820152646d656e747360d81b6064820152608490fd5b915b6020811015613ba257600019906020036101000a0190811990511690825116179052565b909182518152602081018091116114295791602081018091116114295790601f19810190811115613b7e576113fd565b90613bf85750805115613be757805190602001fd5b630a12f52160e11b60005260046000fd5b81511580613c2a575b613c09575090565b639996b31560e01b60009081526001600160a01b0391909116600452602490fd5b50803b15613c01565b908151613c3f816105b5565b613c4c6040519182610565565b818152601f19613c5b836105b5565b0160005b818110613cc7575050809360005b838110613c7a5750505050565b80613c87600192846114fe565b51613c9b613c9583866114fe565b516120b3565b613ca36105a6565b9182526020820152613cb582866114fe565b52613cc081856114fe565b5001613c6d565b602090604051613cd68161054a565b6060815260608382015282828601015201613c5f565b604051908051908160011b603f8101601f19168401604052835260005b828110613d165750505090565b80600191821b85016021600f6020848701015160001a8060041c60208501531691015301613d09565b602001518051156114b857613d5a60206103cf920151612252565b613cec565b908151811015613e0357815181810390808211611429578290613d8783601f81011015613eaa565b613da2838301613d9984821015613eaa565b86511015613ee7565b03613dbb57505050604051600081526020810160405290565b60405192601f821692831560051b80858701019484860193010101905b808410613df05750508252601f01601f191660405290565b9092602080918551815201930190613dd8565b5050604051613e13602082610565565b6000815290565b8051825160009493919080821015613e7d5750935b5b84811080613e4c575b15613e4657600101613e30565b93505050565b506001600160f81b0319613e608285612305565b51166001600160f81b0319613e758385612305565b511614613e39565b905093613e2f565b6020815110600014613ea157602081015190516103cf91612fe3565b6103cf90612252565b15613eb157565b60405162461bcd60e51b815260206004820152600e60248201526d736c6963655f6f766572666c6f7760901b6044820152606490fd5b15613eee57565b60405162461bcd60e51b8152602060048201526011602482015270736c6963655f6f75744f66426f756e647360781b6044820152606490fdfe9016d09d72d40fdae2fd8ceac6b6234c7706214fd39c1cd1e609a0528c199300524c505265616465723a206c656e677468206f6620636f6e74656e74206d7573360894a13ba1a3210667c828492db98dca3e2076cc3735a920a3ca505d382bbcf0c57e16840df040f15088dc2f81fe391c3923bec73e23a9662efc9c229c6a00a2646970667358221220e606e275983671b26f1ac490641f686a101033c3d3ad0386538fb0592078d93764736f6c634300081a0033f0c57e16840df040f15088dc2f81fe391c3923bec73e23a9662efc9c229c6a00",
  "linkReferences": {},
  "deployedLinkReferences": {}
}