{
  "_format": "hh-sol-artifact-1",
  "contractName": "Prover",
  "sourceName": "contracts/Prover.sol",
  "abi": [
    {
      "inputs": [
        {
          "components": [
            {
              "internalType": "uint256",
              "name": "chainId",
              "type": "uint256"
            },
            {
              "components": [
                {
                  "internalType": "uint8",
                  "name": "provingMechanism",
                  "type": "uint8"
                },
                {
                  "internalType": "uint256",
                  "name": "settlementChainId",
                  "type": "uint256"
                },
                {
                  "internalType": "address",
                  "name": "settlementContract",
                  "type": "address"
                },
                {
                  "internalType": "address",
                  "name": "blockhashOracle",
                  "type": "address"
                },
                {
                  "internalType": "uint256",
                  "name": "outputRootVersionNumber",
                  "type": "uint256"
                }
              ],
              "internalType": "struct Prover.ChainConfiguration",
              "name": "chainConfiguration",
              "type": "tuple"
            }
          ],
          "internalType": "struct Prover.ChainConfigurationConstructor[]",
          "name": "_chainConfigurations",
          "type": "tuple[]"
        }
      ],
      "stateMutability": "nonpayable",
      "type": "constructor"
    },
    {
      "inputs": [
        {
          "internalType": "uint256",
          "name": "_inputBlockNumber",
          "type": "uint256"
        },
        {
          "internalType": "uint256",
          "name": "_latestBlockNumber",
          "type": "uint256"
        }
      ],
      "name": "OutdatedBlock",
      "type": "error"
    },
    {
      "anonymous": false,
      "inputs": [
        {
          "indexed": true,
          "internalType": "bytes32",
          "name": "_hash",
          "type": "bytes32"
        },
        {
          "indexed": true,
          "internalType": "address",
          "name": "_claimant",
          "type": "address"
        }
      ],
      "name": "IntentProven",
      "type": "event"
    },
    {
      "anonymous": false,
      "inputs": [
        {
          "indexed": true,
          "internalType": "uint256",
          "name": "_blockNumber",
          "type": "uint256"
        },
        {
          "indexed": false,
          "internalType": "bytes32",
          "name": "_L1WorldStateRoot",
          "type": "bytes32"
        }
      ],
      "name": "L1WorldStateProven",
      "type": "event"
    },
    {
      "anonymous": false,
      "inputs": [
        {
          "indexed": true,
          "internalType": "uint256",
          "name": "_destinationChainID",
          "type": "uint256"
        },
        {
          "indexed": true,
          "internalType": "uint256",
          "name": "_blockNumber",
          "type": "uint256"
        },
        {
          "indexed": false,
          "internalType": "bytes32",
          "name": "_L2WorldStateRoot",
          "type": "bytes32"
        }
      ],
      "name": "L2WorldStateProven",
      "type": "event"
    },
    {
      "inputs": [],
      "name": "L2_DISPUTE_GAME_FACTORY_LIST_SLOT_NUMBER",
      "outputs": [
        {
          "internalType": "uint256",
          "name": "",
          "type": "uint256"
        }
      ],
      "stateMutability": "view",
      "type": "function"
    },
    {
      "inputs": [],
      "name": "L2_FAULT_DISPUTE_GAME_ROOT_CLAIM_SLOT",
      "outputs": [
        {
          "internalType": "uint256",
          "name": "",
          "type": "uint256"
        }
      ],
      "stateMutability": "view",
      "type": "function"
    },
    {
      "inputs": [],
      "name": "L2_FAULT_DISPUTE_GAME_STATUS_SLOT",
      "outputs": [
        {
          "internalType": "uint256",
          "name": "",
          "type": "uint256"
        }
      ],
      "stateMutability": "view",
      "type": "function"
    },
    {
      "inputs": [],
      "name": "L2_OUTPUT_ROOT_VERSION_NUMBER",
      "outputs": [
        {
          "internalType": "uint256",
          "name": "",
          "type": "uint256"
        }
      ],
      "stateMutability": "view",
      "type": "function"
    },
    {
      "inputs": [],
      "name": "L2_OUTPUT_SLOT_NUMBER",
      "outputs": [
        {
          "internalType": "uint256",
          "name": "",
          "type": "uint256"
        }
      ],
      "stateMutability": "view",
      "type": "function"
    },
    {
      "inputs": [
        {
          "internalType": "uint64",
          "name": "createdAt",
          "type": "uint64"
        },
        {
          "internalType": "uint64",
          "name": "resolvedAt",
          "type": "uint64"
        },
        {
          "internalType": "uint8",
          "name": "gameStatus",
          "type": "uint8"
        },
        {
          "internalType": "bool",
          "name": "initialized",
          "type": "bool"
        },
        {
          "internalType": "bool",
          "name": "l2BlockNumberChallenged",
          "type": "bool"
        }
      ],
      "name": "assembleGameStatusStorage",
      "outputs": [
        {
          "internalType": "bytes",
          "name": "gameStatusStorageSlotRLP",
          "type": "bytes"
        }
      ],
      "stateMutability": "pure",
      "type": "function"
    },
    {
      "inputs": [
        {
          "internalType": "uint256",
          "name": "",
          "type": "uint256"
        }
      ],
      "name": "chainConfigurations",
      "outputs": [
        {
          "internalType": "uint8",
          "name": "provingMechanism",
          "type": "uint8"
        },
        {
          "internalType": "uint256",
          "name": "settlementChainId",
          "type": "uint256"
        },
        {
          "internalType": "address",
          "name": "settlementContract",
          "type": "address"
        },
        {
          "internalType": "address",
          "name": "blockhashOracle",
          "type": "address"
        },
        {
          "internalType": "uint256",
          "name": "outputRootVersionNumber",
          "type": "uint256"
        }
      ],
      "stateMutability": "view",
      "type": "function"
    },
    {
      "inputs": [
        {
          "internalType": "bytes32",
          "name": "rootClaim",
          "type": "bytes32"
        },
        {
          "internalType": "address",
          "name": "faultDisputeGameProxyAddress",
          "type": "address"
        },
        {
          "components": [
            {
              "internalType": "bytes32",
              "name": "faultDisputeGameStateRoot",
              "type": "bytes32"
            },
            {
              "internalType": "bytes[]",
              "name": "faultDisputeGameRootClaimStorageProof",
              "type": "bytes[]"
            },
            {
              "components": [
                {
                  "internalType": "uint64",
                  "name": "createdAt",
                  "type": "uint64"
                },
                {
                  "internalType": "uint64",
                  "name": "resolvedAt",
                  "type": "uint64"
                },
                {
                  "internalType": "uint8",
                  "name": "gameStatus",
                  "type": "uint8"
                },
                {
                  "internalType": "bool",
                  "name": "initialized",
                  "type": "bool"
                },
                {
                  "internalType": "bool",
                  "name": "l2BlockNumberChallenged",
                  "type": "bool"
                }
              ],
              "internalType": "struct Prover.FaultDisputeGameStatusSlotData",
              "name": "faultDisputeGameStatusSlotData",
              "type": "tuple"
            },
            {
              "internalType": "bytes[]",
              "name": "faultDisputeGameStatusStorageProof",
              "type": "bytes[]"
            },
            {
              "internalType": "bytes",
              "name": "rlpEncodedFaultDisputeGameData",
              "type": "bytes"
            },
            {
              "internalType": "bytes[]",
              "name": "faultDisputeGameAccountProof",
              "type": "bytes[]"
            }
          ],
          "internalType": "struct Prover.FaultDisputeGameProofData",
          "name": "faultDisputeGameProofData",
          "type": "tuple"
        },
        {
          "internalType": "bytes32",
          "name": "l1WorldStateRoot",
          "type": "bytes32"
        }
      ],
      "name": "faultDisputeGameIsResolved",
      "outputs": [],
      "stateMutability": "pure",
      "type": "function"
    },
    {
      "inputs": [
        {
          "internalType": "uint256",
          "name": "version",
          "type": "uint256"
        },
        {
          "internalType": "bytes32",
          "name": "worldStateRoot",
          "type": "bytes32"
        },
        {
          "internalType": "bytes32",
          "name": "messagePasserStateRoot",
          "type": "bytes32"
        },
        {
          "internalType": "bytes32",
          "name": "latestBlockHash",
          "type": "bytes32"
        }
      ],
      "name": "generateOutputRoot",
      "outputs": [
        {
          "internalType": "bytes32",
          "name": "",
          "type": "bytes32"
        }
      ],
      "stateMutability": "pure",
      "type": "function"
    },
    {
      "inputs": [],
      "name": "l1BlockhashOracle",
      "outputs": [
        {
          "internalType": "contract IL1Block",
          "name": "",
          "type": "address"
        }
      ],
      "stateMutability": "view",
      "type": "function"
    },
    {
      "inputs": [
        {
          "internalType": "uint32",
          "name": "_gameType",
          "type": "uint32"
        },
        {
          "internalType": "uint64",
          "name": "_timestamp",
          "type": "uint64"
        },
        {
          "internalType": "address",
          "name": "_gameProxy",
          "type": "address"
        }
      ],
      "name": "pack",
      "outputs": [
        {
          "internalType": "bytes32",
          "name": "gameId_",
          "type": "bytes32"
        }
      ],
      "stateMutability": "pure",
      "type": "function"
    },
    {
      "inputs": [
        {
          "internalType": "bytes",
          "name": "_address",
          "type": "bytes"
        },
        {
          "internalType": "bytes",
          "name": "_data",
          "type": "bytes"
        },
        {
          "internalType": "bytes[]",
          "name": "_proof",
          "type": "bytes[]"
        },
        {
          "internalType": "bytes32",
          "name": "_root",
          "type": "bytes32"
        }
      ],
      "name": "proveAccount",
      "outputs": [],
      "stateMutability": "pure",
      "type": "function"
    },
    {
      "inputs": [
        {
          "internalType": "uint256",
          "name": "chainId",
          "type": "uint256"
        },
        {
          "internalType": "address",
          "name": "claimant",
          "type": "address"
        },
        {
          "internalType": "address",
          "name": "inboxContract",
          "type": "address"
        },
        {
          "internalType": "bytes32",
          "name": "intermediateHash",
          "type": "bytes32"
        },
        {
          "internalType": "bytes[]",
          "name": "l2StorageProof",
          "type": "bytes[]"
        },
        {
          "internalType": "bytes",
          "name": "rlpEncodedInboxData",
          "type": "bytes"
        },
        {
          "internalType": "bytes[]",
          "name": "l2AccountProof",
          "type": "bytes[]"
        },
        {
          "internalType": "bytes32",
          "name": "l2WorldStateRoot",
          "type": "bytes32"
        }
      ],
      "name": "proveIntent",
      "outputs": [],
      "stateMutability": "nonpayable",
      "type": "function"
    },
    {
      "inputs": [
        {
          "internalType": "bytes",
          "name": "rlpEncodedBlockData",
          "type": "bytes"
        }
      ],
      "name": "proveSettlementLayerState",
      "outputs": [],
      "stateMutability": "nonpayable",
      "type": "function"
    },
    {
      "inputs": [
        {
          "internalType": "bytes",
          "name": "_key",
          "type": "bytes"
        },
        {
          "internalType": "bytes",
          "name": "_val",
          "type": "bytes"
        },
        {
          "internalType": "bytes[]",
          "name": "_proof",
          "type": "bytes[]"
        },
        {
          "internalType": "bytes32",
          "name": "_root",
          "type": "bytes32"
        }
      ],
      "name": "proveStorage",
      "outputs": [],
      "stateMutability": "pure",
      "type": "function"
    },
    {
      "inputs": [
        {
          "internalType": "uint256",
          "name": "chainId",
          "type": "uint256"
        },
        {
          "internalType": "bytes",
          "name": "rlpEncodedBlockData",
          "type": "bytes"
        },
        {
          "internalType": "bytes32",
          "name": "l2WorldStateRoot",
          "type": "bytes32"
        },
        {
          "internalType": "bytes32",
          "name": "l2MessagePasserStateRoot",
          "type": "bytes32"
        },
        {
          "internalType": "uint256",
          "name": "l2OutputIndex",
          "type": "uint256"
        },
        {
          "internalType": "bytes[]",
          "name": "l1StorageProof",
          "type": "bytes[]"
        },
        {
          "internalType": "bytes",
          "name": "rlpEncodedOutputOracleData",
          "type": "bytes"
        },
        {
          "internalType": "bytes[]",
          "name": "l1AccountProof",
          "type": "bytes[]"
        },
        {
          "internalType": "bytes32",
          "name": "l1WorldStateRoot",
          "type": "bytes32"
        }
      ],
      "name": "proveWorldStateBedrock",
      "outputs": [],
      "stateMutability": "nonpayable",
      "type": "function"
    },
    {
      "inputs": [
        {
          "internalType": "uint256",
          "name": "chainId",
          "type": "uint256"
        },
        {
          "internalType": "bytes",
          "name": "rlpEncodedBlockData",
          "type": "bytes"
        },
        {
          "internalType": "bytes32",
          "name": "l2WorldStateRoot",
          "type": "bytes32"
        },
        {
          "components": [
            {
              "internalType": "bytes32",
              "name": "messagePasserStateRoot",
              "type": "bytes32"
            },
            {
              "internalType": "bytes32",
              "name": "latestBlockHash",
              "type": "bytes32"
            },
            {
              "internalType": "uint256",
              "name": "gameIndex",
              "type": "uint256"
            },
            {
              "internalType": "bytes32",
              "name": "gameId",
              "type": "bytes32"
            },
            {
              "internalType": "bytes[]",
              "name": "disputeFaultGameStorageProof",
              "type": "bytes[]"
            },
            {
              "internalType": "bytes",
              "name": "rlpEncodedDisputeGameFactoryData",
              "type": "bytes"
            },
            {
              "internalType": "bytes[]",
              "name": "disputeGameFactoryAccountProof",
              "type": "bytes[]"
            }
          ],
          "internalType": "struct Prover.DisputeGameFactoryProofData",
          "name": "disputeGameFactoryProofData",
          "type": "tuple"
        },
        {
          "components": [
            {
              "internalType": "bytes32",
              "name": "faultDisputeGameStateRoot",
              "type": "bytes32"
            },
            {
              "internalType": "bytes[]",
              "name": "faultDisputeGameRootClaimStorageProof",
              "type": "bytes[]"
            },
            {
              "components": [
                {
                  "internalType": "uint64",
                  "name": "createdAt",
                  "type": "uint64"
                },
                {
                  "internalType": "uint64",
                  "name": "resolvedAt",
                  "type": "uint64"
                },
                {
                  "internalType": "uint8",
                  "name": "gameStatus",
                  "type": "uint8"
                },
                {
                  "internalType": "bool",
                  "name": "initialized",
                  "type": "bool"
                },
                {
                  "internalType": "bool",
                  "name": "l2BlockNumberChallenged",
                  "type": "bool"
                }
              ],
              "internalType": "struct Prover.FaultDisputeGameStatusSlotData",
              "name": "faultDisputeGameStatusSlotData",
              "type": "tuple"
            },
            {
              "internalType": "bytes[]",
              "name": "faultDisputeGameStatusStorageProof",
              "type": "bytes[]"
            },
            {
              "internalType": "bytes",
              "name": "rlpEncodedFaultDisputeGameData",
              "type": "bytes"
            },
            {
              "internalType": "bytes[]",
              "name": "faultDisputeGameAccountProof",
              "type": "bytes[]"
            }
          ],
          "internalType": "struct Prover.FaultDisputeGameProofData",
          "name": "faultDisputeGameProofData",
          "type": "tuple"
        },
        {
          "internalType": "bytes32",
          "name": "l1WorldStateRoot",
          "type": "bytes32"
        }
      ],
      "name": "proveWorldStateCannon",
      "outputs": [],
      "stateMutability": "nonpayable",
      "type": "function"
    },
    {
      "inputs": [
        {
          "internalType": "bytes32",
          "name": "",
          "type": "bytes32"
        }
      ],
      "name": "provenIntents",
      "outputs": [
        {
          "internalType": "address",
          "name": "",
          "type": "address"
        }
      ],
      "stateMutability": "view",
      "type": "function"
    },
    {
      "inputs": [
        {
          "internalType": "uint256",
          "name": "",
          "type": "uint256"
        }
      ],
      "name": "provenStates",
      "outputs": [
        {
          "internalType": "uint256",
          "name": "blockNumber",
          "type": "uint256"
        },
        {
          "internalType": "bytes32",
          "name": "blockHash",
          "type": "bytes32"
        },
        {
          "internalType": "bytes32",
          "name": "stateRoot",
          "type": "bytes32"
        }
      ],
      "stateMutability": "view",
      "type": "function"
    },
    {
      "inputs": [
        {
          "internalType": "bytes[]",
          "name": "dataList",
          "type": "bytes[]"
        }
      ],
      "name": "rlpEncodeDataLibList",
      "outputs": [
        {
          "internalType": "bytes",
          "name": "",
          "type": "bytes"
        }
      ],
      "stateMutability": "pure",
      "type": "function"
    },
    {
      "inputs": [
        {
          "internalType": "bytes32",
          "name": "_gameId",
          "type": "bytes32"
        }
      ],
      "name": "unpack",
      "outputs": [
        {
          "internalType": "uint32",
          "name": "gameType_",
          "type": "uint32"
        },
        {
          "internalType": "uint64",
          "name": "timestamp_",
          "type": "uint64"
        },
        {
          "internalType": "address",
          "name": "gameProxy_",
          "type": "address"
        }
      ],
      "stateMutability": "pure",
      "type": "function"
    }
  ],
  "bytecode": "0x6080604052346101f157613baa803803806100198161020c565b9283398101906020818303126101f1578051906001600160401b0382116101f1570181601f820112156101f1578051906001600160401b0382116101f65761006660208360051b0161020c565b92602060c08186868152019402830101918183116101f157602001925b82841061013f578460005b815181101561013057806100a460019284610245565b515160206100b28386610245565b5101516000918252600260208181526040938490208351815460ff90911660ff19909116178155908301518682015592820151908301805460a087901b87900392831683199182161790915560608301516003850180549190931690821681179092556080909201516004909301929092558354161782550161008e565b60405161393a90816102708239f35b83820360c081126101f1576040805191908201906001600160401b038211838310176101f65760a09160405286518352601f1901126101f1576040519160a083016001600160401b038111848210176101f65760405260208601519160ff831683036101f1578360209360c095526040880151848201526101c260608901610231565b60408201526101d360808901610231565b606082015260a0880151608082015283820152815201930192610083565b600080fd5b634e487b7160e01b600052604160045260246000fd5b6040519190601f01601f191682016001600160401b038111838210176101f657604052565b51906001600160a01b03821682036101f157565b80518210156102595760209160051b010190565b634e487b7160e01b600052603260045260246000fdfe6080604052600436101561001257600080fd5b60003560e01c806304bfb8d014610162578063362db8571461015d5780633988d311146101585780633b4c49c0146101535780633bb796181461014e57806349405273146101495780634cd4f84814610144578063508706dc1461012b57806354a291361461013f57806359d389511461013a57806371516dd914610135578063848e9abb14610130578063867b5dd71461012b57806390cba45914610126578063914c73b61461012157806399d145b21461011c578063a1ff435714610117578063a48d72fa14610112578063b9d8ac261461010d578063f6771603146101085763ff873c4b1461010357600080fd5b610d78565b610d4f565b610c8a565b610bef565b610bd5565b610ba1565b610b85565b61098e565b6107f2565b610974565b6108be565b610877565b61080e565b610769565b61071f565b6103d4565b6103b8565b61034c565b61027c565b6101c9565b9181601f84011215610194578235916001600160401b038311610194576020838186019501011161019457565b600080fd5b9181601f84011215610194578235916001600160401b038311610194576020808501948460051b01011161019457565b3461019457610120366003190112610194576004356024356001600160401b038111610194576101fd903690600401610167565b604435929160843560643560a4356001600160401b03811161019457610227903690600401610199565b9060c4356001600160401b03811161019457610247903690600401610167565b94909360e435996001600160401b038b116101945761026d61027a9b3690600401610199565b999098610104359b611081565b005b346101945760003660031901126101945760206040517f405787fa12a823e0f2b7631cc41b3ba8828b3321ca811111fa75cd3aa3bb5ad18152f35b602435906001600160401b038216820361019457565b35906001600160401b038216820361019457565b60843590811515820361019457565b3590811515820361019457565b60005b8381106103105750506000910152565b8181015183820152602001610300565b6040916020825261034081518092816020860152602086860191016102fd565b601f01601f1916010190565b346101945760a0366003190112610194576004356001600160401b0381168103610194576103786102b7565b6044359160ff83168303610194576064358015158103610194576103b4936103a8936103a26102e1565b93611359565b60405191829182610320565b0390f35b3461019457600036600319011261019457602060405160688152f35b3461019457602036600319011261019457600435600052600360205260606040600020805490600260018201549101549060405192835260208301526040820152f35b602435906001600160a01b038216820361019457565b604435906001600160a01b038216820361019457565b634e487b7160e01b600052604160045260246000fd5b60a081019081106001600160401b0382111761047457604052565b610443565b604081019081106001600160401b0382111761047457604052565b90601f801991011681019081106001600160401b0382111761047457604052565b604051906104c460c083610494565b565b604051906104c4606083610494565b604051906104c4604083610494565b6001600160401b0381116104745760051b60200190565b6001600160401b03811161047457601f01601f191660200190565b929192610522826104fb565b916105306040519384610494565b829481845281830111610194578281602093846000960137010152565b9080601f830112156101945781602061056893359101610516565b90565b929190610577816104e4565b936105856040519586610494565b602085838152019160051b8101918383116101945781905b8382106105ab575050505050565b81356001600160401b038111610194576020916105cb878493870161054d565b81520191019061059d565b9080601f83011215610194578160206105689335910161056b565b91908260a09103126101945760405161060981610459565b8092610614816102cd565b8252610622602082016102cd565b602083015260408101359060ff8216820361019457608061065b9181936040860152610650606082016102f0565b6060860152016102f0565b910152565b91909161014081840312610194576106766104b5565b928135845260208201356001600160401b038111610194578161069a9184016105d6565b60208501526106ac81604084016105f1565b604085015260e08201356001600160401b03811161019457816106d09184016105d6565b60608501526101008201356001600160401b03811161019457816106f591840161054d565b60808501526101208201356001600160401b0381116101945761071892016105d6565b60a0830152565b346101945760803660031901126101945760043561073b610417565b90604435916001600160401b0383116101945761075f61027a933690600401610660565b9060643592611594565b346101945760c0366003190112610194576004356024356001600160401b0381116101945761079c903690600401610167565b9160643591906044356001600160401b0384116101945760e0600319853603011261019457608435946001600160401b038611610194576107e461027a963690600401610660565b9360a43595600401936116e5565b3461019457600036600319011261019457602060405160008152f35b3461019457602036600319011261019457600435600052600260205260a0604060002060ff81541690600181015490600180851b036002820154166004600180871b03600384015416920154926040519485526020850152604084015260608301526080820152f35b346101945760603660031901126101945760043563ffffffff81168103610194576020906108a36102b7565b906108ac61042d565b906040519260a01b9060e01b17178152f35b34610194576020366003190112610194576040805160043560e081901c825260a081901c6001600160401b031660208301526001600160a01b031691810191909152606090f35b6080600319820112610194576004356001600160401b038111610194578161092f9160040161054d565b916024356001600160401b038111610194578261094e9160040161054d565b91604435906001600160401b0382116101945761096d916004016105d6565b9060643590565b346101945761027a61098536610905565b9291909161179e565b34610194576020366003190112610194576004356001600160401b038111610194576109be903690600401610167565b9060046109cc368484610516565b80516020918201206001549091906001600160a01b0316604051624dead360e51b815293849182905afa908115610b8057610a1092600092610b4f575b5014611830565b6001610a26466000526002602052604060002090565b0154610a88610a83610a58610a7e610a4e610a63610a5e610a58610a53610a4e368d8d610516565b611b5d565b610f6a565b51611cfc565b611e18565b96610a6f368a83610516565b60208151910120983691610516565b610f80565b610f31565b92610a916104c6565b928352602083015260408201928352610abc610ab7826000526003602052604060002090565b610e16565b51825180821015610b3857847fe7c32f66db8f545c384c1cc1ab188c2cc54fb6c2207477d3b141104ce9529dce610b3386610b2081610b05896000526003602052604060002090565b90604060029180518455602081015160018501550151910155565b5192516040519081529081906020820190565b0390a2005b63acf487e560e01b60005260045260245260446000fd5b610b7291925060203d602011610b79575b610b6a8183610494565b810190611815565b9038610a09565b503d610b60565b611824565b3461019457600036600319011261019457602060405160038152f35b34610194576020366003190112610194576004356000526000602052602060018060a01b0360406000205416604051908152f35b346101945761027a610be636610905565b9291909161187c565b346101945761010036600319011261019457600435610c0c610417565b90610c1561042d565b606435926084356001600160401b03811161019457610c38903690600401610199565b9060a4356001600160401b03811161019457610c58903690600401610167565b92909160c435976001600160401b03891161019457610c7e61027a993690600401610199565b97909660e43599611968565b34610194576020366003190112610194576004356001600160401b03811161019457610cba9036906004016105d6565b60005b8151811015610cf85780610cdc610cd660019385610fc1565b51611e8a565b610ce68285610fc1565b52610cf18184610fc1565b5001610cbd565b6103b4610d0483612cf8565b6103a8610d118251612c1d565b60206040519382610d2b86945180928580880191016102fd565b8301610d3f825180938580850191016102fd565b010103601f198101835282610494565b34610194576000366003190112610194576001546040516001600160a01b039091168152602090f35b34610194576080366003190112610194576020600435602435604435606435906040519285840194855260408401526060830152608082015260808152610dc060a082610494565b519020604051908152f35b90604051610dd881610459565b825460ff1681526001830154602082015260028301546001600160a01b03908116604083015260038401541660608201526004909201546080830152565b90604051606081018181106001600160401b038211176104745760405260406002829480548452600181015460208501520154910152565b15610e5557565b60405162461bcd60e51b815260206004820152602a60248201527f736574746c656d656e7420636861696e20737461746520726f6f74206e6f74206044820152691e595d081c1c9bdd995960b21b6064820152608490fd5b634e487b7160e01b600052601160045260246000fd5b908160011b9180830460021490151715610ed957565b610ead565b908160081b918083046101001490151715610ed957565b81810292918115918404141715610ed957565b9060018201809211610ed957565b6001019081600111610ed957565b91908201809211610ed957565b602081519101519060208110610f45575090565b6000199060200360031b1b1690565b634e487b7160e01b600052603260045260246000fd5b805160081015610f7b576101200190565b610f54565b805160031015610f7b5760800190565b805160021015610f7b5760600190565b805160011015610f7b5760400190565b805160101015610f7b576102200190565b8051821015610f7b5760209160051b010190565b15610fdc57565b60405162461bcd60e51b815260206004820152602760248201527f636f6e747261637420737461746520726f6f7420696e636f72726563746c7920604482015266195b98dbd9195960ca1b6064820152608490fd5b90611044602092828151948592016102fd565b0190565b906104c460216040518094600560fd1b602083015261107081518092602086860191016102fd565b81010301601f198101845283610494565b9a9591989793929b969099948c6110a28d6000526002602052604060002090565b6110ab90610dcb565b948960208701516110c6906000526003602052604060002090565b6110cf90610e16565b60400151146110dd90610e4e565b6110e8368d8f610516565b80519060200120906110f992611b2b565b9060405160208101908061111283906003602083019252565b03601f19810182526111249082610494565b5190209061113190610ec3565b61113a91610f24565b6040518091602082019061115090602083019252565b03601f19810182526111629082610494565b61116b90610f31565b92611177368b88610516565b61118090611b5d565b61118990610f90565b5161119390611cfc565b918251602010156111a390610fd5565b604080516020808201979097529586526111bd9086610494565b604080516020808201939093529182526111d79082610494565b6111e090611048565b916111ea90610f31565b9236906111f69261056b565b906112009361179e565b604090810151905160609190911b6001600160601b0319166020820152601481529461122d603487610494565b369061123892610516565b9136906112449261056b565b9061124e9361187c565b611262836000526003602052604060002090565b61126b90610e16565b91611277368383610516565b61128090611b5d565b61128990610f6a565b5161129390611cfc565b61129c90611e18565b9136906112a892610516565b80519060200120916112b86104c6565b92828452602084015260408301948552519080821060001461132b575050611326816113137f1b2eb3bd40a31077e07e65f6e39a64744149e65c101fc943f28024f9928448a993610b05866000526003602052604060002090565b5193516040519081529081906020820190565b0390a3565b925080935082915011610b38575050565b906104c460206040518461107082965180928580860191016102fd565b92939291831561146d5760405193151560f81b602085015260018452611380602185610494565b60405194151560f81b60208601526001855261139d602186610494565b60405160f89190911b6001600160f81b0319166020820152600181526113c4602182610494565b60405160c09290921b6001600160c01b0319166020830152600882526113eb602883610494565b60405160c09390931b6001600160c01b031916602084015260088352611412602884610494565b6040519485946020860161142591611031565b61142e91611031565b61143791611031565b61144091611031565b61144991611031565b03601f198101825261145b9082610494565b61146490611e8a565b6105689061133c565b6115439350936115306114ea61152a6114ea61152a6114ea61151a61152a996114f861153e9a6114f86105689f6114c86114ba6040519e8f91829160208301600191151560f81b81520190565b0390601f1982018152610494565b60405160f89190911b6001600160f81b03191660208201529586906021820190565b03601f198101875286610494565b60405160c09190911b6001600160c01b03191660208201529586906028820190565b6040519889976020890190611031565b90611031565b03601f198101835282610494565b611e8a565b61133c565b1561154f57565b60405162461bcd60e51b815260206004820152601d60248201527f6661756c744469737075746547616d65206e6f74207265736f6c7665640000006044820152606490fd5b916116d5611693926116af6116796104c4979661163560408701916115cd600260ff6115c6604087510160ff90511690565b1614611548565b6116276115306116226040519361160f856114ea602082016020907f405787fa12a823e0f2b7631cc41b3ba8828b3321ca811111fa75cd3aa3bb5ad181520190565b6040519283916020830160209181520190565b611048565b60208901519089519261179e565b5180516001600160401b03169061165660208201516001600160401b031690565b604082015160ff16906103a260806116716060860151151590565b940151151590565b604051906116a18261169360208201602090600081520190565b03601f198101845283610494565b60608601519086519261179e565b604051938491602083016014916bffffffffffffffffffffffff199060601b1681520190565b60a060808201519101519161187c565b9461174f8761175494959893968961174a604061171461170f8d6000526002602052604060002090565b610dcb565b61173c8683611734610ab760208601516000526003602052604060002090565b015114610e4e565b01516001600160a01b031690565b6120a6565b611594565b61178e61176e610ab7856000526003602052604060002090565b92611786610a5e610a58610a53610a4e368887610516565b923691610516565b60208151910120916112b86104c6565b926117b591926117b06117c995612cd9565b6131f2565b906020815191012090602081519101201490565b156117d057565b60405162461bcd60e51b815260206004820152601760248201527f6661696c656420746f2070726f76652073746f726167650000000000000000006044820152606490fd5b90816020910312610194575190565b6040513d6000823e3d90fd5b1561183757565b60405162461bcd60e51b815260206004820152601e60248201527f6861736820646f6573206e6f74206d6174636820626c6f636b206461746100006044820152606490fd5b926117b591926117b061188e95612cd9565b1561189557565b60405162461bcd60e51b815260206004820152601760248201527f6661696c656420746f2070726f7665206163636f756e740000000000000000006044820152606490fd5b156118e157565b60405162461bcd60e51b815260206004820152602b60248201527f64657374696e6174696f6e20636861696e20737461746520726f6f74206e6f7460448201526a081e595d081c1c9bdd995960aa1b6064820152608490fd5b604051602560fa1b60208201526001600160601b0319909116602182015260158152906104c4603583610494565b99611987819894929a97959399969b6000526003602052604060002090565b61199090610e16565b604001511461199e906118da565b604080516001600160a01b038a1660208201908152818301939093529081526119c8606082610494565b519020986040516020810190806119ed8d846020600191939293604081019481520152565b03601f19810182526119ff9082610494565b51902091611a0e368587610516565b611a1790611b5d565b611a2090610f90565b51611a2a90611cfc565b90815160201015611a3a90610fd5565b60408051602080820196909652948552611a549085610494565b611a6b60608c901b6001600160601b03191661193a565b91611a7590610f31565b923690611a819261056b565b90611a8b9361179e565b60405160609690961b6001600160601b031916602087015260148652611ab2603487610494565b3690611abd92610516565b913690611ac99261056b565b90611ad39361187c565b80611ae8836000526000602052604060002090565b80546001600160a01b0319166001600160a01b0392831617905516907f2b45193f790d995b36e39c4104dd1b49df6fc851b6f6ae60f2072724735b5b43600080a3565b916040519160208301936000855260408401526060830152608082015260808152611b5760a082610494565b51902090565b90611b66612261565b50611b738251151561227a565b81519160405192611b8384610479565b8352602080840191018152611bb7611bc5611bbd6001611ba287612928565b611bb181979397949294611c73565b146122ff565b83610f24565b855114612371565b611bcd6123d8565b926000915b855180821015611c685790611c5d611c57611c13611bf384611c6396611e0b565b611bfe858a51610f24565b611c066104d5565b9182526020820152612928565b50919096611c218884610f24565b611c2c868b51610f24565b611c346104d5565b9182526020820152611c46828c610fc1565b52611c51818b610fc1565b50610f08565b95610f24565b90610f24565b611bd2565b505093509050815290565b60021115611c7d57565b634e487b7160e01b600052602160045260246000fd5b15611c9a57565b60405162461bcd60e51b815260206004820152603460248201527f524c505265616465723a2062797465732076616c756520636f6e7461696e732060448201527330b71034b73b30b634b2103932b6b0b4b73232b960611b6064820152608490fd5b611d0581612928565b6002819392931015611c7d57611d3757602083611d306105689551611d2a8686610f24565b14611c93565b0151612b6a565b60405162461bcd60e51b815260206004820152603960248201527f524c505265616465723a206465636f646564206974656d207479706520666f7260448201527f206279746573206973206e6f7420612064617461206974656d000000000000006064820152608490fd5b805115610f7b5760200190565b908151811015610f7b570160200190565b60f619810191908211610ed957565b60bf19810191908211610ed957565b60b619810191908211610ed957565b607f19810191908211610ed957565b600019810191908211610ed957565b91908203918211610ed957565b60009190825b8151841015611e8557611e318483611daf565b5160f81c8251600186018611610ed95785810360001901908111610ed9576001600160fd1b0381168103610ed95760031b9160ff8311610ed957611c5d611e7d92600180951b90610ef5565b930192611e1e565b925050565b8051600181149081611fce575b5015611ea05790565b8051906038821015611efe5761152a9161153061056892611ee0611ed0608060ff611ec9612aac565b9616612bfa565b60f81b6001600160f81b03191690565b60001a611eec84611da2565b535b6040519485936020850190611031565b9160019160005b611f0f8483612bb9565b15611f2c57611f20611f2691612bd9565b93610ede565b92611f05565b909250929092611f43611f3e82610f08565b612aea565b92611f5d611ed0611f58608060ff8616612bfa565b612be8565b60001a611f6985611da2565b5360015b82811115611f885750505061152a9161153061056892611eee565b80611fb6611ed0611fb0611fb0611faa611fa5611fc9978a611e0b565b612c0e565b87612bb9565b60ff1690565b60001a611fc38288611daf565b53612bd9565b611f6d565b905015610f7b576080602082015160f81c1038611e97565b604051609d60f81b602082015262ffffff199091166021820152601e8152906104c4603e83610494565b604051601360fb1b602082015267ffffffffffffffff19909116602182015260198152906104c4603983610494565b903590601e198136030182121561019457018035906001600160401b0382116101945760200191813603831361019457565b903590601e198136030182121561019457018035906001600160401b03821161019457602001918160051b3603831361019457565b909392606083013592600384901a60f81b6001600160f81b03191661224f576120d18460401b612010565b955b81356020830135906120e492611b2b565b956040516020810190806120fd83906068602083019252565b03601f198101825261210f9082610494565b519020604083013561212091610f24565b6040518091602082019061213690602083019252565b03601f19810182526121489082610494565b61215190610f31565b60a0830191612160838561203f565b369061216b92610516565b61217490611b5d565b61217d90610f90565b5161218790611cfc565b9081516020101561219790610fd5565b604080516020808201959095529384526121b19084610494565b6121be6080860186612071565b926121c890610f31565b9236906121d49261056b565b906121de9361179e565b60405160609490941b6001600160601b031916602085015260148452612205603485610494565b61220f908261203f565b909160c0810161221e91612071565b929091369061222c92610516565b9136906122389261056b565b906122429361187c565b6001600160a01b03169190565b61225b8460181b611fe6565b956120d3565b6040519061226e82610479565b60006020838281520152565b1561228157565b60405162461bcd60e51b815260206004820152604a60248201527f524c505265616465723a206c656e677468206f6620616e20524c50206974656d60448201527f206d7573742062652067726561746572207468616e207a65726f20746f206265606482015269206465636f6461626c6560b01b608482015260a490fd5b1561230657565b60405162461bcd60e51b815260206004820152603860248201527f524c505265616465723a206465636f646564206974656d207479706520666f7260448201527f206c697374206973206e6f742061206c697374206974656d00000000000000006064820152608490fd5b1561237857565b60405162461bcd60e51b815260206004820152603260248201527f524c505265616465723a206c697374206974656d2068617320616e20696e76616044820152713634b2103230ba30903932b6b0b4b73232b960711b6064820152608490fd5b60405161042091906123ea8382610494565b6020815291601f19018260005b82811061240357505050565b60209061240e612261565b828285010152016123f7565b1561242157565b60405162461bcd60e51b815260206004820152604d60248201526000805160206138e583398151915260448201527f74206265203e207468616e206c656e677468206f66206c697374206c656e677460648201526c6820286c6f6e67206c6973742960981b608482015260a490fd5b1561249757565b60405162461bcd60e51b815260206004820152604860248201526000805160206138e583398151915260448201527f74206e6f74206861766520616e79206c656164696e67207a65726f7320286c6f6064820152676e67206c6973742960c01b608482015260a490fd5b1561250857565b60405162461bcd60e51b815260206004820152604660248201526000805160206138e583398151915260448201527f742062652067726561746572207468616e20353520627974657320286c6f6e67606482015265206c6973742960d01b608482015260a490fd5b1561257757565b60405162461bcd60e51b815260206004820152604a60248201526000805160206138e583398151915260448201527f742062652067726561746572207468616e20746f74616c206c656e67746820286064820152696c6f6e67206c6973742960b01b608482015260a490fd5b156125ea57565b60405162461bcd60e51b815260206004820152604a60248201526000805160206138e583398151915260448201527f742062652067726561746572207468616e206c697374206c656e677468202873606482015269686f7274206c6973742960b01b608482015260a490fd5b1561265d57565b60405162461bcd60e51b815260206004820152605160248201526000805160206138e583398151915260448201527f74206265203e207468616e206c656e677468206f6620737472696e67206c656e60648201527067746820286c6f6e6720737472696e672960781b608482015260a490fd5b156126d757565b60405162461bcd60e51b815260206004820152604a60248201526000805160206138e583398151915260448201527f74206e6f74206861766520616e79206c656164696e67207a65726f7320286c6f6064820152696e6720737472696e672960b01b608482015260a490fd5b1561274a57565b60405162461bcd60e51b815260206004820152604860248201526000805160206138e583398151915260448201527f742062652067726561746572207468616e20353520627974657320286c6f6e6760648201526720737472696e672960c01b608482015260a490fd5b156127bb57565b60405162461bcd60e51b815260206004820152604c60248201526000805160206138e583398151915260448201527f742062652067726561746572207468616e20746f74616c206c656e677468202860648201526b6c6f6e6720737472696e672960a01b608482015260a490fd5b1561283057565b60405162461bcd60e51b815260206004820152604e60248201526000805160206138e583398151915260448201527f742062652067726561746572207468616e20737472696e67206c656e6774682060648201526d2873686f727420737472696e672960901b608482015260a490fd5b156128a757565b60405162461bcd60e51b815260206004820152604d60248201527f524c505265616465723a20696e76616c6964207072656669782c2073696e676c60448201527f652062797465203c203078383020617265206e6f74207072656669786564202860648201526c73686f727420737472696e672960981b608482015260a490fd5b906129358251151561227a565b6020820151805160001a90607f8211612955575060009250600191839150565b60b782116129af5761297561296c61299793611ded565b80955111612829565b6001908101519084148015916001600160f81b031916906129a0575b506128a0565b60019190600090565b600160ff1b1115905038612991565b60bf8211612a2157612a1560016129c8612a1a94611dde565b926129d584885111612656565b0180516129ed906001600160f81b03191615156126d0565b518260031b610100031c94612a0460378711612743565b51612a0f8684610f24565b106127b4565b610f16565b9190600090565b60f78211612a475750612a36612a3f91611dcf565b809351116125e3565b600191908290565b612a156001612a58612aa594611dc0565b92612a658488511161241a565b018051612a7d906001600160f81b0319161515612490565b518260031b610100031c94612a9460378711612501565b51612a9f8684610f24565b10612570565b9190600190565b60408051909190612abd8382610494565b6001815291601f1901366020840137565b60405190612add602083610494565b6000808352366020840137565b90612af4826104fb565b612b016040519182610494565b8281528092612b12601f19916104fb565b0190602036910137565b9190612b2781612aea565b928115612b665781906000905b828210612b4f575011612b445750565b602060009184010152565b915080602091830151828288010152018291612b34565b5050565b92919092612b7782612aea565b938215612bb4578101809111610ed95781906000905b828210612b9d575011612b445750565b915080602091830151828288010152018291612b8d565b505050565b8115612bc3570490565b634e487b7160e01b600052601260045260246000fd5b6000198114610ed95760010190565b60ff60379116019060ff8211610ed957565b9060ff8091169116019060ff8211610ed957565b601f8111610ed9576101000a90565b906038821015612c4f57612c40611ed060c060ff612c39612aac565b9516612bfa565b60001a612c4c83611da2565b53565b60019160005b612c5f8483612bb9565b15612c7657611f20612c7091612bd9565b92612c55565b909250612c85611f3e82610f08565b92612c9a611ed0611f5860c060ff8616612bfa565b60001a612ca685611da2565b5360015b82811115612cb757505050565b80611fb6611ed0611fb0611fb0611faa611fa5612cd4978a611e0b565b612caa565b6020815191012060405190602082015260208152610568604082610494565b90815115612d81576000805b8351821015612d2d57612d25600191612d1d8487610fc1565b515190610f24565b910190612d04565b612d379150612aea565b60009290602081015b8251851015612d7b57612d73600191612d69612d5c8887610fc1565b516020815191018361359a565b612d1d8786610fc1565b940193612d40565b50925050565b9050610568612ace565b15612d9257565b60405162461bcd60e51b81526020600482015260156024820152744d65726b6c65547269653a20656d707479206b657960581b6044820152606490fd5b15612dd657565b60405162461bcd60e51b815260206004820152602e60248201527f4d65726b6c65547269653a206b657920696e646578206578636565647320746f60448201526d0e8c2d840d6caf240d8cadccee8d60931b6064820152608490fd5b15612e3957565b60405162461bcd60e51b815260206004820152602660248201527f4d65726b6c65547269653a20696e76616c696420696e7465726e616c206e6f646044820152650ca40d0c2e6d60d31b6064820152608490fd5b15612e9457565b60405162461bcd60e51b815260206004820152602760248201527f4d65726b6c65547269653a20696e76616c6964206c6172676520696e7465726e6044820152660c2d840d0c2e6d60cb1b6064820152608490fd5b15612ef057565b60405162461bcd60e51b815260206004820152601d60248201527f4d65726b6c65547269653a20696e76616c696420726f6f7420686173680000006044820152606490fd5b60ff166002039060ff8211610ed957565b15612f4d57565b60405162461bcd60e51b815260206004820152603a60248201527f4d65726b6c65547269653a20706174682072656d61696e646572206d7573742060448201527f736861726520616c6c206e6962626c65732077697468206b65790000000000006064820152608490fd5b15612fbf57565b60405162461bcd60e51b815260206004820152603d60248201527f4d65726b6c65547269653a206b65792072656d61696e646572206d757374206260448201527f65206964656e746963616c20746f20706174682072656d61696e6465720000006064820152608490fd5b1561303157565b60405162461bcd60e51b815260206004820152603960248201527f4d65726b6c65547269653a2076616c7565206c656e677468206d75737420626560448201527f2067726561746572207468616e207a65726f20286c65616629000000000000006064820152608490fd5b156130a357565b60405162461bcd60e51b815260206004820152603860248201527f4d65726b6c65547269653a2076616c7565206e6f6465206d757374206265206c60448201527f617374206e6f646520696e2070726f6f6620286c6561662900000000000000006064820152608490fd5b1561311557565b60405162461bcd60e51b815260206004820152603b60248201527f4d65726b6c65547269653a2076616c7565206c656e677468206d75737420626560448201527f2067726561746572207468616e207a65726f20286272616e63682900000000006064820152608490fd5b1561318757565b60405162461bcd60e51b815260206004820152603a60248201527f4d65726b6c65547269653a2076616c7565206e6f6465206d757374206265206c60448201527f617374206e6f646520696e2070726f6f6620286272616e6368290000000000006064820152608490fd5b919061322c6132186132126115309361320d87511515612d8b565b6135f0565b946136a9565b926040519283916020830160209181520190565b600080926011905b8551851015613547576132478587610fc1565b51936132568251851115612dcf565b836134ef5761329761329c916115306132848851602081519101206040519283916020830160209181520190565b6020815191012090602081519101201490565b612ee9565b6020840193828551511460001461333e5750805183036132e657505050906132e06132cd610a586105689451610fb0565b936132da8551151561310e565b51611dfc565b14613180565b9193909261333261332c61332660019360ff61331c6133166133088c8b611daf565b516001600160f81b03191690565b60f81c90565b9151911690610fc1565b51613842565b95610f08565b915b0193929091613234565b600285969594929451511460001461349957613359906136fc565b9161338261336c61331661330886611da2565b9361337c611fb060018716612f35565b9061371c565b9360ff61338f848361371c565b946133a661339d87896137d7565b80985114612f46565b1660028114801561348f575b156133ed5750505050610a58610568946133d46133e7946133da945114612fb8565b51610fa0565b936132da8551151561302a565b1461309c565b80919593979296945015908115613484575b50156134245760019161341861332661341e9351610fa0565b96610f24565b91613334565b60405162461bcd60e51b815260206004820152603260248201527f4d65726b6c65547269653a2072656365697665642061206e6f64652077697468604482015271040c2dc40eadcd6dcdeeedc40e0e4caccd2f60731b6064820152608490fd5b6001915014386133ff565b50600381146133b2565b60405162461bcd60e51b815260206004820152602860248201527f4d65726b6c65547269653a20726563656976656420616e20756e706172736561604482015267626c65206e6f646560c01b6064820152608490fd5b8451805160201161352e5750613524613529916115306132848851602081519101206040519283916020830160209181520190565b612e8d565b61329c565b8051602091820120825191909201206135299114612e32565b60405162461bcd60e51b815260206004820152602560248201527f4d65726b6c65547269653a2072616e206f7574206f662070726f6f6620656c656044820152646d656e747360d81b6064820152608490fd5b915b60208110156135c057600019906020036101000a0190811990511690825116179052565b90918251815260208101809111610ed9579160208101809111610ed95790601f1981019081111561359c57610ead565b9081516135fc816104e4565b6136096040519182610494565b818152601f19613618836104e4565b0160005b818110613684575050809360005b8381106136375750505050565b8061364460019284610fc1565b516136586136528386610fc1565b51611b5d565b6136606104d5565b91825260208201526136728286610fc1565b5261367d8185610fc1565b500161362a565b60209060405161369381610479565b606081526060838201528282860101520161361c565b604051908051908160011b603f8101601f19168401604052835260005b8281106136d35750505090565b80600191821b85016021600f6020848701015160001a8060041c602085015316910153016136c6565b60200151805115610f7b576137176020610568920151611cfc565b6136a9565b9081518110156137c057815181810390808211610ed957829061374483601f81011015613867565b61375f83830161375684821015613867565b865110156138a4565b0361377857505050604051600081526020810160405290565b60405192601f821692831560051b80858701019484860193010101905b8084106137ad5750508252601f01601f191660405290565b9092602080918551815201930190613795565b50506040516137d0602082610494565b6000815290565b805182516000949391908082101561383a5750935b5b84811080613809575b15613803576001016137ed565b93505050565b506001600160f81b031961381d8285611daf565b51166001600160f81b03196138328385611daf565b5116146137f6565b9050936137ec565b602081511060001461385e576020810151905161056891612b1c565b61056890611cfc565b1561386e57565b60405162461bcd60e51b815260206004820152600e60248201526d736c6963655f6f766572666c6f7760901b6044820152606490fd5b156138ab57565b60405162461bcd60e51b8152602060048201526011602482015270736c6963655f6f75744f66426f756e647360781b6044820152606490fdfe524c505265616465723a206c656e677468206f6620636f6e74656e74206d7573a2646970667358221220e06e3e98f9d4fb1ab2ce61ff2a68b21ff442295973836ee0f6e7fda146da56ce64736f6c634300081a0033",
  "linkReferences": {},
  "deployedLinkReferences": {}
}